{
    "contractName": "RandomNumberConsumer",
    "abi": [
        {
            "inputs": [
                {
                    "internalType": "address",
                    "name": "_factory",
                    "type": "address"
                }
            ],
            "stateMutability": "nonpayable",
            "type": "constructor"
        },
        {
            "inputs": [],
            "name": "factory",
            "outputs": [
                {
                    "internalType": "address",
                    "name": "",
                    "type": "address"
                }
            ],
            "stateMutability": "view",
            "type": "function"
        },
        {
            "inputs": [],
            "name": "getAmountOfLink",
            "outputs": [
                {
                    "internalType": "uint256",
                    "name": "amount",
                    "type": "uint256"
                }
            ],
            "stateMutability": "view",
            "type": "function"
        },
        {
            "inputs": [
                {
                    "internalType": "uint256",
                    "name": "userProvidedSeed",
                    "type": "uint256"
                }
            ],
            "name": "getRandomNumber",
            "outputs": [
                {
                    "internalType": "bytes32",
                    "name": "requestId",
                    "type": "bytes32"
                }
            ],
            "stateMutability": "nonpayable",
            "type": "function"
        },
        {
            "inputs": [],
            "name": "randomResult",
            "outputs": [
                {
                    "internalType": "uint256",
                    "name": "",
                    "type": "uint256"
                }
            ],
            "stateMutability": "view",
            "type": "function"
        },
        {
            "inputs": [
                {
                    "internalType": "bytes32",
                    "name": "requestId",
                    "type": "bytes32"
                },
                {
                    "internalType": "uint256",
                    "name": "randomness",
                    "type": "uint256"
                }
            ],
            "name": "rawFulfillRandomness",
            "outputs": [],
            "stateMutability": "nonpayable",
            "type": "function"
        }
    ],
    "bytecode": "60c0604052600580546001600160a01b031990811673dd3782915140c8f3b190b5d67eac6dc5760c46e9179091556006805490911673a36085f69e2889c224210f603d836748e7dc008817905534801561005857600080fd5b506040516108e63803806108e6833981016040819052610077916100ec565b600554600654606091821b6001600160601b031990811660a052911b16608052600180546001600160a01b0319166001600160a01b03929092169190911790557f6c3699283bda56ad74f6b855546325b68d482e983852a7a82979cc4807b641f460025567016345785d8a000060035561011a565b6000602082840312156100fd578081fd5b81516001600160a01b0381168114610113578182fd5b9392505050565b60805160601c60a05160601c61078d61015960003960008181610174015261037b01526000818160df015281816101cf015261034c015261078d6000f3fe608060405234801561001057600080fd5b50600436106100575760003560e01c806342619f661461005c5780634915c2401461007a57806394985ddd14610082578063b37217a414610097578063c45a0155146100aa575b600080fd5b6100646100bf565b60405161007191906105fe565b60405180910390f35b6100646100c5565b610095610090366004610521565b610169565b005b6100646100a5366004610542565b6101c8565b6100b26102c6565b6040516100719190610580565b60045481565b6040516370a0823160e01b81526000906001600160a01b037f000000000000000000000000000000000000000000000000000000000000000016906370a0823190610114903090600401610580565b60206040518083038186803b15801561012c57600080fd5b505afa158015610140573d6000803e3d6000fd5b505050506040513d601f19601f82011682018060405250810190610164919061055a565b905090565b336001600160a01b037f000000000000000000000000000000000000000000000000000000000000000016146101ba5760405162461bcd60e51b81526004016101b1906106c8565b60405180910390fd5b6101c482826102d5565b5050565b60006003547f00000000000000000000000000000000000000000000000000000000000000006001600160a01b03166370a08231306040518263ffffffff1660e01b81526004016102199190610580565b60206040518083038186803b15801561023157600080fd5b505afa158015610245573d6000803e3d6000fd5b505050506040513d601f19601f82011682018060405250810190610269919061055a565b10156102875760405162461bcd60e51b81526004016101b19061067d565b6001546001600160a01b031633146102b15760405162461bcd60e51b81526004016101b19061062b565b6102c060025460035484610348565b92915050565b6001546001600160a01b031681565b6102e0600282610737565b6004818155600154604051623a082f60e31b81526001600160a01b03909116926301d0417892610312928791016106ff565b600060405180830381600087803b15801561032c57600080fd5b505af1158015610340573d6000803e3d6000fd5b505050505050565b60007f00000000000000000000000000000000000000000000000000000000000000006001600160a01b0316634000aea07f00000000000000000000000000000000000000000000000000000000000000008587866040516020016103ae929190610572565b6040516020818303038152906040526040518463ffffffff1660e01b81526004016103db93929190610594565b602060405180830381600087803b1580156103f557600080fd5b505af1158015610409573d6000803e3d6000fd5b505050506040513d601f19601f8201168201806040525081019061042d91906104fa565b50600061044e8584306000808a81526020019081526020016000205461048d565b60008681526020819052604090205490915061046b906001610713565b60008681526020819052604090205561048485826104c7565b95945050505050565b6000848484846040516020016104a69493929190610607565b60408051601f19818403018152919052805160209091012095945050505050565b600082826040516020016104dc929190610572565b60405160208183030381529060405280519060200120905092915050565b60006020828403121561050b578081fd5b8151801515811461051a578182fd5b9392505050565b60008060408385031215610533578081fd5b50508035926020909101359150565b600060208284031215610553578081fd5b5035919050565b60006020828403121561056b578081fd5b5051919050565b918252602082015260400190565b6001600160a01b0391909116815260200190565b600060018060a01b038516825260208481840152606060408401528351806060850152825b818110156105d5578581018301518582016080015282016105b9565b818111156105e65783608083870101525b50601f01601f19169290920160800195945050505050565b90815260200190565b93845260208401929092526001600160a01b03166040830152606082015260800190565b60208082526032908201527f4f6e6c792074686520576167657220466163746f72792063616e2072657472696040820152716576652072616e646f6d206e756d6265727360701b606082015260800190565b6020808252602b908201527f4e6f7420656e6f756768204c494e4b202d2066696c6c20636f6e74726163742060408201526a1dda5d1a0819985d58d95d60aa1b606082015260800190565b6020808252601f908201527f4f6e6c7920565246436f6f7264696e61746f722063616e2066756c66696c6c00604082015260600190565b61ffff929092168252602082015260400190565b6000821982111561073257634e487b7160e01b81526011600452602481fd5b500190565b60008261075257634e487b7160e01b81526012600452602481fd5b50069056fea264697066735822122053f4dac3e3ad055e44a67b2e43f6eabbb0b8aa108e5fe1394c02de87b14d0ca264736f6c63430008000033",
    "sourcePath": "/Users/jaredborders/Documents/Work/Blockchain/2X/contracts/RandomNumberConsumer.sol",
    "compiler": {
        "name": "solc",
        "version": "0.8.0+commit.c7dfd78e"
    },
    "functionHashes": {
        "factory()": "c45a0155",
        "getAmountOfLink()": "4915c240",
        "getRandomNumber(uint256)": "b37217a4",
        "randomResult()": "42619f66",
        "rawFulfillRandomness(bytes32,uint256)": "94985ddd"
    },
    "gasEstimates": {
        "creation": {
            "codeDepositCost": "386600",
            "executionCost": "infinite",
            "totalCost": "infinite"
        },
        "external": {
            "factory()": "1136",
            "getAmountOfLink()": "infinite",
            "getRandomNumber(uint256)": "infinite",
            "randomResult()": "1006",
            "rawFulfillRandomness(bytes32,uint256)": "infinite"
        },
        "internal": {
            "fulfillRandomness(bytes32,uint256)": "infinite"
        }
    }
}