{
    "contractName": "Wager",
    "abi": [
        {
            "inputs": [
                {
                    "internalType": "address",
                    "name": "_owner",
                    "type": "address"
                },
                {
                    "internalType": "address",
                    "name": "_factory",
                    "type": "address"
                }
            ],
            "stateMutability": "payable",
            "type": "constructor"
        },
        {
            "inputs": [
                {
                    "internalType": "uint16",
                    "name": "randomNumber",
                    "type": "uint16"
                }
            ],
            "name": "PayWinner",
            "outputs": [],
            "stateMutability": "nonpayable",
            "type": "function"
        },
        {
            "inputs": [
                {
                    "internalType": "address",
                    "name": "_challenger",
                    "type": "address"
                }
            ],
            "name": "challenge",
            "outputs": [],
            "stateMutability": "payable",
            "type": "function"
        },
        {
            "inputs": [],
            "name": "challenger",
            "outputs": [
                {
                    "internalType": "address",
                    "name": "",
                    "type": "address"
                }
            ],
            "stateMutability": "view",
            "type": "function"
        },
        {
            "inputs": [
                {
                    "internalType": "uint256",
                    "name": "_wagerDuration",
                    "type": "uint256"
                }
            ],
            "name": "establishWager",
            "outputs": [],
            "stateMutability": "payable",
            "type": "function"
        },
        {
            "inputs": [],
            "name": "factory",
            "outputs": [
                {
                    "internalType": "address",
                    "name": "",
                    "type": "address"
                }
            ],
            "stateMutability": "view",
            "type": "function"
        },
        {
            "inputs": [],
            "name": "getWagerData",
            "outputs": [
                {
                    "internalType": "address",
                    "name": "",
                    "type": "address"
                },
                {
                    "internalType": "uint256",
                    "name": "",
                    "type": "uint256"
                },
                {
                    "internalType": "uint256",
                    "name": "",
                    "type": "uint256"
                },
                {
                    "internalType": "bool",
                    "name": "",
                    "type": "bool"
                }
            ],
            "stateMutability": "view",
            "type": "function"
        },
        {
            "inputs": [],
            "name": "hasBeenChallenged",
            "outputs": [
                {
                    "internalType": "bool",
                    "name": "",
                    "type": "bool"
                }
            ],
            "stateMutability": "view",
            "type": "function"
        },
        {
            "inputs": [],
            "name": "randomResult",
            "outputs": [
                {
                    "internalType": "uint256",
                    "name": "",
                    "type": "uint256"
                }
            ],
            "stateMutability": "view",
            "type": "function"
        },
        {
            "inputs": [],
            "name": "wagerAmount",
            "outputs": [
                {
                    "internalType": "uint256",
                    "name": "",
                    "type": "uint256"
                }
            ],
            "stateMutability": "view",
            "type": "function"
        },
        {
            "inputs": [],
            "name": "wagerExpireTime",
            "outputs": [
                {
                    "internalType": "uint256",
                    "name": "",
                    "type": "uint256"
                }
            ],
            "stateMutability": "view",
            "type": "function"
        },
        {
            "inputs": [],
            "name": "wagerer",
            "outputs": [
                {
                    "internalType": "address",
                    "name": "",
                    "type": "address"
                }
            ],
            "stateMutability": "view",
            "type": "function"
        },
        {
            "inputs": [],
            "name": "withdrawFunds",
            "outputs": [],
            "stateMutability": "nonpayable",
            "type": "function"
        }
    ],
    "bytecode": "608060408190526000805460ff19168155600355610b313881900390819083398101604081905261002f91610089565b60008054610100600160a81b0319166101006001600160a01b0393841602179055600180546001600160a01b031916929091169190911790556100bb565b80516001600160a01b038116811461008457600080fd5b919050565b6000806040838503121561009b578182fd5b6100a48361006d565b91506100b26020840161006d565b90509250929050565b610a67806100ca6000396000f3fe6080604052600436106100a75760003560e01c806349de47041161006457806349de47041461016a578063534db0e21461017f578063586c0d561461019457806372fb9703146101b457806381980e3a146101c7578063c45a0155146101dc576100a7565b806305cde07c146100ac57806314dd1663146100da57806324600fc3146100fc5780632f47f0701461011357806342619f6614610126578063485e70a014610148575b600080fd5b3480156100b857600080fd5b506100c16101f1565b6040516100d19493929190610784565b60405180910390f35b3480156100e657600080fd5b506100ef610212565b6040516100d191906107ac565b34801561010857600080fd5b5061011161021b565b005b610111610121366004610758565b6102bd565b34801561013257600080fd5b5061013b610365565b6040516100d191906109a4565b34801561015457600080fd5b5061015d61036b565b6040516100d19190610770565b34801561017657600080fd5b5061013b61037a565b34801561018b57600080fd5b5061015d610380565b3480156101a057600080fd5b506101116101af366004610736565b61038f565b6101116101c23660046106f0565b6104e8565b3480156101d357600080fd5b5061013b61057e565b3480156101e857600080fd5b5061015d610584565b6001546003546004546000546001600160a01b039093169260ff1690919293565b60005460ff1681565b6001546001600160a01b0316331461024e5760405162461bcd60e51b8152600401610245906107b7565b60405180910390fd5b60005460ff16156102715760405162461bcd60e51b8152600401610245906108ad565b6001546003546040516001600160a01b039092169181156108fc0291906000818181858888f193505050501580156102ad573d6000803e3d6000fd5b5060006003556102bb610598565b565b655af3107a40003410156102e35760405162461bcd60e51b81526004016102459061096f565b8061012c8110156103065760405162461bcd60e51b815260040161024590610825565b6001546001600160a01b031633146103305760405162461bcd60e51b8152600401610245906107b7565b600354156103505760405162461bcd60e51b8152600401610245906107ee565b3460035561035e42836109ad565b6004555050565b60075481565b6001546001600160a01b031681565b60035481565b6002546001600160a01b031681565b60005461010090046001600160a01b031633146103be5760405162461bcd60e51b8152600401610245906108ee565b7353b62647d04a0c53fdfe15b729c53baa73a034f06001600160a01b03166108fc6103e860035460076103f191906109e5565b6103fb91906109c5565b6040518115909202916000818181858888f19350505050158015610423573d6000803e3d6000fd5b506103e8600354600761043691906109e5565b61044091906109c5565b600360008282546104519190610a04565b909155505061ffff8116156104a2576002546003546040516001600160a01b039092169181156108fc0291906000818181858888f1935050505015801561049c573d6000803e3d6000fd5b506104e0565b6001546003546040516001600160a01b039092169181156108fc0291906000818181858888f193505050501580156104de573d6000803e3d6000fd5b505b506000600355565b60045442106105095760405162461bcd60e51b815260040161024590610882565b60005460ff161561052c5760405162461bcd60e51b8152600401610245906108ad565b600354341461054d5760405162461bcd60e51b815260040161024590610938565b6000805460ff191660011781556003805434929061056c9084906109ad565b9091555061057b905081610674565b50565b60045481565b60005461010090046001600160a01b031681565b60005460405163445e9d3960e11b81526101009091046001600160a01b03169063df945c6e9082906388bd3a72906105d4903090600401610770565b60206040518083038186803b1580156105ec57600080fd5b505afa158015610600573d6000803e3d6000fd5b505050506040513d601f19601f82011682018060405250810190610624919061071e565b6040518263ffffffff1660e01b815260040161064091906109a4565b600060405180830381600087803b15801561065a57600080fd5b505af115801561066e573d6000803e3d6000fd5b50505050565b600280546001600160a01b0319166001600160a01b0383811691909117909155600080546040805163d605787b60e01b815290516101009092049093169263d605787b92600480830193919282900301818387803b1580156106d557600080fd5b505af11580156106e9573d6000803e3d6000fd5b5050505050565b600060208284031215610701578081fd5b81356001600160a01b0381168114610717578182fd5b9392505050565b60006020828403121561072f578081fd5b5051919050565b600060208284031215610747578081fd5b813561ffff81168114610717578182fd5b600060208284031215610769578081fd5b5035919050565b6001600160a01b0391909116815260200190565b6001600160a01b03949094168452602084019290925260408301521515606082015260800190565b901515815260200190565b6020808252601c908201527f4d75737420626520746865206f726967696e616c207761676572657200000000604082015260600190565b6020808252601d908201527f57616765722068617320616c7265616479206265656e20706c61636564000000604082015260600190565b60208082526038908201527f4475726174696f6e206f6620776167657220617661696c6162696c697479206960408201527f7320746f6f2073686f727420283c35206d696e75746573290000000000000000606082015260800190565b60208082526011908201527015d859d95c881a185cc8195e1c1a5c9959607a1b604082015260600190565b60208082526021908201527f57616765722068617320616c7265616479206265656e206368616c6c656e67656040820152601960fa1b606082015260800190565b6020808252602a908201527f4f6e6c792074686520466163746f72792063616e20736574207468652072616e604082015269646f6d4e756d6265722160b01b606082015260800190565b6020808252601e908201527f596f75206d757374207761676572207468652073616d6520616d6f756e740000604082015260600190565b6020808252818101527f4d757374207761676572206174206c6561737420302e30303031206574686572604082015260600190565b90815260200190565b600082198211156109c0576109c0610a1b565b500190565b6000826109e057634e487b7160e01b81526012600452602481fd5b500490565b60008160001904831182151516156109ff576109ff610a1b565b500290565b600082821015610a1657610a16610a1b565b500390565b634e487b7160e01b600052601160045260246000fdfea26469706673582212207777e828dea779cbb60d55972a26fec1a60d647c7744e73d06543d9ed6b1b9b564736f6c63430008000033",
    "sourcePath": "/Users/jaredborders/Documents/Work/Blockchain/2X/contracts/Wager.sol",
    "compiler": {
        "name": "solc",
        "version": "0.8.0+commit.c7dfd78e"
    },
    "functionHashes": {
        "PayWinner(uint16)": "586c0d56",
        "challenge(address)": "72fb9703",
        "challenger()": "534db0e2",
        "establishWager(uint256)": "2f47f070",
        "factory()": "c45a0155",
        "getWagerData()": "05cde07c",
        "hasBeenChallenged()": "14dd1663",
        "randomResult()": "42619f66",
        "wagerAmount()": "49de4704",
        "wagerExpireTime()": "81980e3a",
        "wagerer()": "485e70a0",
        "withdrawFunds()": "24600fc3"
    },
    "gasEstimates": {
        "creation": {
            "codeDepositCost": "532600",
            "executionCost": "infinite",
            "totalCost": "infinite"
        },
        "external": {
            "PayWinner(uint16)": "infinite",
            "challenge(address)": "infinite",
            "challenger()": "1092",
            "establishWager(uint256)": "42059",
            "factory()": "1191",
            "getWagerData()": "3582",
            "hasBeenChallenged()": "1063",
            "randomResult()": "1117",
            "wagerAmount()": "1028",
            "wagerExpireTime()": "1116",
            "wagerer()": "1181",
            "withdrawFunds()": "infinite"
        },
        "internal": {
            "findWinner(address)": "infinite",
            "removeWager()": "infinite"
        }
    }
}