{
    "contractName": "WagerFactory",
    "abi": [
        {
            "inputs": [],
            "stateMutability": "nonpayable",
            "type": "constructor"
        },
        {
            "anonymous": false,
            "inputs": [
                {
                    "indexed": false,
                    "internalType": "address",
                    "name": "wagerer",
                    "type": "address"
                },
                {
                    "indexed": false,
                    "internalType": "address",
                    "name": "factory",
                    "type": "address"
                }
            ],
            "name": "WagerCreated",
            "type": "event"
        },
        {
            "inputs": [],
            "name": "createWagerContract",
            "outputs": [],
            "stateMutability": "payable",
            "type": "function"
        },
        {
            "inputs": [
                {
                    "internalType": "address",
                    "name": "_address",
                    "type": "address"
                }
            ],
            "name": "findIndexOfAddress",
            "outputs": [
                {
                    "internalType": "int256",
                    "name": "",
                    "type": "int256"
                }
            ],
            "stateMutability": "view",
            "type": "function"
        },
        {
            "inputs": [],
            "name": "getWagers",
            "outputs": [
                {
                    "internalType": "address[]",
                    "name": "",
                    "type": "address[]"
                }
            ],
            "stateMutability": "view",
            "type": "function"
        },
        {
            "inputs": [],
            "name": "randomNumberConsumerAddress",
            "outputs": [
                {
                    "internalType": "address",
                    "name": "",
                    "type": "address"
                }
            ],
            "stateMutability": "view",
            "type": "function"
        },
        {
            "inputs": [
                {
                    "internalType": "uint256",
                    "name": "index",
                    "type": "uint256"
                }
            ],
            "name": "removeAddress",
            "outputs": [],
            "stateMutability": "nonpayable",
            "type": "function"
        },
        {
            "inputs": [],
            "name": "rng",
            "outputs": [],
            "stateMutability": "nonpayable",
            "type": "function"
        },
        {
            "inputs": [
                {
                    "internalType": "uint16",
                    "name": "_randomNumber",
                    "type": "uint16"
                },
                {
                    "internalType": "bytes32",
                    "name": "requestId",
                    "type": "bytes32"
                }
            ],
            "name": "setRandomNumber",
            "outputs": [],
            "stateMutability": "nonpayable",
            "type": "function"
        },
        {
            "inputs": [
                {
                    "internalType": "uint256",
                    "name": "",
                    "type": "uint256"
                }
            ],
            "name": "wagerAddresses",
            "outputs": [
                {
                    "internalType": "address",
                    "name": "",
                    "type": "address"
                }
            ],
            "stateMutability": "view",
            "type": "function"
        }
    ],
    "bytecode": "608060405234801561001057600080fd5b506000306040516100209061006d565b61002a919061007a565b604051809103906000f080158015610046573d6000803e3d6000fd5b50600180546001600160a01b0319166001600160a01b03929092169190911790555061008e565b6108e68061152e83390190565b6001600160a01b0391909116815260200190565b6114918061009d6000396000f3fe60806040526004361061007b5760003560e01c806392b7cdb51161004e57806392b7cdb51461011a578063abe4b0e41461013c578063d605787b14610144578063df945c6e146101595761007b565b806301d041781461008057806305c38e33146100a25780634a49c8ef146100d857806388bd3a72146100ed575b600080fd5b34801561008c57600080fd5b506100a061009b366004610727565b610179565b005b3480156100ae57600080fd5b506100c26100bd366004610758565b610244565b6040516100cf9190610786565b60405180910390f35b3480156100e457600080fd5b506100c261026e565b3480156100f957600080fd5b5061010d6101083660046106e1565b61027d565b6040516100cf9190610801565b34801561012657600080fd5b5061012f6102f6565b6040516100cf91906107b4565b6100a0610358565b34801561015057600080fd5b506100a061041b565b34801561016557600080fd5b506100a0610174366004610758565b610518565b6001546001600160a01b031633146101ac5760405162461bcd60e51b81526004016101a39061080a565b60405180910390fd5b60008181526002602052604090819020549051632c3606ab60e11b81526001600160a01b039091169063586c0d56906101e99085906004016108bb565b600060405180830381600087803b15801561020357600080fd5b505af1158015610217573d6000803e3d6000fd5b5050506000828152600260205260409020546102409150610174906001600160a01b031661027d565b5050565b6000818154811061025457600080fd5b6000918252602090912001546001600160a01b0316905081565b6001546001600160a01b031681565b6000805b6000548110156102ea57826001600160a01b0316600082815481106102b657634e487b7160e01b600052603260045260246000fd5b6000918252602090912001546001600160a01b031614156102d85790506102f1565b806102e2816108f9565b915050610281565b5060001990505b919050565b6060600080548060200260200160405190810160405280929190818152602001828054801561034e57602002820191906000526020600020905b81546001600160a01b03168152600190910190602001808311610330575b5050505050905090565b60003330604051610368906106d4565b61037392919061079a565b604051809103906000f08015801561038f573d6000803e3d6000fd5b50600080546001810182559080527f290decd9548b62a8d60345a988386fc84ba6bc95484008f6362f93160ef3e5630180546001600160a01b0319166001600160a01b03831617905560405190915081907fc7ff48e81ca1456d3b22a8bfdcfd534c2f768d6d216831ffb8bac7bbdc6f04b29061040f908390309061079a565b60405180910390a15050565b60006104263361027d565b12156104445760405162461bcd60e51b81526004016101a390610867565b6001546040516000916001600160a01b03169063b37217a49061046f90429043904490602001610770565b60408051601f198184030181529082905280516020909101206001600160e01b031960e084901b1682526104a591600401610801565b602060405180830381600087803b1580156104bf57600080fd5b505af11580156104d3573d6000803e3d6000fd5b505050506040513d601f19601f820116820180604052508101906104f7919061070f565b600090815260026020526040902080546001600160a01b0319163317905550565b6000548110610526576106d1565b600080828154811061054857634e487b7160e01b600052603260045260246000fd5b600091825260209182902001546040805163127791c160e21b815290516001600160a01b03909216935083926349de470492600480840193829003018186803b15801561059457600080fd5b505afa1580156105a8573d6000803e3d6000fd5b505050506040513d601f19601f820116820180604052508101906105cc919061070f565b156105d757506106d1565b815b6000546105e8906001906108e2565b81101561068d5760006105fc8260016108ca565b8154811061061a57634e487b7160e01b600052603260045260246000fd5b600091825260208220015481546001600160a01b0390911691908390811061065257634e487b7160e01b600052603260045260246000fd5b600091825260209091200180546001600160a01b0319166001600160a01b039290921691909117905580610685816108f9565b9150506105d9565b5060008054806106ad57634e487b7160e01b600052603160045260246000fd5b600082815260209020810160001990810180546001600160a01b0319169055019055505b50565b610b318061092b83390190565b6000602082840312156106f2578081fd5b81356001600160a01b0381168114610708578182fd5b9392505050565b600060208284031215610720578081fd5b5051919050565b60008060408385031215610739578081fd5b823561ffff8116811461074a578182fd5b946020939093013593505050565b600060208284031215610769578081fd5b5035919050565b9283526020830191909152604082015260600190565b6001600160a01b0391909116815260200190565b6001600160a01b0392831681529116602082015260400190565b6020808252825182820181905260009190848201906040850190845b818110156107f55783516001600160a01b0316835292840192918401916001016107d0565b50909695505050505050565b90815260200190565b60208082526038908201527f4f6e6c792052616e646f6d4e756d626572436f6e73756d65722063616e20736560408201527f74207468652072616e646f6d4e756d6265722073746174650000000000000000606082015260800190565b60208082526034908201527f726e6728292063616e206f6e6c792062652063616c6c6564206279206465706c6040820152736f79656420576167657220636f6e74726163747360601b606082015260800190565b61ffff91909116815260200190565b600082198211156108dd576108dd610914565b500190565b6000828210156108f4576108f4610914565b500390565b600060001982141561090d5761090d610914565b5060010190565b634e487b7160e01b600052601160045260246000fdfe608060408190526000805460ff19168155600355610b313881900390819083398101604081905261002f91610089565b60008054610100600160a81b0319166101006001600160a01b0393841602179055600180546001600160a01b031916929091169190911790556100bb565b80516001600160a01b038116811461008457600080fd5b919050565b6000806040838503121561009b578182fd5b6100a48361006d565b91506100b26020840161006d565b90509250929050565b610a67806100ca6000396000f3fe6080604052600436106100a75760003560e01c806349de47041161006457806349de47041461016a578063534db0e21461017f578063586c0d561461019457806372fb9703146101b457806381980e3a146101c7578063c45a0155146101dc576100a7565b806305cde07c146100ac57806314dd1663146100da57806324600fc3146100fc5780632f47f0701461011357806342619f6614610126578063485e70a014610148575b600080fd5b3480156100b857600080fd5b506100c16101f1565b6040516100d19493929190610784565b60405180910390f35b3480156100e657600080fd5b506100ef610212565b6040516100d191906107ac565b34801561010857600080fd5b5061011161021b565b005b610111610121366004610758565b6102bd565b34801561013257600080fd5b5061013b610365565b6040516100d191906109a4565b34801561015457600080fd5b5061015d61036b565b6040516100d19190610770565b34801561017657600080fd5b5061013b61037a565b34801561018b57600080fd5b5061015d610380565b3480156101a057600080fd5b506101116101af366004610736565b61038f565b6101116101c23660046106f0565b6104e8565b3480156101d357600080fd5b5061013b61057e565b3480156101e857600080fd5b5061015d610584565b6001546003546004546000546001600160a01b039093169260ff1690919293565b60005460ff1681565b6001546001600160a01b0316331461024e5760405162461bcd60e51b8152600401610245906107b7565b60405180910390fd5b60005460ff16156102715760405162461bcd60e51b8152600401610245906108ad565b6001546003546040516001600160a01b039092169181156108fc0291906000818181858888f193505050501580156102ad573d6000803e3d6000fd5b5060006003556102bb610598565b565b655af3107a40003410156102e35760405162461bcd60e51b81526004016102459061096f565b8061012c8110156103065760405162461bcd60e51b815260040161024590610825565b6001546001600160a01b031633146103305760405162461bcd60e51b8152600401610245906107b7565b600354156103505760405162461bcd60e51b8152600401610245906107ee565b3460035561035e42836109ad565b6004555050565b60075481565b6001546001600160a01b031681565b60035481565b6002546001600160a01b031681565b60005461010090046001600160a01b031633146103be5760405162461bcd60e51b8152600401610245906108ee565b7353b62647d04a0c53fdfe15b729c53baa73a034f06001600160a01b03166108fc6103e860035460076103f191906109e5565b6103fb91906109c5565b6040518115909202916000818181858888f19350505050158015610423573d6000803e3d6000fd5b506103e8600354600761043691906109e5565b61044091906109c5565b600360008282546104519190610a04565b909155505061ffff8116156104a2576002546003546040516001600160a01b039092169181156108fc0291906000818181858888f1935050505015801561049c573d6000803e3d6000fd5b506104e0565b6001546003546040516001600160a01b039092169181156108fc0291906000818181858888f193505050501580156104de573d6000803e3d6000fd5b505b506000600355565b60045442106105095760405162461bcd60e51b815260040161024590610882565b60005460ff161561052c5760405162461bcd60e51b8152600401610245906108ad565b600354341461054d5760405162461bcd60e51b815260040161024590610938565b6000805460ff191660011781556003805434929061056c9084906109ad565b9091555061057b905081610674565b50565b60045481565b60005461010090046001600160a01b031681565b60005460405163445e9d3960e11b81526101009091046001600160a01b03169063df945c6e9082906388bd3a72906105d4903090600401610770565b60206040518083038186803b1580156105ec57600080fd5b505afa158015610600573d6000803e3d6000fd5b505050506040513d601f19601f82011682018060405250810190610624919061071e565b6040518263ffffffff1660e01b815260040161064091906109a4565b600060405180830381600087803b15801561065a57600080fd5b505af115801561066e573d6000803e3d6000fd5b50505050565b600280546001600160a01b0319166001600160a01b0383811691909117909155600080546040805163d605787b60e01b815290516101009092049093169263d605787b92600480830193919282900301818387803b1580156106d557600080fd5b505af11580156106e9573d6000803e3d6000fd5b5050505050565b600060208284031215610701578081fd5b81356001600160a01b0381168114610717578182fd5b9392505050565b60006020828403121561072f578081fd5b5051919050565b600060208284031215610747578081fd5b813561ffff81168114610717578182fd5b600060208284031215610769578081fd5b5035919050565b6001600160a01b0391909116815260200190565b6001600160a01b03949094168452602084019290925260408301521515606082015260800190565b901515815260200190565b6020808252601c908201527f4d75737420626520746865206f726967696e616c207761676572657200000000604082015260600190565b6020808252601d908201527f57616765722068617320616c7265616479206265656e20706c61636564000000604082015260600190565b60208082526038908201527f4475726174696f6e206f6620776167657220617661696c6162696c697479206960408201527f7320746f6f2073686f727420283c35206d696e75746573290000000000000000606082015260800190565b60208082526011908201527015d859d95c881a185cc8195e1c1a5c9959607a1b604082015260600190565b60208082526021908201527f57616765722068617320616c7265616479206265656e206368616c6c656e67656040820152601960fa1b606082015260800190565b6020808252602a908201527f4f6e6c792074686520466163746f72792063616e20736574207468652072616e604082015269646f6d4e756d6265722160b01b606082015260800190565b6020808252601e908201527f596f75206d757374207761676572207468652073616d6520616d6f756e740000604082015260600190565b6020808252818101527f4d757374207761676572206174206c6561737420302e30303031206574686572604082015260600190565b90815260200190565b600082198211156109c0576109c0610a1b565b500190565b6000826109e057634e487b7160e01b81526012600452602481fd5b500490565b60008160001904831182151516156109ff576109ff610a1b565b500290565b600082821015610a1657610a16610a1b565b500390565b634e487b7160e01b600052601160045260246000fdfea26469706673582212207777e828dea779cbb60d55972a26fec1a60d647c7744e73d06543d9ed6b1b9b564736f6c63430008000033a26469706673582212203e511ae9573830fdee4133fa582cc02d0fdad19d68c9ff6d52cacb582510c44564736f6c6343000800003360c0604052600580546001600160a01b031990811673dd3782915140c8f3b190b5d67eac6dc5760c46e9179091556006805490911673a36085f69e2889c224210f603d836748e7dc008817905534801561005857600080fd5b506040516108e63803806108e6833981016040819052610077916100ec565b600554600654606091821b6001600160601b031990811660a052911b16608052600180546001600160a01b0319166001600160a01b03929092169190911790557f6c3699283bda56ad74f6b855546325b68d482e983852a7a82979cc4807b641f460025567016345785d8a000060035561011a565b6000602082840312156100fd578081fd5b81516001600160a01b0381168114610113578182fd5b9392505050565b60805160601c60a05160601c61078d61015960003960008181610174015261037b01526000818160df015281816101cf015261034c015261078d6000f3fe608060405234801561001057600080fd5b50600436106100575760003560e01c806342619f661461005c5780634915c2401461007a57806394985ddd14610082578063b37217a414610097578063c45a0155146100aa575b600080fd5b6100646100bf565b60405161007191906105fe565b60405180910390f35b6100646100c5565b610095610090366004610521565b610169565b005b6100646100a5366004610542565b6101c8565b6100b26102c6565b6040516100719190610580565b60045481565b6040516370a0823160e01b81526000906001600160a01b037f000000000000000000000000000000000000000000000000000000000000000016906370a0823190610114903090600401610580565b60206040518083038186803b15801561012c57600080fd5b505afa158015610140573d6000803e3d6000fd5b505050506040513d601f19601f82011682018060405250810190610164919061055a565b905090565b336001600160a01b037f000000000000000000000000000000000000000000000000000000000000000016146101ba5760405162461bcd60e51b81526004016101b1906106c8565b60405180910390fd5b6101c482826102d5565b5050565b60006003547f00000000000000000000000000000000000000000000000000000000000000006001600160a01b03166370a08231306040518263ffffffff1660e01b81526004016102199190610580565b60206040518083038186803b15801561023157600080fd5b505afa158015610245573d6000803e3d6000fd5b505050506040513d601f19601f82011682018060405250810190610269919061055a565b10156102875760405162461bcd60e51b81526004016101b19061067d565b6001546001600160a01b031633146102b15760405162461bcd60e51b81526004016101b19061062b565b6102c060025460035484610348565b92915050565b6001546001600160a01b031681565b6102e0600282610737565b6004818155600154604051623a082f60e31b81526001600160a01b03909116926301d0417892610312928791016106ff565b600060405180830381600087803b15801561032c57600080fd5b505af1158015610340573d6000803e3d6000fd5b505050505050565b60007f00000000000000000000000000000000000000000000000000000000000000006001600160a01b0316634000aea07f00000000000000000000000000000000000000000000000000000000000000008587866040516020016103ae929190610572565b6040516020818303038152906040526040518463ffffffff1660e01b81526004016103db93929190610594565b602060405180830381600087803b1580156103f557600080fd5b505af1158015610409573d6000803e3d6000fd5b505050506040513d601f19601f8201168201806040525081019061042d91906104fa565b50600061044e8584306000808a81526020019081526020016000205461048d565b60008681526020819052604090205490915061046b906001610713565b60008681526020819052604090205561048485826104c7565b95945050505050565b6000848484846040516020016104a69493929190610607565b60408051601f19818403018152919052805160209091012095945050505050565b600082826040516020016104dc929190610572565b60405160208183030381529060405280519060200120905092915050565b60006020828403121561050b578081fd5b8151801515811461051a578182fd5b9392505050565b60008060408385031215610533578081fd5b50508035926020909101359150565b600060208284031215610553578081fd5b5035919050565b60006020828403121561056b578081fd5b5051919050565b918252602082015260400190565b6001600160a01b0391909116815260200190565b600060018060a01b038516825260208481840152606060408401528351806060850152825b818110156105d5578581018301518582016080015282016105b9565b818111156105e65783608083870101525b50601f01601f19169290920160800195945050505050565b90815260200190565b93845260208401929092526001600160a01b03166040830152606082015260800190565b60208082526032908201527f4f6e6c792074686520576167657220466163746f72792063616e2072657472696040820152716576652072616e646f6d206e756d6265727360701b606082015260800190565b6020808252602b908201527f4e6f7420656e6f756768204c494e4b202d2066696c6c20636f6e74726163742060408201526a1dda5d1a0819985d58d95d60aa1b606082015260800190565b6020808252601f908201527f4f6e6c7920565246436f6f7264696e61746f722063616e2066756c66696c6c00604082015260600190565b61ffff929092168252602082015260400190565b6000821982111561073257634e487b7160e01b81526011600452602481fd5b500190565b60008261075257634e487b7160e01b81526012600452602481fd5b50069056fea264697066735822122074cd08edaa57d9e1c2bff470c7233d05183635b1e73f47744be003477f1be4ad64736f6c63430008000033",
    "sourcePath": "/Users/jaredborders/Documents/Work/Blockchain/2X/contracts/WagerFactory.sol",
    "compiler": {
        "name": "solc",
        "version": "0.8.0+commit.c7dfd78e"
    },
    "functionHashes": {
        "createWagerContract()": "abe4b0e4",
        "findIndexOfAddress(address)": "88bd3a72",
        "getWagers()": "92b7cdb5",
        "randomNumberConsumerAddress()": "4a49c8ef",
        "removeAddress(uint256)": "df945c6e",
        "rng()": "d605787b",
        "setRandomNumber(uint16,bytes32)": "01d04178",
        "wagerAddresses(uint256)": "05c38e33"
    },
    "gasEstimates": {
        "creation": {
            "codeDepositCost": "1053000",
            "executionCost": "infinite",
            "totalCost": "infinite"
        },
        "external": {
            "createWagerContract()": "infinite",
            "findIndexOfAddress(address)": "infinite",
            "getWagers()": "infinite",
            "randomNumberConsumerAddress()": "1115",
            "removeAddress(uint256)": "infinite",
            "rng()": "infinite",
            "setRandomNumber(uint16,bytes32)": "infinite",
            "wagerAddresses(uint256)": "2061"
        }
    }
}