{
  "contractName": "EIP712External",
  "abi": [
    {
      "inputs": [
        {
          "internalType": "string",
          "name": "name",
          "type": "string"
        },
        {
          "internalType": "string",
          "name": "version",
          "type": "string"
        }
      ],
      "stateMutability": "nonpayable",
      "type": "constructor"
    },
    {
      "inputs": [],
      "name": "domainSeparator",
      "outputs": [
        {
          "internalType": "bytes32",
          "name": "",
          "type": "bytes32"
        }
      ],
      "stateMutability": "view",
      "type": "function"
    },
    {
      "inputs": [
        {
          "internalType": "bytes",
          "name": "signature",
          "type": "bytes"
        },
        {
          "internalType": "address",
          "name": "signer",
          "type": "address"
        },
        {
          "internalType": "address",
          "name": "mailTo",
          "type": "address"
        },
        {
          "internalType": "string",
          "name": "mailContents",
          "type": "string"
        }
      ],
      "name": "verify",
      "outputs": [],
      "stateMutability": "view",
      "type": "function"
    },
    {
      "inputs": [],
      "name": "getChainId",
      "outputs": [
        {
          "internalType": "uint256",
          "name": "",
          "type": "uint256"
        }
      ],
      "stateMutability": "view",
      "type": "function"
    }
  ],
  "bytecode": "0x6101206040523480156200001257600080fd5b5060405162000f7138038062000f7183398181016040528101906200003891906200016d565b818160008280519060200120905060008280519060200120905060007f8b73c3c69bb8fe3d512ecc4cf759cc79239f7b179b0ffacaa9a75d522b39400f90508260c081815250508160e081815250504660a08181525050620000a2818484620000bf60201b60201c565b608081815250508061010081815250505050505050505062000384565b60008383834630604051602001620000dc95949392919062000213565b6040516020818303038152906040528051906020012090509392505050565b6000620001126200010c84620002a4565b62000270565b9050828152602081018484840111156200012b57600080fd5b620001388482856200031f565b509392505050565b600082601f8301126200015257600080fd5b815162000164848260208601620000fb565b91505092915050565b600080604083850312156200018157600080fd5b600083015167ffffffffffffffff8111156200019c57600080fd5b620001aa8582860162000140565b925050602083015167ffffffffffffffff811115620001c857600080fd5b620001d68582860162000140565b9150509250929050565b620001eb81620002d7565b82525050565b620001fc81620002eb565b82525050565b6200020d8162000315565b82525050565b600060a0820190506200022a6000830188620001f1565b620002396020830187620001f1565b620002486040830186620001f1565b62000257606083018562000202565b620002666080830184620001e0565b9695505050505050565b6000604051905081810181811067ffffffffffffffff821117156200029a576200029962000355565b5b8060405250919050565b600067ffffffffffffffff821115620002c257620002c162000355565b5b601f19601f8301169050602081019050919050565b6000620002e482620002f5565b9050919050565b6000819050919050565b600073ffffffffffffffffffffffffffffffffffffffff82169050919050565b6000819050919050565b60005b838110156200033f57808201518184015260208101905062000322565b838111156200034f576000848401525b50505050565b7f4e487b7100000000000000000000000000000000000000000000000000000000600052604160045260246000fd5b60805160a05160c05160e05161010051610ba8620003c9600039600061029c015260006102de015260006102bd01526000610249015260006102710152610ba86000f3fe608060405234801561001057600080fd5b50600436106100415760003560e01c806308c6e079146100465780633408e47014610062578063f698da2514610080575b600080fd5b610060600480360381019061005b91906105e5565b61009e565b005b61006a61014a565b60405161007791906109f8565b60405180910390f35b610088610152565b604051610095919061088e565b60405180910390f35b60006100fa7f847fc9da8ec3c72cae85ca691245eaeb0a4a1e74f77c3a919c43afda231d39ba8484805190602001206040516020016100df939291906108a9565b60405160208183030381529060405280519060200120610161565b90506000610108828761017b565b90508473ffffffffffffffffffffffffffffffffffffffff168173ffffffffffffffffffffffffffffffffffffffff161461014257600080fd5b505050505050565b600046905090565b600061015c610245565b905090565b600061017461016e610245565b83610308565b9050919050565b6000806000806041855114156101a8576020850151925060408501519150606085015160001a905061022e565b6040855114156101f2576040850151602086015193507f7fffffffffffffffffffffffffffffffffffffffffffffffffffffffffffffff81169250601b8160ff1c0191505061022d565b6040517f08c379a000000000000000000000000000000000000000000000000000000000815260040161022490610998565b60405180910390fd5b5b61023a8682858561033b565b935050505092915050565b60007f0000000000000000000000000000000000000000000000000000000000000000461415610297577f00000000000000000000000000000000000000000000000000000000000000009050610305565b6103027f00000000000000000000000000000000000000000000000000000000000000007f00000000000000000000000000000000000000000000000000000000000000007f00000000000000000000000000000000000000000000000000000000000000006104c6565b90505b90565b6000828260405160200161031d929190610857565b60405160208183030381529060405280519060200120905092915050565b60007f7fffffffffffffffffffffffffffffff5d576e7357a4501ddfe92f46681b20a08260001c11156103a3576040517f08c379a000000000000000000000000000000000000000000000000000000000815260040161039a906109b8565b60405180910390fd5b601b8460ff1614806103b85750601c8460ff16145b6103f7576040517f08c379a00000000000000000000000000000000000000000000000000000000081526004016103ee906109d8565b60405180910390fd5b60006001868686866040516000815260200160405260405161041c9493929190610933565b6020604051602081039080840390855afa15801561043e573d6000803e3d6000fd5b505050602060405103519050600073ffffffffffffffffffffffffffffffffffffffff168173ffffffffffffffffffffffffffffffffffffffff1614156104ba576040517f08c379a00000000000000000000000000000000000000000000000000000000081526004016104b190610978565b60405180910390fd5b80915050949350505050565b600083838346306040516020016104e19594939291906108e0565b6040516020818303038152906040528051906020012090509392505050565b600061051361050e84610a44565b610a13565b90508281526020810184848401111561052b57600080fd5b610536848285610b13565b509392505050565b600061055161054c84610a74565b610a13565b90508281526020810184848401111561056957600080fd5b610574848285610b13565b509392505050565b60008135905061058b81610b5b565b92915050565b600082601f8301126105a257600080fd5b81356105b2848260208601610500565b91505092915050565b600082601f8301126105cc57600080fd5b81356105dc84826020860161053e565b91505092915050565b600080600080608085870312156105fb57600080fd5b600085013567ffffffffffffffff81111561061557600080fd5b61062187828801610591565b94505060206106328782880161057c565b93505060406106438782880161057c565b925050606085013567ffffffffffffffff81111561066057600080fd5b61066c878288016105bb565b91505092959194509250565b61068181610ac0565b82525050565b61069081610ad2565b82525050565b6106a76106a282610ad2565b610b22565b82525050565b60006106ba601883610aa4565b91507f45434453413a20696e76616c6964207369676e617475726500000000000000006000830152602082019050919050565b60006106fa601f83610aa4565b91507f45434453413a20696e76616c6964207369676e6174757265206c656e677468006000830152602082019050919050565b600061073a600283610ab5565b91507f19010000000000000000000000000000000000000000000000000000000000006000830152600282019050919050565b600061077a602283610aa4565b91507f45434453413a20696e76616c6964207369676e6174757265202773272076616c60008301527f75650000000000000000000000000000000000000000000000000000000000006020830152604082019050919050565b60006107e0602283610aa4565b91507f45434453413a20696e76616c6964207369676e6174757265202776272076616c60008301527f75650000000000000000000000000000000000000000000000000000000000006020830152604082019050919050565b61084281610afc565b82525050565b61085181610b06565b82525050565b60006108628261072d565b915061086e8285610696565b60208201915061087e8284610696565b6020820191508190509392505050565b60006020820190506108a36000830184610687565b92915050565b60006060820190506108be6000830186610687565b6108cb6020830185610678565b6108d86040830184610687565b949350505050565b600060a0820190506108f56000830188610687565b6109026020830187610687565b61090f6040830186610687565b61091c6060830185610839565b6109296080830184610678565b9695505050505050565b60006080820190506109486000830187610687565b6109556020830186610848565b6109626040830185610687565b61096f6060830184610687565b95945050505050565b60006020820190508181036000830152610991816106ad565b9050919050565b600060208201905081810360008301526109b1816106ed565b9050919050565b600060208201905081810360008301526109d18161076d565b9050919050565b600060208201905081810360008301526109f1816107d3565b9050919050565b6000602082019050610a0d6000830184610839565b92915050565b6000604051905081810181811067ffffffffffffffff82111715610a3a57610a39610b2c565b5b8060405250919050565b600067ffffffffffffffff821115610a5f57610a5e610b2c565b5b601f19601f8301169050602081019050919050565b600067ffffffffffffffff821115610a8f57610a8e610b2c565b5b601f19601f8301169050602081019050919050565b600082825260208201905092915050565b600081905092915050565b6000610acb82610adc565b9050919050565b6000819050919050565b600073ffffffffffffffffffffffffffffffffffffffff82169050919050565b6000819050919050565b600060ff82169050919050565b82818337600083830152505050565b6000819050919050565b7f4e487b7100000000000000000000000000000000000000000000000000000000600052604160045260246000fd5b610b6481610ac0565b8114610b6f57600080fd5b5056fea2646970667358221220bfd0ed6e0efbb688a35407567180e6fe4b9b055bcdcc271aa6384a928da6c6b964736f6c63430008000033",
  "immutableReferences": {
    "16866": [
      {
        "length": 32,
        "start": 625
      }
    ],
    "16868": [
      {
        "length": 32,
        "start": 585
      }
    ],
    "16870": [
      {
        "length": 32,
        "start": 701
      }
    ],
    "16872": [
      {
        "length": 32,
        "start": 734
      }
    ],
    "16874": [
      {
        "length": 32,
        "start": 668
      }
    ]
  },
  "source": "// SPDX-License-Identifier: MIT\n\npragma solidity ^0.8.0;\n\nimport \"../utils/cryptography/draft-EIP712.sol\";\nimport \"../utils/cryptography/ECDSA.sol\";\n\ncontract EIP712External is EIP712 {\n    constructor(string memory name, string memory version) EIP712(name, version) {}\n\n    function domainSeparator() external view returns (bytes32) {\n        return _domainSeparatorV4();\n    }\n\n    function verify(bytes memory signature, address signer, address mailTo, string memory mailContents) external view {\n        bytes32 digest = _hashTypedDataV4(keccak256(abi.encode(\n            keccak256(\"Mail(address to,string contents)\"),\n            mailTo,\n            keccak256(bytes(mailContents))\n        )));\n        address recoveredSigner = ECDSA.recover(digest, signature);\n        require(recoveredSigner == signer);\n    }\n\n    function getChainId() external view returns (uint256) {\n        return block.chainid;\n    }\n}\n",
  "sourcePath": "/Users/jaredborders/Documents/Work/Blockchain/Truffle-2X/contracts/openzeppelin-solidity/contracts/mocks/EIP712External.sol",
  "compiler": {
    "name": "solc",
    "version": "0.8.0+commit.c7dfd78e.Emscripten.clang"
  },
  "schemaVersion": "3.3.4",
  "updatedAt": "2021-04-16T22:50:40.281Z",
  "devdoc": {
    "kind": "dev",
    "methods": {},
    "version": 1
  },
  "userdoc": {
    "kind": "user",
    "methods": {},
    "version": 1
  }
}