{
  "contractName": "ERC1155PausableMock",
  "abi": [
    {
      "inputs": [
        {
          "internalType": "string",
          "name": "uri",
          "type": "string"
        }
      ],
      "stateMutability": "nonpayable",
      "type": "constructor"
    },
    {
      "anonymous": false,
      "inputs": [
        {
          "indexed": true,
          "internalType": "address",
          "name": "account",
          "type": "address"
        },
        {
          "indexed": true,
          "internalType": "address",
          "name": "operator",
          "type": "address"
        },
        {
          "indexed": false,
          "internalType": "bool",
          "name": "approved",
          "type": "bool"
        }
      ],
      "name": "ApprovalForAll",
      "type": "event"
    },
    {
      "anonymous": false,
      "inputs": [
        {
          "indexed": false,
          "internalType": "address",
          "name": "account",
          "type": "address"
        }
      ],
      "name": "Paused",
      "type": "event"
    },
    {
      "anonymous": false,
      "inputs": [
        {
          "indexed": true,
          "internalType": "address",
          "name": "operator",
          "type": "address"
        },
        {
          "indexed": true,
          "internalType": "address",
          "name": "from",
          "type": "address"
        },
        {
          "indexed": true,
          "internalType": "address",
          "name": "to",
          "type": "address"
        },
        {
          "indexed": false,
          "internalType": "uint256[]",
          "name": "ids",
          "type": "uint256[]"
        },
        {
          "indexed": false,
          "internalType": "uint256[]",
          "name": "values",
          "type": "uint256[]"
        }
      ],
      "name": "TransferBatch",
      "type": "event"
    },
    {
      "anonymous": false,
      "inputs": [
        {
          "indexed": true,
          "internalType": "address",
          "name": "operator",
          "type": "address"
        },
        {
          "indexed": true,
          "internalType": "address",
          "name": "from",
          "type": "address"
        },
        {
          "indexed": true,
          "internalType": "address",
          "name": "to",
          "type": "address"
        },
        {
          "indexed": false,
          "internalType": "uint256",
          "name": "id",
          "type": "uint256"
        },
        {
          "indexed": false,
          "internalType": "uint256",
          "name": "value",
          "type": "uint256"
        }
      ],
      "name": "TransferSingle",
      "type": "event"
    },
    {
      "anonymous": false,
      "inputs": [
        {
          "indexed": false,
          "internalType": "string",
          "name": "value",
          "type": "string"
        },
        {
          "indexed": true,
          "internalType": "uint256",
          "name": "id",
          "type": "uint256"
        }
      ],
      "name": "URI",
      "type": "event"
    },
    {
      "anonymous": false,
      "inputs": [
        {
          "indexed": false,
          "internalType": "address",
          "name": "account",
          "type": "address"
        }
      ],
      "name": "Unpaused",
      "type": "event"
    },
    {
      "inputs": [
        {
          "internalType": "address",
          "name": "account",
          "type": "address"
        },
        {
          "internalType": "uint256",
          "name": "id",
          "type": "uint256"
        }
      ],
      "name": "balanceOf",
      "outputs": [
        {
          "internalType": "uint256",
          "name": "",
          "type": "uint256"
        }
      ],
      "stateMutability": "view",
      "type": "function"
    },
    {
      "inputs": [
        {
          "internalType": "address[]",
          "name": "accounts",
          "type": "address[]"
        },
        {
          "internalType": "uint256[]",
          "name": "ids",
          "type": "uint256[]"
        }
      ],
      "name": "balanceOfBatch",
      "outputs": [
        {
          "internalType": "uint256[]",
          "name": "",
          "type": "uint256[]"
        }
      ],
      "stateMutability": "view",
      "type": "function"
    },
    {
      "inputs": [
        {
          "internalType": "address",
          "name": "owner",
          "type": "address"
        },
        {
          "internalType": "uint256",
          "name": "id",
          "type": "uint256"
        },
        {
          "internalType": "uint256",
          "name": "value",
          "type": "uint256"
        }
      ],
      "name": "burn",
      "outputs": [],
      "stateMutability": "nonpayable",
      "type": "function"
    },
    {
      "inputs": [
        {
          "internalType": "address",
          "name": "owner",
          "type": "address"
        },
        {
          "internalType": "uint256[]",
          "name": "ids",
          "type": "uint256[]"
        },
        {
          "internalType": "uint256[]",
          "name": "values",
          "type": "uint256[]"
        }
      ],
      "name": "burnBatch",
      "outputs": [],
      "stateMutability": "nonpayable",
      "type": "function"
    },
    {
      "inputs": [
        {
          "internalType": "address",
          "name": "account",
          "type": "address"
        },
        {
          "internalType": "address",
          "name": "operator",
          "type": "address"
        }
      ],
      "name": "isApprovedForAll",
      "outputs": [
        {
          "internalType": "bool",
          "name": "",
          "type": "bool"
        }
      ],
      "stateMutability": "view",
      "type": "function"
    },
    {
      "inputs": [
        {
          "internalType": "address",
          "name": "to",
          "type": "address"
        },
        {
          "internalType": "uint256",
          "name": "id",
          "type": "uint256"
        },
        {
          "internalType": "uint256",
          "name": "value",
          "type": "uint256"
        },
        {
          "internalType": "bytes",
          "name": "data",
          "type": "bytes"
        }
      ],
      "name": "mint",
      "outputs": [],
      "stateMutability": "nonpayable",
      "type": "function"
    },
    {
      "inputs": [
        {
          "internalType": "address",
          "name": "to",
          "type": "address"
        },
        {
          "internalType": "uint256[]",
          "name": "ids",
          "type": "uint256[]"
        },
        {
          "internalType": "uint256[]",
          "name": "values",
          "type": "uint256[]"
        },
        {
          "internalType": "bytes",
          "name": "data",
          "type": "bytes"
        }
      ],
      "name": "mintBatch",
      "outputs": [],
      "stateMutability": "nonpayable",
      "type": "function"
    },
    {
      "inputs": [],
      "name": "paused",
      "outputs": [
        {
          "internalType": "bool",
          "name": "",
          "type": "bool"
        }
      ],
      "stateMutability": "view",
      "type": "function"
    },
    {
      "inputs": [
        {
          "internalType": "address",
          "name": "from",
          "type": "address"
        },
        {
          "internalType": "address",
          "name": "to",
          "type": "address"
        },
        {
          "internalType": "uint256[]",
          "name": "ids",
          "type": "uint256[]"
        },
        {
          "internalType": "uint256[]",
          "name": "amounts",
          "type": "uint256[]"
        },
        {
          "internalType": "bytes",
          "name": "data",
          "type": "bytes"
        }
      ],
      "name": "safeBatchTransferFrom",
      "outputs": [],
      "stateMutability": "nonpayable",
      "type": "function"
    },
    {
      "inputs": [
        {
          "internalType": "address",
          "name": "from",
          "type": "address"
        },
        {
          "internalType": "address",
          "name": "to",
          "type": "address"
        },
        {
          "internalType": "uint256",
          "name": "id",
          "type": "uint256"
        },
        {
          "internalType": "uint256",
          "name": "amount",
          "type": "uint256"
        },
        {
          "internalType": "bytes",
          "name": "data",
          "type": "bytes"
        }
      ],
      "name": "safeTransferFrom",
      "outputs": [],
      "stateMutability": "nonpayable",
      "type": "function"
    },
    {
      "inputs": [
        {
          "internalType": "address",
          "name": "operator",
          "type": "address"
        },
        {
          "internalType": "bool",
          "name": "approved",
          "type": "bool"
        }
      ],
      "name": "setApprovalForAll",
      "outputs": [],
      "stateMutability": "nonpayable",
      "type": "function"
    },
    {
      "inputs": [
        {
          "internalType": "string",
          "name": "newuri",
          "type": "string"
        }
      ],
      "name": "setURI",
      "outputs": [],
      "stateMutability": "nonpayable",
      "type": "function"
    },
    {
      "inputs": [
        {
          "internalType": "bytes4",
          "name": "interfaceId",
          "type": "bytes4"
        }
      ],
      "name": "supportsInterface",
      "outputs": [
        {
          "internalType": "bool",
          "name": "",
          "type": "bool"
        }
      ],
      "stateMutability": "view",
      "type": "function"
    },
    {
      "inputs": [
        {
          "internalType": "uint256",
          "name": "",
          "type": "uint256"
        }
      ],
      "name": "uri",
      "outputs": [
        {
          "internalType": "string",
          "name": "",
          "type": "string"
        }
      ],
      "stateMutability": "view",
      "type": "function"
    },
    {
      "inputs": [],
      "name": "pause",
      "outputs": [],
      "stateMutability": "nonpayable",
      "type": "function"
    },
    {
      "inputs": [],
      "name": "unpause",
      "outputs": [],
      "stateMutability": "nonpayable",
      "type": "function"
    }
  ],
  "bytecode": "0x60806040523480156200001157600080fd5b5060405162003bd538038062003bd58339818101604052810190620000379190620001ac565b80806200004a816200006e60201b60201c565b50506000600360006101000a81548160ff0219169083151502179055505062000322565b8060029080519060200190620000869291906200008a565b5050565b82805462000098906200028e565b90600052602060002090601f016020900481019282620000bc576000855562000108565b82601f10620000d757805160ff191683800117855562000108565b8280016001018555821562000108579182015b8281111562000107578251825591602001919060010190620000ea565b5b5090506200011791906200011b565b5090565b5b80821115620001365760008160009055506001016200011c565b5090565b6000620001516200014b8462000225565b620001f1565b9050828152602081018484840111156200016a57600080fd5b6200017784828562000258565b509392505050565b600082601f8301126200019157600080fd5b8151620001a38482602086016200013a565b91505092915050565b600060208284031215620001bf57600080fd5b600082015167ffffffffffffffff811115620001da57600080fd5b620001e8848285016200017f565b91505092915050565b6000604051905081810181811067ffffffffffffffff821117156200021b576200021a620002f3565b5b8060405250919050565b600067ffffffffffffffff821115620002435762000242620002f3565b5b601f19601f8301169050602081019050919050565b60005b83811015620002785780820151818401526020810190506200025b565b8381111562000288576000848401525b50505050565b60006002820490506001821680620002a757607f821691505b60208210811415620002be57620002bd620002c4565b5b50919050565b7f4e487b7100000000000000000000000000000000000000000000000000000000600052602260045260246000fd5b7f4e487b7100000000000000000000000000000000000000000000000000000000600052604160045260246000fd5b6138a380620003326000396000f3fe608060405234801561001057600080fd5b50600436106100ff5760003560e01c80635c975abb11610097578063a22cb46511610066578063a22cb46514610282578063e985e9c51461029e578063f242432a146102ce578063f5298aca146102ea576100ff565b80635c975abb146102225780636b20c45414610240578063731133e91461025c5780638456cb5914610278576100ff565b80631f7fdffa116100d35780631f7fdffa146101b05780632eb2c2d6146101cc5780633f4ba83a146101e85780634e1273f4146101f2576100ff565b8062fdd58e1461010457806301ffc9a71461013457806302fe5305146101645780630e89341c14610180575b600080fd5b61011e6004803603810190610119919061267e565b610306565b60405161012b9190613357565b60405180910390f35b61014e600480360381019061014991906127f0565b6103cf565b60405161015b919061311a565b60405180910390f35b61017e60048036038101906101799190612842565b6104b1565b005b61019a60048036038101906101959190612883565b6104bd565b6040516101a79190613135565b60405180910390f35b6101ca60048036038101906101c59190612597565b610551565b005b6101e660048036038101906101e191906123ca565b610563565b005b6101f0610959565b005b61020c60048036038101906102079190612784565b610963565b60405161021991906130c1565b60405180910390f35b61022a610b14565b604051610237919061311a565b60405180910390f35b61025a60048036038101906102559190612518565b610b2b565b005b61027660048036038101906102719190612709565b610b3b565b005b610280610b4d565b005b61029c60048036038101906102979190612642565b610b57565b005b6102b860048036038101906102b3919061238e565b610cd8565b6040516102c5919061311a565b60405180910390f35b6102e860048036038101906102e39190612489565b610d6c565b005b61030460048036038101906102ff91906126ba565b611084565b005b60008073ffffffffffffffffffffffffffffffffffffffff168373ffffffffffffffffffffffffffffffffffffffff161415610377576040517f08c379a000000000000000000000000000000000000000000000000000000000815260040161036e906131b7565b60405180910390fd5b60008083815260200190815260200160002060008473ffffffffffffffffffffffffffffffffffffffff1673ffffffffffffffffffffffffffffffffffffffff16815260200190815260200160002054905092915050565b60007fd9b67a26000000000000000000000000000000000000000000000000000000007bffffffffffffffffffffffffffffffffffffffffffffffffffffffff1916827bffffffffffffffffffffffffffffffffffffffffffffffffffffffff1916148061049a57507f0e89341c000000000000000000000000000000000000000000000000000000007bffffffffffffffffffffffffffffffffffffffffffffffffffffffff1916827bffffffffffffffffffffffffffffffffffffffffffffffffffffffff1916145b806104aa57506104a982611094565b5b9050919050565b6104ba816110fe565b50565b6060600280546104cc90613635565b80601f01602080910402602001604051908101604052809291908181526020018280546104f890613635565b80156105455780601f1061051a57610100808354040283529160200191610545565b820191906000526020600020905b81548152906001019060200180831161052857829003601f168201915b50505050509050919050565b61055d84848484611118565b50505050565b81518351146105a7576040517f08c379a000000000000000000000000000000000000000000000000000000000815260040161059e90613317565b60405180910390fd5b600073ffffffffffffffffffffffffffffffffffffffff168473ffffffffffffffffffffffffffffffffffffffff161415610617576040517f08c379a000000000000000000000000000000000000000000000000000000000815260040161060e90613257565b60405180910390fd5b61061f611382565b73ffffffffffffffffffffffffffffffffffffffff168573ffffffffffffffffffffffffffffffffffffffff16148061066557506106648561065f611382565b610cd8565b5b6106a4576040517f08c379a000000000000000000000000000000000000000000000000000000000815260040161069b90613277565b60405180910390fd5b60006106ae611382565b90506106be81878787878761138a565b60005b84518110156108c4576000858281518110610705577f4e487b7100000000000000000000000000000000000000000000000000000000600052603260045260246000fd5b60200260200101519050600085838151811061074a577f4e487b7100000000000000000000000000000000000000000000000000000000600052603260045260246000fd5b60200260200101519050600080600084815260200190815260200160002060008b73ffffffffffffffffffffffffffffffffffffffff1673ffffffffffffffffffffffffffffffffffffffff168152602001908152602001600020549050818110156107eb576040517f08c379a00000000000000000000000000000000000000000000000000000000081526004016107e2906132b7565b60405180910390fd5b81816107f7919061354b565b60008085815260200190815260200160002060008c73ffffffffffffffffffffffffffffffffffffffff1673ffffffffffffffffffffffffffffffffffffffff168152602001908152602001600020819055508160008085815260200190815260200160002060008b73ffffffffffffffffffffffffffffffffffffffff1673ffffffffffffffffffffffffffffffffffffffff16815260200190815260200160002060008282546108a991906134f5565b92505081905550505050806108bd90613667565b90506106c1565b508473ffffffffffffffffffffffffffffffffffffffff168673ffffffffffffffffffffffffffffffffffffffff168273ffffffffffffffffffffffffffffffffffffffff167f4a39dc06d4c0dbc64b70af90fd698a233a518aa5d07e595d983b8c0526c8f7fb878760405161093b9291906130e3565b60405180910390a46109518187878787876113a0565b505050505050565b610961611570565b565b606081518351146109a9576040517f08c379a00000000000000000000000000000000000000000000000000000000081526004016109a0906132f7565b60405180910390fd5b6000835167ffffffffffffffff8111156109ec577f4e487b7100000000000000000000000000000000000000000000000000000000600052604160045260246000fd5b604051908082528060200260200182016040528015610a1a5781602001602082028036833780820191505090505b50905060005b8451811015610b0957610ab3858281518110610a65577f4e487b7100000000000000000000000000000000000000000000000000000000600052603260045260246000fd5b6020026020010151858381518110610aa6577f4e487b7100000000000000000000000000000000000000000000000000000000600052603260045260246000fd5b6020026020010151610306565b828281518110610aec577f4e487b7100000000000000000000000000000000000000000000000000000000600052603260045260246000fd5b60200260200101818152505080610b0290613667565b9050610a20565b508091505092915050565b6000600360009054906101000a900460ff16905090565b610b36838383611612565b505050565b610b4784848484611918565b50505050565b610b55611aae565b565b8173ffffffffffffffffffffffffffffffffffffffff16610b76611382565b73ffffffffffffffffffffffffffffffffffffffff161415610bcd576040517f08c379a0000000000000000000000000000000000000000000000000000000008152600401610bc4906132d7565b60405180910390fd5b8060016000610bda611382565b73ffffffffffffffffffffffffffffffffffffffff1673ffffffffffffffffffffffffffffffffffffffff16815260200190815260200160002060008473ffffffffffffffffffffffffffffffffffffffff1673ffffffffffffffffffffffffffffffffffffffff16815260200190815260200160002060006101000a81548160ff0219169083151502179055508173ffffffffffffffffffffffffffffffffffffffff16610c87611382565b73ffffffffffffffffffffffffffffffffffffffff167f17307eab39ab6107e8899845ad3d59bd9653f200f220920489ca2b5937696c3183604051610ccc919061311a565b60405180910390a35050565b6000600160008473ffffffffffffffffffffffffffffffffffffffff1673ffffffffffffffffffffffffffffffffffffffff16815260200190815260200160002060008373ffffffffffffffffffffffffffffffffffffffff1673ffffffffffffffffffffffffffffffffffffffff16815260200190815260200160002060009054906101000a900460ff16905092915050565b600073ffffffffffffffffffffffffffffffffffffffff168473ffffffffffffffffffffffffffffffffffffffff161415610ddc576040517f08c379a0000000000000000000000000000000000000000000000000000000008152600401610dd390613257565b60405180910390fd5b610de4611382565b73ffffffffffffffffffffffffffffffffffffffff168573ffffffffffffffffffffffffffffffffffffffff161480610e2a5750610e2985610e24611382565b610cd8565b5b610e69576040517f08c379a0000000000000000000000000000000000000000000000000000000008152600401610e6090613217565b60405180910390fd5b6000610e73611382565b9050610e93818787610e8488611b51565b610e8d88611b51565b8761138a565b600080600086815260200190815260200160002060008873ffffffffffffffffffffffffffffffffffffffff1673ffffffffffffffffffffffffffffffffffffffff16815260200190815260200160002054905083811015610f2a576040517f08c379a0000000000000000000000000000000000000000000000000000000008152600401610f21906132b7565b60405180910390fd5b8381610f36919061354b565b60008087815260200190815260200160002060008973ffffffffffffffffffffffffffffffffffffffff1673ffffffffffffffffffffffffffffffffffffffff168152602001908152602001600020819055508360008087815260200190815260200160002060008873ffffffffffffffffffffffffffffffffffffffff1673ffffffffffffffffffffffffffffffffffffffff1681526020019081526020016000206000828254610fe891906134f5565b925050819055508573ffffffffffffffffffffffffffffffffffffffff168773ffffffffffffffffffffffffffffffffffffffff168373ffffffffffffffffffffffffffffffffffffffff167fc3d58168c5ae7397731d063d5bbf3d657854427343f4c083240f7aacaa2d0f628888604051611065929190613372565b60405180910390a461107b828888888888611c17565b50505050505050565b61108f838383611de7565b505050565b60007f01ffc9a7000000000000000000000000000000000000000000000000000000007bffffffffffffffffffffffffffffffffffffffffffffffffffffffff1916827bffffffffffffffffffffffffffffffffffffffffffffffffffffffff1916149050919050565b8060029080519060200190611114929190612086565b5050565b600073ffffffffffffffffffffffffffffffffffffffff168473ffffffffffffffffffffffffffffffffffffffff161415611188576040517f08c379a000000000000000000000000000000000000000000000000000000000815260040161117f90613337565b60405180910390fd5b81518351146111cc576040517f08c379a00000000000000000000000000000000000000000000000000000000081526004016111c390613317565b60405180910390fd5b60006111d6611382565b90506111e78160008787878761138a565b60005b84518110156112ec5783818151811061122c577f4e487b7100000000000000000000000000000000000000000000000000000000600052603260045260246000fd5b6020026020010151600080878481518110611270577f4e487b7100000000000000000000000000000000000000000000000000000000600052603260045260246000fd5b6020026020010151815260200190815260200160002060008873ffffffffffffffffffffffffffffffffffffffff1673ffffffffffffffffffffffffffffffffffffffff16815260200190815260200160002060008282546112d291906134f5565b9250508190555080806112e490613667565b9150506111ea565b508473ffffffffffffffffffffffffffffffffffffffff16600073ffffffffffffffffffffffffffffffffffffffff168273ffffffffffffffffffffffffffffffffffffffff167f4a39dc06d4c0dbc64b70af90fd698a233a518aa5d07e595d983b8c0526c8f7fb87876040516113649291906130e3565b60405180910390a461137b816000878787876113a0565b5050505050565b600033905090565b61139886868686868661200d565b505050505050565b6113bf8473ffffffffffffffffffffffffffffffffffffffff1661206b565b15611568578373ffffffffffffffffffffffffffffffffffffffff1663bc197c8187878686866040518663ffffffff1660e01b8152600401611405959493929190612fff565b602060405180830381600087803b15801561141f57600080fd5b505af192505050801561145057506040513d601f19601f8201168201806040525081019061144d9190612819565b60015b6114df5761145c61375b565b8061146757506114a4565b806040517f08c379a000000000000000000000000000000000000000000000000000000000815260040161149b9190613135565b60405180910390fd5b6040517f08c379a00000000000000000000000000000000000000000000000000000000081526004016114d690613157565b60405180910390fd5b63bc197c8160e01b7bffffffffffffffffffffffffffffffffffffffffffffffffffffffff1916817bffffffffffffffffffffffffffffffffffffffffffffffffffffffff191614611566576040517f08c379a000000000000000000000000000000000000000000000000000000000815260040161155d90613177565b60405180910390fd5b505b505050505050565b611578610b14565b6115b7576040517f08c379a00000000000000000000000000000000000000000000000000000000081526004016115ae90613197565b60405180910390fd5b6000600360006101000a81548160ff0219169083151502179055507f5db9ee0a495bf2e6ff9c91a7834c1ba4fdd244a5e8aa4e537bd38aeae4b073aa6115fb611382565b6040516116089190612fe4565b60405180910390a1565b600073ffffffffffffffffffffffffffffffffffffffff168373ffffffffffffffffffffffffffffffffffffffff161415611682576040517f08c379a000000000000000000000000000000000000000000000000000000000815260040161167990613297565b60405180910390fd5b80518251146116c6576040517f08c379a00000000000000000000000000000000000000000000000000000000081526004016116bd90613317565b60405180910390fd5b60006116d0611382565b90506116f08185600086866040518060200160405280600081525061138a565b60005b8351811015611892576000848281518110611737577f4e487b7100000000000000000000000000000000000000000000000000000000600052603260045260246000fd5b60200260200101519050600084838151811061177c577f4e487b7100000000000000000000000000000000000000000000000000000000600052603260045260246000fd5b60200260200101519050600080600084815260200190815260200160002060008973ffffffffffffffffffffffffffffffffffffffff1673ffffffffffffffffffffffffffffffffffffffff1681526020019081526020016000205490508181101561181d576040517f08c379a0000000000000000000000000000000000000000000000000000000008152600401611814906131d7565b60405180910390fd5b8181611829919061354b565b60008085815260200190815260200160002060008a73ffffffffffffffffffffffffffffffffffffffff1673ffffffffffffffffffffffffffffffffffffffff16815260200190815260200160002081905550505050808061188a90613667565b9150506116f3565b50600073ffffffffffffffffffffffffffffffffffffffff168473ffffffffffffffffffffffffffffffffffffffff168273ffffffffffffffffffffffffffffffffffffffff167f4a39dc06d4c0dbc64b70af90fd698a233a518aa5d07e595d983b8c0526c8f7fb868660405161190a9291906130e3565b60405180910390a450505050565b600073ffffffffffffffffffffffffffffffffffffffff168473ffffffffffffffffffffffffffffffffffffffff161415611988576040517f08c379a000000000000000000000000000000000000000000000000000000000815260040161197f90613337565b60405180910390fd5b6000611992611382565b90506119b3816000876119a488611b51565b6119ad88611b51565b8761138a565b8260008086815260200190815260200160002060008773ffffffffffffffffffffffffffffffffffffffff1673ffffffffffffffffffffffffffffffffffffffff1681526020019081526020016000206000828254611a1291906134f5565b925050819055508473ffffffffffffffffffffffffffffffffffffffff16600073ffffffffffffffffffffffffffffffffffffffff168273ffffffffffffffffffffffffffffffffffffffff167fc3d58168c5ae7397731d063d5bbf3d657854427343f4c083240f7aacaa2d0f628787604051611a90929190613372565b60405180910390a4611aa781600087878787611c17565b5050505050565b611ab6610b14565b15611af6576040517f08c379a0000000000000000000000000000000000000000000000000000000008152600401611aed90613237565b60405180910390fd5b6001600360006101000a81548160ff0219169083151502179055507f62e78cea01bee320cd4e420270b5ea74000d11b0c9f74754ebdbfc544b05a258611b3a611382565b604051611b479190612fe4565b60405180910390a1565b60606000600167ffffffffffffffff811115611b96577f4e487b7100000000000000000000000000000000000000000000000000000000600052604160045260246000fd5b604051908082528060200260200182016040528015611bc45781602001602082028036833780820191505090505b5090508281600081518110611c02577f4e487b7100000000000000000000000000000000000000000000000000000000600052603260045260246000fd5b60200260200101818152505080915050919050565b611c368473ffffffffffffffffffffffffffffffffffffffff1661206b565b15611ddf578373ffffffffffffffffffffffffffffffffffffffff1663f23a6e6187878686866040518663ffffffff1660e01b8152600401611c7c959493929190613067565b602060405180830381600087803b158015611c9657600080fd5b505af1925050508015611cc757506040513d601f19601f82011682018060405250810190611cc49190612819565b60015b611d5657611cd361375b565b80611cde5750611d1b565b806040517f08c379a0000000000000000000000000000000000000000000000000000000008152600401611d129190613135565b60405180910390fd5b6040517f08c379a0000000000000000000000000000000000000000000000000000000008152600401611d4d90613157565b60405180910390fd5b63f23a6e6160e01b7bffffffffffffffffffffffffffffffffffffffffffffffffffffffff1916817bffffffffffffffffffffffffffffffffffffffffffffffffffffffff191614611ddd576040517f08c379a0000000000000000000000000000000000000000000000000000000008152600401611dd490613177565b60405180910390fd5b505b505050505050565b600073ffffffffffffffffffffffffffffffffffffffff168373ffffffffffffffffffffffffffffffffffffffff161415611e57576040517f08c379a0000000000000000000000000000000000000000000000000000000008152600401611e4e90613297565b60405180910390fd5b6000611e61611382565b9050611e9181856000611e7387611b51565b611e7c87611b51565b6040518060200160405280600081525061138a565b600080600085815260200190815260200160002060008673ffffffffffffffffffffffffffffffffffffffff1673ffffffffffffffffffffffffffffffffffffffff16815260200190815260200160002054905082811015611f28576040517f08c379a0000000000000000000000000000000000000000000000000000000008152600401611f1f906131d7565b60405180910390fd5b8281611f34919061354b565b60008086815260200190815260200160002060008773ffffffffffffffffffffffffffffffffffffffff1673ffffffffffffffffffffffffffffffffffffffff16815260200190815260200160002081905550600073ffffffffffffffffffffffffffffffffffffffff168573ffffffffffffffffffffffffffffffffffffffff168373ffffffffffffffffffffffffffffffffffffffff167fc3d58168c5ae7397731d063d5bbf3d657854427343f4c083240f7aacaa2d0f628787604051611ffe929190613372565b60405180910390a45050505050565b61201b86868686868661207e565b612023610b14565b15612063576040517f08c379a000000000000000000000000000000000000000000000000000000000815260040161205a906131f7565b60405180910390fd5b505050505050565b600080823b905060008111915050919050565b505050505050565b82805461209290613635565b90600052602060002090601f0160209004810192826120b457600085556120fb565b82601f106120cd57805160ff19168380011785556120fb565b828001600101855582156120fb579182015b828111156120fa5782518255916020019190600101906120df565b5b509050612108919061210c565b5090565b5b8082111561212557600081600090555060010161210d565b5090565b600061213c612137846133cc565b61339b565b9050808382526020820190508285602086028201111561215b57600080fd5b60005b8581101561218b5781612171888261227d565b84526020840193506020830192505060018101905061215e565b5050509392505050565b60006121a86121a3846133f8565b61339b565b905080838252602082019050828560208602820111156121c757600080fd5b60005b858110156121f757816121dd8882612379565b8452602084019350602083019250506001810190506121ca565b5050509392505050565b600061221461220f84613424565b61339b565b90508281526020810184848401111561222c57600080fd5b6122378482856135f3565b509392505050565b600061225261224d84613454565b61339b565b90508281526020810184848401111561226a57600080fd5b6122758482856135f3565b509392505050565b60008135905061228c81613811565b92915050565b600082601f8301126122a357600080fd5b81356122b3848260208601612129565b91505092915050565b600082601f8301126122cd57600080fd5b81356122dd848260208601612195565b91505092915050565b6000813590506122f581613828565b92915050565b60008135905061230a8161383f565b92915050565b60008151905061231f8161383f565b92915050565b600082601f83011261233657600080fd5b8135612346848260208601612201565b91505092915050565b600082601f83011261236057600080fd5b813561237084826020860161223f565b91505092915050565b60008135905061238881613856565b92915050565b600080604083850312156123a157600080fd5b60006123af8582860161227d565b92505060206123c08582860161227d565b9150509250929050565b600080600080600060a086880312156123e257600080fd5b60006123f08882890161227d565b95505060206124018882890161227d565b945050604086013567ffffffffffffffff81111561241e57600080fd5b61242a888289016122bc565b935050606086013567ffffffffffffffff81111561244757600080fd5b612453888289016122bc565b925050608086013567ffffffffffffffff81111561247057600080fd5b61247c88828901612325565b9150509295509295909350565b600080600080600060a086880312156124a157600080fd5b60006124af8882890161227d565b95505060206124c08882890161227d565b94505060406124d188828901612379565b93505060606124e288828901612379565b925050608086013567ffffffffffffffff8111156124ff57600080fd5b61250b88828901612325565b9150509295509295909350565b60008060006060848603121561252d57600080fd5b600061253b8682870161227d565b935050602084013567ffffffffffffffff81111561255857600080fd5b612564868287016122bc565b925050604084013567ffffffffffffffff81111561258157600080fd5b61258d868287016122bc565b9150509250925092565b600080600080608085870312156125ad57600080fd5b60006125bb8782880161227d565b945050602085013567ffffffffffffffff8111156125d857600080fd5b6125e4878288016122bc565b935050604085013567ffffffffffffffff81111561260157600080fd5b61260d878288016122bc565b925050606085013567ffffffffffffffff81111561262a57600080fd5b61263687828801612325565b91505092959194509250565b6000806040838503121561265557600080fd5b60006126638582860161227d565b9250506020612674858286016122e6565b9150509250929050565b6000806040838503121561269157600080fd5b600061269f8582860161227d565b92505060206126b085828601612379565b9150509250929050565b6000806000606084860312156126cf57600080fd5b60006126dd8682870161227d565b93505060206126ee86828701612379565b92505060406126ff86828701612379565b9150509250925092565b6000806000806080858703121561271f57600080fd5b600061272d8782880161227d565b945050602061273e87828801612379565b935050604061274f87828801612379565b925050606085013567ffffffffffffffff81111561276c57600080fd5b61277887828801612325565b91505092959194509250565b6000806040838503121561279757600080fd5b600083013567ffffffffffffffff8111156127b157600080fd5b6127bd85828601612292565b925050602083013567ffffffffffffffff8111156127da57600080fd5b6127e6858286016122bc565b9150509250929050565b60006020828403121561280257600080fd5b6000612810848285016122fb565b91505092915050565b60006020828403121561282b57600080fd5b600061283984828501612310565b91505092915050565b60006020828403121561285457600080fd5b600082013567ffffffffffffffff81111561286e57600080fd5b61287a8482850161234f565b91505092915050565b60006020828403121561289557600080fd5b60006128a384828501612379565b91505092915050565b60006128b88383612fc6565b60208301905092915050565b6128cd8161357f565b82525050565b60006128de82613494565b6128e881856134c2565b93506128f383613484565b8060005b8381101561292457815161290b88826128ac565b9750612916836134b5565b9250506001810190506128f7565b5085935050505092915050565b61293a81613591565b82525050565b600061294b8261349f565b61295581856134d3565b9350612965818560208601613602565b61296e8161373d565b840191505092915050565b6000612984826134aa565b61298e81856134e4565b935061299e818560208601613602565b6129a78161373d565b840191505092915050565b60006129bf6034836134e4565b91507f455243313135353a207472616e7366657220746f206e6f6e204552433131353560008301527f526563656976657220696d706c656d656e7465720000000000000000000000006020830152604082019050919050565b6000612a256028836134e4565b91507f455243313135353a204552433131353552656365697665722072656a6563746560008301527f6420746f6b656e730000000000000000000000000000000000000000000000006020830152604082019050919050565b6000612a8b6014836134e4565b91507f5061757361626c653a206e6f74207061757365640000000000000000000000006000830152602082019050919050565b6000612acb602b836134e4565b91507f455243313135353a2062616c616e636520717565727920666f7220746865207a60008301527f65726f20616464726573730000000000000000000000000000000000000000006020830152604082019050919050565b6000612b316024836134e4565b91507f455243313135353a206275726e20616d6f756e7420657863656564732062616c60008301527f616e6365000000000000000000000000000000000000000000000000000000006020830152604082019050919050565b6000612b97602c836134e4565b91507f455243313135355061757361626c653a20746f6b656e207472616e736665722060008301527f7768696c652070617573656400000000000000000000000000000000000000006020830152604082019050919050565b6000612bfd6029836134e4565b91507f455243313135353a2063616c6c6572206973206e6f74206f776e6572206e6f7260008301527f20617070726f76656400000000000000000000000000000000000000000000006020830152604082019050919050565b6000612c636010836134e4565b91507f5061757361626c653a20706175736564000000000000000000000000000000006000830152602082019050919050565b6000612ca36025836134e4565b91507f455243313135353a207472616e7366657220746f20746865207a65726f20616460008301527f64726573730000000000000000000000000000000000000000000000000000006020830152604082019050919050565b6000612d096032836134e4565b91507f455243313135353a207472616e736665722063616c6c6572206973206e6f742060008301527f6f776e6572206e6f7220617070726f76656400000000000000000000000000006020830152604082019050919050565b6000612d6f6023836134e4565b91507f455243313135353a206275726e2066726f6d20746865207a65726f206164647260008301527f65737300000000000000000000000000000000000000000000000000000000006020830152604082019050919050565b6000612dd5602a836134e4565b91507f455243313135353a20696e73756666696369656e742062616c616e636520666f60008301527f72207472616e73666572000000000000000000000000000000000000000000006020830152604082019050919050565b6000612e3b6029836134e4565b91507f455243313135353a2073657474696e6720617070726f76616c2073746174757360008301527f20666f722073656c6600000000000000000000000000000000000000000000006020830152604082019050919050565b6000612ea16029836134e4565b91507f455243313135353a206163636f756e747320616e6420696473206c656e67746860008301527f206d69736d6174636800000000000000000000000000000000000000000000006020830152604082019050919050565b6000612f076028836134e4565b91507f455243313135353a2069647320616e6420616d6f756e7473206c656e6774682060008301527f6d69736d617463680000000000000000000000000000000000000000000000006020830152604082019050919050565b6000612f6d6021836134e4565b91507f455243313135353a206d696e7420746f20746865207a65726f2061646472657360008301527f73000000000000000000000000000000000000000000000000000000000000006020830152604082019050919050565b612fcf816135e9565b82525050565b612fde816135e9565b82525050565b6000602082019050612ff960008301846128c4565b92915050565b600060a08201905061301460008301886128c4565b61302160208301876128c4565b818103604083015261303381866128d3565b9050818103606083015261304781856128d3565b9050818103608083015261305b8184612940565b90509695505050505050565b600060a08201905061307c60008301886128c4565b61308960208301876128c4565b6130966040830186612fd5565b6130a36060830185612fd5565b81810360808301526130b58184612940565b90509695505050505050565b600060208201905081810360008301526130db81846128d3565b905092915050565b600060408201905081810360008301526130fd81856128d3565b9050818103602083015261311181846128d3565b90509392505050565b600060208201905061312f6000830184612931565b92915050565b6000602082019050818103600083015261314f8184612979565b905092915050565b60006020820190508181036000830152613170816129b2565b9050919050565b6000602082019050818103600083015261319081612a18565b9050919050565b600060208201905081810360008301526131b081612a7e565b9050919050565b600060208201905081810360008301526131d081612abe565b9050919050565b600060208201905081810360008301526131f081612b24565b9050919050565b6000602082019050818103600083015261321081612b8a565b9050919050565b6000602082019050818103600083015261323081612bf0565b9050919050565b6000602082019050818103600083015261325081612c56565b9050919050565b6000602082019050818103600083015261327081612c96565b9050919050565b6000602082019050818103600083015261329081612cfc565b9050919050565b600060208201905081810360008301526132b081612d62565b9050919050565b600060208201905081810360008301526132d081612dc8565b9050919050565b600060208201905081810360008301526132f081612e2e565b9050919050565b6000602082019050818103600083015261331081612e94565b9050919050565b6000602082019050818103600083015261333081612efa565b9050919050565b6000602082019050818103600083015261335081612f60565b9050919050565b600060208201905061336c6000830184612fd5565b92915050565b60006040820190506133876000830185612fd5565b6133946020830184612fd5565b9392505050565b6000604051905081810181811067ffffffffffffffff821117156133c2576133c161370e565b5b8060405250919050565b600067ffffffffffffffff8211156133e7576133e661370e565b5b602082029050602081019050919050565b600067ffffffffffffffff8211156134135761341261370e565b5b602082029050602081019050919050565b600067ffffffffffffffff82111561343f5761343e61370e565b5b601f19601f8301169050602081019050919050565b600067ffffffffffffffff82111561346f5761346e61370e565b5b601f19601f8301169050602081019050919050565b6000819050602082019050919050565b600081519050919050565b600081519050919050565b600081519050919050565b6000602082019050919050565b600082825260208201905092915050565b600082825260208201905092915050565b600082825260208201905092915050565b6000613500826135e9565b915061350b836135e9565b9250827fffffffffffffffffffffffffffffffffffffffffffffffffffffffffffffffff038211156135405761353f6136b0565b5b828201905092915050565b6000613556826135e9565b9150613561836135e9565b925082821015613574576135736136b0565b5b828203905092915050565b600061358a826135c9565b9050919050565b60008115159050919050565b60007fffffffff0000000000000000000000000000000000000000000000000000000082169050919050565b600073ffffffffffffffffffffffffffffffffffffffff82169050919050565b6000819050919050565b82818337600083830152505050565b60005b83811015613620578082015181840152602081019050613605565b8381111561362f576000848401525b50505050565b6000600282049050600182168061364d57607f821691505b60208210811415613661576136606136df565b5b50919050565b6000613672826135e9565b91507fffffffffffffffffffffffffffffffffffffffffffffffffffffffffffffffff8214156136a5576136a46136b0565b5b600182019050919050565b7f4e487b7100000000000000000000000000000000000000000000000000000000600052601160045260246000fd5b7f4e487b7100000000000000000000000000000000000000000000000000000000600052602260045260246000fd5b7f4e487b7100000000000000000000000000000000000000000000000000000000600052604160045260246000fd5b6000601f19601f8301169050919050565b60008160e01c9050919050565b600060443d101561376b5761380e565b60046000803e61377c60005161374e565b6308c379a0811461378d575061380e565b60405160043d036004823e80513d602482011167ffffffffffffffff821117156137b95750505061380e565b808201805167ffffffffffffffff8111156137d857505050505061380e565b8060208301013d85018111156137f35750505050505061380e565b6137fc8261373d565b60208401016040528296505050505050505b90565b61381a8161357f565b811461382557600080fd5b50565b61383181613591565b811461383c57600080fd5b50565b6138488161359d565b811461385357600080fd5b50565b61385f816135e9565b811461386a57600080fd5b5056fea2646970667358221220924cb98eba951e815cb31d744093c5022ec8889d536476094f11a4daa3f101ec64736f6c63430008000033",
  "immutableReferences": {},
  "source": "// SPDX-License-Identifier: MIT\n\npragma solidity ^0.8.0;\n\nimport \"./ERC1155Mock.sol\";\nimport \"../token/ERC1155/extensions/ERC1155Pausable.sol\";\n\ncontract ERC1155PausableMock is ERC1155Mock, ERC1155Pausable {\n    constructor(string memory uri) ERC1155Mock(uri) { }\n\n    function pause() external {\n        _pause();\n    }\n\n    function unpause() external {\n        _unpause();\n    }\n\n    function _beforeTokenTransfer(\n        address operator,\n        address from,\n        address to,\n        uint256[] memory ids,\n        uint256[] memory amounts,\n        bytes memory data\n    )\n        internal virtual override(ERC1155, ERC1155Pausable)\n    {\n        super._beforeTokenTransfer(operator, from, to, ids, amounts, data);\n    }\n}\n",
  "sourcePath": "/Users/jaredborders/Documents/Work/Blockchain/Truffle-2X/contracts/openzeppelin-solidity/contracts/mocks/ERC1155PausableMock.sol",
  "compiler": {
    "name": "solc",
    "version": "0.8.0+commit.c7dfd78e.Emscripten.clang"
  },
  "schemaVersion": "3.3.4",
  "updatedAt": "2021-04-16T22:50:40.300Z",
  "devdoc": {
    "kind": "dev",
    "methods": {
      "balanceOf(address,uint256)": {
        "details": "See {IERC1155-balanceOf}. Requirements: - `account` cannot be the zero address."
      },
      "balanceOfBatch(address[],uint256[])": {
        "details": "See {IERC1155-balanceOfBatch}. Requirements: - `accounts` and `ids` must have the same length."
      },
      "isApprovedForAll(address,address)": {
        "details": "See {IERC1155-isApprovedForAll}."
      },
      "paused()": {
        "details": "Returns true if the contract is paused, and false otherwise."
      },
      "safeBatchTransferFrom(address,address,uint256[],uint256[],bytes)": {
        "details": "See {IERC1155-safeBatchTransferFrom}."
      },
      "safeTransferFrom(address,address,uint256,uint256,bytes)": {
        "details": "See {IERC1155-safeTransferFrom}."
      },
      "setApprovalForAll(address,bool)": {
        "details": "See {IERC1155-setApprovalForAll}."
      },
      "supportsInterface(bytes4)": {
        "details": "See {IERC165-supportsInterface}."
      },
      "uri(uint256)": {
        "details": "See {IERC1155MetadataURI-uri}. This implementation returns the same URI for *all* token types. It relies on the token type ID substitution mechanism https://eips.ethereum.org/EIPS/eip-1155#metadata[defined in the EIP]. Clients calling this function must replace the `\\{id\\}` substring with the actual token type ID."
      }
    },
    "version": 1
  },
  "userdoc": {
    "kind": "user",
    "methods": {},
    "version": 1
  }
}