{
  "contractName": "ERC20PausableMock",
  "abi": [
    {
      "inputs": [
        {
          "internalType": "string",
          "name": "name",
          "type": "string"
        },
        {
          "internalType": "string",
          "name": "symbol",
          "type": "string"
        },
        {
          "internalType": "address",
          "name": "initialAccount",
          "type": "address"
        },
        {
          "internalType": "uint256",
          "name": "initialBalance",
          "type": "uint256"
        }
      ],
      "stateMutability": "nonpayable",
      "type": "constructor"
    },
    {
      "anonymous": false,
      "inputs": [
        {
          "indexed": true,
          "internalType": "address",
          "name": "owner",
          "type": "address"
        },
        {
          "indexed": true,
          "internalType": "address",
          "name": "spender",
          "type": "address"
        },
        {
          "indexed": false,
          "internalType": "uint256",
          "name": "value",
          "type": "uint256"
        }
      ],
      "name": "Approval",
      "type": "event"
    },
    {
      "anonymous": false,
      "inputs": [
        {
          "indexed": false,
          "internalType": "address",
          "name": "account",
          "type": "address"
        }
      ],
      "name": "Paused",
      "type": "event"
    },
    {
      "anonymous": false,
      "inputs": [
        {
          "indexed": true,
          "internalType": "address",
          "name": "from",
          "type": "address"
        },
        {
          "indexed": true,
          "internalType": "address",
          "name": "to",
          "type": "address"
        },
        {
          "indexed": false,
          "internalType": "uint256",
          "name": "value",
          "type": "uint256"
        }
      ],
      "name": "Transfer",
      "type": "event"
    },
    {
      "anonymous": false,
      "inputs": [
        {
          "indexed": false,
          "internalType": "address",
          "name": "account",
          "type": "address"
        }
      ],
      "name": "Unpaused",
      "type": "event"
    },
    {
      "inputs": [
        {
          "internalType": "address",
          "name": "owner",
          "type": "address"
        },
        {
          "internalType": "address",
          "name": "spender",
          "type": "address"
        }
      ],
      "name": "allowance",
      "outputs": [
        {
          "internalType": "uint256",
          "name": "",
          "type": "uint256"
        }
      ],
      "stateMutability": "view",
      "type": "function"
    },
    {
      "inputs": [
        {
          "internalType": "address",
          "name": "spender",
          "type": "address"
        },
        {
          "internalType": "uint256",
          "name": "amount",
          "type": "uint256"
        }
      ],
      "name": "approve",
      "outputs": [
        {
          "internalType": "bool",
          "name": "",
          "type": "bool"
        }
      ],
      "stateMutability": "nonpayable",
      "type": "function"
    },
    {
      "inputs": [
        {
          "internalType": "address",
          "name": "account",
          "type": "address"
        }
      ],
      "name": "balanceOf",
      "outputs": [
        {
          "internalType": "uint256",
          "name": "",
          "type": "uint256"
        }
      ],
      "stateMutability": "view",
      "type": "function"
    },
    {
      "inputs": [],
      "name": "decimals",
      "outputs": [
        {
          "internalType": "uint8",
          "name": "",
          "type": "uint8"
        }
      ],
      "stateMutability": "view",
      "type": "function"
    },
    {
      "inputs": [
        {
          "internalType": "address",
          "name": "spender",
          "type": "address"
        },
        {
          "internalType": "uint256",
          "name": "subtractedValue",
          "type": "uint256"
        }
      ],
      "name": "decreaseAllowance",
      "outputs": [
        {
          "internalType": "bool",
          "name": "",
          "type": "bool"
        }
      ],
      "stateMutability": "nonpayable",
      "type": "function"
    },
    {
      "inputs": [
        {
          "internalType": "address",
          "name": "spender",
          "type": "address"
        },
        {
          "internalType": "uint256",
          "name": "addedValue",
          "type": "uint256"
        }
      ],
      "name": "increaseAllowance",
      "outputs": [
        {
          "internalType": "bool",
          "name": "",
          "type": "bool"
        }
      ],
      "stateMutability": "nonpayable",
      "type": "function"
    },
    {
      "inputs": [],
      "name": "name",
      "outputs": [
        {
          "internalType": "string",
          "name": "",
          "type": "string"
        }
      ],
      "stateMutability": "view",
      "type": "function"
    },
    {
      "inputs": [],
      "name": "paused",
      "outputs": [
        {
          "internalType": "bool",
          "name": "",
          "type": "bool"
        }
      ],
      "stateMutability": "view",
      "type": "function"
    },
    {
      "inputs": [],
      "name": "symbol",
      "outputs": [
        {
          "internalType": "string",
          "name": "",
          "type": "string"
        }
      ],
      "stateMutability": "view",
      "type": "function"
    },
    {
      "inputs": [],
      "name": "totalSupply",
      "outputs": [
        {
          "internalType": "uint256",
          "name": "",
          "type": "uint256"
        }
      ],
      "stateMutability": "view",
      "type": "function"
    },
    {
      "inputs": [
        {
          "internalType": "address",
          "name": "recipient",
          "type": "address"
        },
        {
          "internalType": "uint256",
          "name": "amount",
          "type": "uint256"
        }
      ],
      "name": "transfer",
      "outputs": [
        {
          "internalType": "bool",
          "name": "",
          "type": "bool"
        }
      ],
      "stateMutability": "nonpayable",
      "type": "function"
    },
    {
      "inputs": [
        {
          "internalType": "address",
          "name": "sender",
          "type": "address"
        },
        {
          "internalType": "address",
          "name": "recipient",
          "type": "address"
        },
        {
          "internalType": "uint256",
          "name": "amount",
          "type": "uint256"
        }
      ],
      "name": "transferFrom",
      "outputs": [
        {
          "internalType": "bool",
          "name": "",
          "type": "bool"
        }
      ],
      "stateMutability": "nonpayable",
      "type": "function"
    },
    {
      "inputs": [],
      "name": "pause",
      "outputs": [],
      "stateMutability": "nonpayable",
      "type": "function"
    },
    {
      "inputs": [],
      "name": "unpause",
      "outputs": [],
      "stateMutability": "nonpayable",
      "type": "function"
    },
    {
      "inputs": [
        {
          "internalType": "address",
          "name": "to",
          "type": "address"
        },
        {
          "internalType": "uint256",
          "name": "amount",
          "type": "uint256"
        }
      ],
      "name": "mint",
      "outputs": [],
      "stateMutability": "nonpayable",
      "type": "function"
    },
    {
      "inputs": [
        {
          "internalType": "address",
          "name": "from",
          "type": "address"
        },
        {
          "internalType": "uint256",
          "name": "amount",
          "type": "uint256"
        }
      ],
      "name": "burn",
      "outputs": [],
      "stateMutability": "nonpayable",
      "type": "function"
    }
  ],
  "bytecode": "0x60806040523480156200001157600080fd5b5060405162002418380380620024188339818101604052810190620000379190620003e5565b838381600390805190602001906200005192919062000295565b5080600490805190602001906200006a92919062000295565b5050506000600560006101000a81548160ff0219169083151502179055506200009a8282620000a460201b60201c565b50505050620007df565b600073ffffffffffffffffffffffffffffffffffffffff168273ffffffffffffffffffffffffffffffffffffffff16141562000117576040517f08c379a00000000000000000000000000000000000000000000000000000000081526004016200010e906200053e565b60405180910390fd5b6200012b600083836200020960201b60201c565b80600260008282546200013f919062000617565b92505081905550806000808473ffffffffffffffffffffffffffffffffffffffff1673ffffffffffffffffffffffffffffffffffffffff168152602001908152602001600020600082825462000196919062000617565b925050819055508173ffffffffffffffffffffffffffffffffffffffff16600073ffffffffffffffffffffffffffffffffffffffff167fddf252ad1be2c89b69c2b068fc378daa952ba7f163c4a11628f55a4df523b3ef83604051620001fd919062000582565b60405180910390a35050565b620002218383836200027960201b620008611760201c565b620002316200027e60201b60201c565b1562000274576040517f08c379a00000000000000000000000000000000000000000000000000000000081526004016200026b9062000560565b60405180910390fd5b505050565b505050565b6000600560009054906101000a900460ff16905090565b828054620002a390620006e8565b90600052602060002090601f016020900481019282620002c7576000855562000313565b82601f10620002e257805160ff191683800117855562000313565b8280016001018555821562000313579182015b8281111562000312578251825591602001919060010190620002f5565b5b50905062000322919062000326565b5090565b5b808211156200034157600081600090555060010162000327565b5090565b60006200035c6200035684620005d3565b6200059f565b9050828152602081018484840111156200037557600080fd5b62000382848285620006b2565b509392505050565b6000815190506200039b81620007ab565b92915050565b600082601f830112620003b357600080fd5b8151620003c584826020860162000345565b91505092915050565b600081519050620003df81620007c5565b92915050565b60008060008060808587031215620003fc57600080fd5b600085015167ffffffffffffffff8111156200041757600080fd5b6200042587828801620003a1565b945050602085015167ffffffffffffffff8111156200044357600080fd5b6200045187828801620003a1565b935050604062000464878288016200038a565b92505060606200047787828801620003ce565b91505092959194509250565b600062000492601f8362000606565b91507f45524332303a206d696e7420746f20746865207a65726f2061646472657373006000830152602082019050919050565b6000620004d4602a8362000606565b91507f45524332305061757361626c653a20746f6b656e207472616e7366657220776860008301527f696c6520706175736564000000000000000000000000000000000000000000006020830152604082019050919050565b6200053881620006a8565b82525050565b60006020820190508181036000830152620005598162000483565b9050919050565b600060208201905081810360008301526200057b81620004c5565b9050919050565b60006020820190506200059960008301846200052d565b92915050565b6000604051905081810181811067ffffffffffffffff82111715620005c957620005c86200077c565b5b8060405250919050565b600067ffffffffffffffff821115620005f157620005f06200077c565b5b601f19601f8301169050602081019050919050565b600082825260208201905092915050565b60006200062482620006a8565b91506200063183620006a8565b9250827fffffffffffffffffffffffffffffffffffffffffffffffffffffffffffffffff038211156200066957620006686200071e565b5b828201905092915050565b6000620006818262000688565b9050919050565b600073ffffffffffffffffffffffffffffffffffffffff82169050919050565b6000819050919050565b60005b83811015620006d2578082015181840152602081019050620006b5565b83811115620006e2576000848401525b50505050565b600060028204905060018216806200070157607f821691505b602082108114156200071857620007176200074d565b5b50919050565b7f4e487b7100000000000000000000000000000000000000000000000000000000600052601160045260246000fd5b7f4e487b7100000000000000000000000000000000000000000000000000000000600052602260045260246000fd5b7f4e487b7100000000000000000000000000000000000000000000000000000000600052604160045260246000fd5b620007b68162000674565b8114620007c257600080fd5b50565b620007d081620006a8565b8114620007dc57600080fd5b50565b611c2980620007ef6000396000f3fe608060405234801561001057600080fd5b50600436106101005760003560e01c80635c975abb116100975780639dc29fac116100665780639dc29fac1461028b578063a457c2d7146102a7578063a9059cbb146102d7578063dd62ed3e1461030757610100565b80635c975abb1461021557806370a08231146102335780638456cb591461026357806395d89b411461026d57610100565b8063313ce567116100d3578063313ce567146101a157806339509351146101bf5780633f4ba83a146101ef57806340c10f19146101f957610100565b806306fdde0314610105578063095ea7b31461012357806318160ddd1461015357806323b872dd14610171575b600080fd5b61010d610337565b60405161011a91906117fe565b60405180910390f35b61013d6004803603810190610138919061125b565b6103c9565b60405161014a91906117e3565b60405180910390f35b61015b6103e7565b60405161016891906119c0565b60405180910390f35b61018b6004803603810190610186919061120c565b6103f1565b60405161019891906117e3565b60405180910390f35b6101a96104f2565b6040516101b691906119db565b60405180910390f35b6101d960048036038101906101d4919061125b565b6104fb565b6040516101e691906117e3565b60405180910390f35b6101f76105a7565b005b610213600480360381019061020e919061125b565b6105b1565b005b61021d6105bf565b60405161022a91906117e3565b60405180910390f35b61024d600480360381019061024891906111a7565b6105d6565b60405161025a91906119c0565b60405180910390f35b61026b61061e565b005b610275610628565b60405161028291906117fe565b60405180910390f35b6102a560048036038101906102a0919061125b565b6106ba565b005b6102c160048036038101906102bc919061125b565b6106c8565b6040516102ce91906117e3565b60405180910390f35b6102f160048036038101906102ec919061125b565b6107bc565b6040516102fe91906117e3565b60405180910390f35b610321600480360381019061031c91906111d0565b6107da565b60405161032e91906119c0565b60405180910390f35b60606003805461034690611b24565b80601f016020809104026020016040519081016040528092919081815260200182805461037290611b24565b80156103bf5780601f10610394576101008083540402835291602001916103bf565b820191906000526020600020905b8154815290600101906020018083116103a257829003601f168201915b5050505050905090565b60006103dd6103d6610866565b848461086e565b6001905092915050565b6000600254905090565b60006103fe848484610a39565b6000600160008673ffffffffffffffffffffffffffffffffffffffff1673ffffffffffffffffffffffffffffffffffffffff1681526020019081526020016000206000610449610866565b73ffffffffffffffffffffffffffffffffffffffff1673ffffffffffffffffffffffffffffffffffffffff168152602001908152602001600020549050828110156104c9576040517f08c379a00000000000000000000000000000000000000000000000000000000081526004016104c0906118e0565b60405180910390fd5b6104e6856104d5610866565b85846104e19190611a68565b61086e565b60019150509392505050565b60006012905090565b600061059d610508610866565b848460016000610516610866565b73ffffffffffffffffffffffffffffffffffffffff1673ffffffffffffffffffffffffffffffffffffffff16815260200190815260200160002060008873ffffffffffffffffffffffffffffffffffffffff1673ffffffffffffffffffffffffffffffffffffffff168152602001908152602001600020546105989190611a12565b61086e565b6001905092915050565b6105af610cb8565b565b6105bb8282610d5a565b5050565b6000600560009054906101000a900460ff16905090565b60008060008373ffffffffffffffffffffffffffffffffffffffff1673ffffffffffffffffffffffffffffffffffffffff168152602001908152602001600020549050919050565b610626610eae565b565b60606004805461063790611b24565b80601f016020809104026020016040519081016040528092919081815260200182805461066390611b24565b80156106b05780601f10610685576101008083540402835291602001916106b0565b820191906000526020600020905b81548152906001019060200180831161069357829003601f168201915b5050505050905090565b6106c48282610f51565b5050565b600080600160006106d7610866565b73ffffffffffffffffffffffffffffffffffffffff1673ffffffffffffffffffffffffffffffffffffffff16815260200190815260200160002060008573ffffffffffffffffffffffffffffffffffffffff1673ffffffffffffffffffffffffffffffffffffffff16815260200190815260200160002054905082811015610794576040517f08c379a000000000000000000000000000000000000000000000000000000000815260040161078b90611960565b60405180910390fd5b6107b161079f610866565b8585846107ac9190611a68565b61086e565b600191505092915050565b60006107d06107c9610866565b8484610a39565b6001905092915050565b6000600160008473ffffffffffffffffffffffffffffffffffffffff1673ffffffffffffffffffffffffffffffffffffffff16815260200190815260200160002060008373ffffffffffffffffffffffffffffffffffffffff1673ffffffffffffffffffffffffffffffffffffffff16815260200190815260200160002054905092915050565b505050565b600033905090565b600073ffffffffffffffffffffffffffffffffffffffff168373ffffffffffffffffffffffffffffffffffffffff1614156108de576040517f08c379a00000000000000000000000000000000000000000000000000000000081526004016108d590611940565b60405180910390fd5b600073ffffffffffffffffffffffffffffffffffffffff168273ffffffffffffffffffffffffffffffffffffffff16141561094e576040517f08c379a000000000000000000000000000000000000000000000000000000000815260040161094590611880565b60405180910390fd5b80600160008573ffffffffffffffffffffffffffffffffffffffff1673ffffffffffffffffffffffffffffffffffffffff16815260200190815260200160002060008473ffffffffffffffffffffffffffffffffffffffff1673ffffffffffffffffffffffffffffffffffffffff168152602001908152602001600020819055508173ffffffffffffffffffffffffffffffffffffffff168373ffffffffffffffffffffffffffffffffffffffff167f8c5be1e5ebec7d5bd14f71427d1e84f3dd0314c0f7b2291e5b200ac8c7c3b92583604051610a2c91906119c0565b60405180910390a3505050565b600073ffffffffffffffffffffffffffffffffffffffff168373ffffffffffffffffffffffffffffffffffffffff161415610aa9576040517f08c379a0000000000000000000000000000000000000000000000000000000008152600401610aa090611920565b60405180910390fd5b600073ffffffffffffffffffffffffffffffffffffffff168273ffffffffffffffffffffffffffffffffffffffff161415610b19576040517f08c379a0000000000000000000000000000000000000000000000000000000008152600401610b1090611820565b60405180910390fd5b610b24838383611125565b60008060008573ffffffffffffffffffffffffffffffffffffffff1673ffffffffffffffffffffffffffffffffffffffff16815260200190815260200160002054905081811015610baa576040517f08c379a0000000000000000000000000000000000000000000000000000000008152600401610ba1906118a0565b60405180910390fd5b8181610bb69190611a68565b6000808673ffffffffffffffffffffffffffffffffffffffff1673ffffffffffffffffffffffffffffffffffffffff16815260200190815260200160002081905550816000808573ffffffffffffffffffffffffffffffffffffffff1673ffffffffffffffffffffffffffffffffffffffff1681526020019081526020016000206000828254610c469190611a12565b925050819055508273ffffffffffffffffffffffffffffffffffffffff168473ffffffffffffffffffffffffffffffffffffffff167fddf252ad1be2c89b69c2b068fc378daa952ba7f163c4a11628f55a4df523b3ef84604051610caa91906119c0565b60405180910390a350505050565b610cc06105bf565b610cff576040517f08c379a0000000000000000000000000000000000000000000000000000000008152600401610cf690611840565b60405180910390fd5b6000600560006101000a81548160ff0219169083151502179055507f5db9ee0a495bf2e6ff9c91a7834c1ba4fdd244a5e8aa4e537bd38aeae4b073aa610d43610866565b604051610d5091906117c8565b60405180910390a1565b600073ffffffffffffffffffffffffffffffffffffffff168273ffffffffffffffffffffffffffffffffffffffff161415610dca576040517f08c379a0000000000000000000000000000000000000000000000000000000008152600401610dc190611980565b60405180910390fd5b610dd660008383611125565b8060026000828254610de89190611a12565b92505081905550806000808473ffffffffffffffffffffffffffffffffffffffff1673ffffffffffffffffffffffffffffffffffffffff1681526020019081526020016000206000828254610e3d9190611a12565b925050819055508173ffffffffffffffffffffffffffffffffffffffff16600073ffffffffffffffffffffffffffffffffffffffff167fddf252ad1be2c89b69c2b068fc378daa952ba7f163c4a11628f55a4df523b3ef83604051610ea291906119c0565b60405180910390a35050565b610eb66105bf565b15610ef6576040517f08c379a0000000000000000000000000000000000000000000000000000000008152600401610eed906118c0565b60405180910390fd5b6001600560006101000a81548160ff0219169083151502179055507f62e78cea01bee320cd4e420270b5ea74000d11b0c9f74754ebdbfc544b05a258610f3a610866565b604051610f4791906117c8565b60405180910390a1565b600073ffffffffffffffffffffffffffffffffffffffff168273ffffffffffffffffffffffffffffffffffffffff161415610fc1576040517f08c379a0000000000000000000000000000000000000000000000000000000008152600401610fb890611900565b60405180910390fd5b610fcd82600083611125565b60008060008473ffffffffffffffffffffffffffffffffffffffff1673ffffffffffffffffffffffffffffffffffffffff16815260200190815260200160002054905081811015611053576040517f08c379a000000000000000000000000000000000000000000000000000000000815260040161104a90611860565b60405180910390fd5b818161105f9190611a68565b6000808573ffffffffffffffffffffffffffffffffffffffff1673ffffffffffffffffffffffffffffffffffffffff1681526020019081526020016000208190555081600260008282546110b39190611a68565b92505081905550600073ffffffffffffffffffffffffffffffffffffffff168373ffffffffffffffffffffffffffffffffffffffff167fddf252ad1be2c89b69c2b068fc378daa952ba7f163c4a11628f55a4df523b3ef8460405161111891906119c0565b60405180910390a3505050565b611130838383610861565b6111386105bf565b15611178576040517f08c379a000000000000000000000000000000000000000000000000000000000815260040161116f906119a0565b60405180910390fd5b505050565b60008135905061118c81611bc5565b92915050565b6000813590506111a181611bdc565b92915050565b6000602082840312156111b957600080fd5b60006111c78482850161117d565b91505092915050565b600080604083850312156111e357600080fd5b60006111f18582860161117d565b92505060206112028582860161117d565b9150509250929050565b60008060006060848603121561122157600080fd5b600061122f8682870161117d565b93505060206112408682870161117d565b925050604061125186828701611192565b9150509250925092565b6000806040838503121561126e57600080fd5b600061127c8582860161117d565b925050602061128d85828601611192565b9150509250929050565b6112a081611a9c565b82525050565b6112af81611aae565b82525050565b60006112c0826119f6565b6112ca8185611a01565b93506112da818560208601611af1565b6112e381611bb4565b840191505092915050565b60006112fb602383611a01565b91507f45524332303a207472616e7366657220746f20746865207a65726f206164647260008301527f65737300000000000000000000000000000000000000000000000000000000006020830152604082019050919050565b6000611361601483611a01565b91507f5061757361626c653a206e6f74207061757365640000000000000000000000006000830152602082019050919050565b60006113a1602283611a01565b91507f45524332303a206275726e20616d6f756e7420657863656564732062616c616e60008301527f63650000000000000000000000000000000000000000000000000000000000006020830152604082019050919050565b6000611407602283611a01565b91507f45524332303a20617070726f766520746f20746865207a65726f20616464726560008301527f73730000000000000000000000000000000000000000000000000000000000006020830152604082019050919050565b600061146d602683611a01565b91507f45524332303a207472616e7366657220616d6f756e742065786365656473206260008301527f616c616e636500000000000000000000000000000000000000000000000000006020830152604082019050919050565b60006114d3601083611a01565b91507f5061757361626c653a20706175736564000000000000000000000000000000006000830152602082019050919050565b6000611513602883611a01565b91507f45524332303a207472616e7366657220616d6f756e742065786365656473206160008301527f6c6c6f77616e63650000000000000000000000000000000000000000000000006020830152604082019050919050565b6000611579602183611a01565b91507f45524332303a206275726e2066726f6d20746865207a65726f2061646472657360008301527f73000000000000000000000000000000000000000000000000000000000000006020830152604082019050919050565b60006115df602583611a01565b91507f45524332303a207472616e736665722066726f6d20746865207a65726f20616460008301527f64726573730000000000000000000000000000000000000000000000000000006020830152604082019050919050565b6000611645602483611a01565b91507f45524332303a20617070726f76652066726f6d20746865207a65726f2061646460008301527f72657373000000000000000000000000000000000000000000000000000000006020830152604082019050919050565b60006116ab602583611a01565b91507f45524332303a2064656372656173656420616c6c6f77616e63652062656c6f7760008301527f207a65726f0000000000000000000000000000000000000000000000000000006020830152604082019050919050565b6000611711601f83611a01565b91507f45524332303a206d696e7420746f20746865207a65726f2061646472657373006000830152602082019050919050565b6000611751602a83611a01565b91507f45524332305061757361626c653a20746f6b656e207472616e7366657220776860008301527f696c6520706175736564000000000000000000000000000000000000000000006020830152604082019050919050565b6117b381611ada565b82525050565b6117c281611ae4565b82525050565b60006020820190506117dd6000830184611297565b92915050565b60006020820190506117f860008301846112a6565b92915050565b6000602082019050818103600083015261181881846112b5565b905092915050565b60006020820190508181036000830152611839816112ee565b9050919050565b6000602082019050818103600083015261185981611354565b9050919050565b6000602082019050818103600083015261187981611394565b9050919050565b60006020820190508181036000830152611899816113fa565b9050919050565b600060208201905081810360008301526118b981611460565b9050919050565b600060208201905081810360008301526118d9816114c6565b9050919050565b600060208201905081810360008301526118f981611506565b9050919050565b600060208201905081810360008301526119198161156c565b9050919050565b60006020820190508181036000830152611939816115d2565b9050919050565b6000602082019050818103600083015261195981611638565b9050919050565b600060208201905081810360008301526119798161169e565b9050919050565b6000602082019050818103600083015261199981611704565b9050919050565b600060208201905081810360008301526119b981611744565b9050919050565b60006020820190506119d560008301846117aa565b92915050565b60006020820190506119f060008301846117b9565b92915050565b600081519050919050565b600082825260208201905092915050565b6000611a1d82611ada565b9150611a2883611ada565b9250827fffffffffffffffffffffffffffffffffffffffffffffffffffffffffffffffff03821115611a5d57611a5c611b56565b5b828201905092915050565b6000611a7382611ada565b9150611a7e83611ada565b925082821015611a9157611a90611b56565b5b828203905092915050565b6000611aa782611aba565b9050919050565b60008115159050919050565b600073ffffffffffffffffffffffffffffffffffffffff82169050919050565b6000819050919050565b600060ff82169050919050565b60005b83811015611b0f578082015181840152602081019050611af4565b83811115611b1e576000848401525b50505050565b60006002820490506001821680611b3c57607f821691505b60208210811415611b5057611b4f611b85565b5b50919050565b7f4e487b7100000000000000000000000000000000000000000000000000000000600052601160045260246000fd5b7f4e487b7100000000000000000000000000000000000000000000000000000000600052602260045260246000fd5b6000601f19601f8301169050919050565b611bce81611a9c565b8114611bd957600080fd5b50565b611be581611ada565b8114611bf057600080fd5b5056fea2646970667358221220801f15ef193712e09d308d1cf24fae669056cb5c05e0ceb73bf16473147a117164736f6c63430008000033",
  "immutableReferences": {},
  "source": "// SPDX-License-Identifier: MIT\n\npragma solidity ^0.8.0;\n\nimport \"../token/ERC20/extensions/ERC20Pausable.sol\";\n\n// mock class using ERC20Pausable\ncontract ERC20PausableMock is ERC20Pausable {\n    constructor (\n        string memory name,\n        string memory symbol,\n        address initialAccount,\n        uint256 initialBalance\n    ) ERC20(name, symbol) {\n        _mint(initialAccount, initialBalance);\n    }\n\n    function pause() external {\n        _pause();\n    }\n\n    function unpause() external {\n        _unpause();\n    }\n\n    function mint(address to, uint256 amount) public {\n        _mint(to, amount);\n    }\n\n    function burn(address from, uint256 amount) public {\n        _burn(from, amount);\n    }\n}\n",
  "sourcePath": "/Users/jaredborders/Documents/Work/Blockchain/2X/contracts/openzeppelin-solidity/contracts/mocks/ERC20PausableMock.sol",
  "compiler": {
    "name": "solc",
    "version": "0.8.0+commit.c7dfd78e.Emscripten.clang"
  },
  "schemaVersion": "3.3.4",
  "updatedAt": "2021-04-21T17:54:47.842Z",
  "devdoc": {
    "kind": "dev",
    "methods": {
      "allowance(address,address)": {
        "details": "See {IERC20-allowance}."
      },
      "approve(address,uint256)": {
        "details": "See {IERC20-approve}. Requirements: - `spender` cannot be the zero address."
      },
      "balanceOf(address)": {
        "details": "See {IERC20-balanceOf}."
      },
      "decimals()": {
        "details": "Returns the number of decimals used to get its user representation. For example, if `decimals` equals `2`, a balance of `505` tokens should be displayed to a user as `5,05` (`505 / 10 ** 2`). Tokens usually opt for a value of 18, imitating the relationship between Ether and Wei. This is the value {ERC20} uses, unless this function is overridden; NOTE: This information is only used for _display_ purposes: it in no way affects any of the arithmetic of the contract, including {IERC20-balanceOf} and {IERC20-transfer}."
      },
      "decreaseAllowance(address,uint256)": {
        "details": "Atomically decreases the allowance granted to `spender` by the caller. This is an alternative to {approve} that can be used as a mitigation for problems described in {IERC20-approve}. Emits an {Approval} event indicating the updated allowance. Requirements: - `spender` cannot be the zero address. - `spender` must have allowance for the caller of at least `subtractedValue`."
      },
      "increaseAllowance(address,uint256)": {
        "details": "Atomically increases the allowance granted to `spender` by the caller. This is an alternative to {approve} that can be used as a mitigation for problems described in {IERC20-approve}. Emits an {Approval} event indicating the updated allowance. Requirements: - `spender` cannot be the zero address."
      },
      "name()": {
        "details": "Returns the name of the token."
      },
      "paused()": {
        "details": "Returns true if the contract is paused, and false otherwise."
      },
      "symbol()": {
        "details": "Returns the symbol of the token, usually a shorter version of the name."
      },
      "totalSupply()": {
        "details": "See {IERC20-totalSupply}."
      },
      "transfer(address,uint256)": {
        "details": "See {IERC20-transfer}. Requirements: - `recipient` cannot be the zero address. - the caller must have a balance of at least `amount`."
      },
      "transferFrom(address,address,uint256)": {
        "details": "See {IERC20-transferFrom}. Emits an {Approval} event indicating the updated allowance. This is not required by the EIP. See the note at the beginning of {ERC20}. Requirements: - `sender` and `recipient` cannot be the zero address. - `sender` must have a balance of at least `amount`. - the caller must have allowance for ``sender``'s tokens of at least `amount`."
      }
    },
    "version": 1
  },
  "userdoc": {
    "kind": "user",
    "methods": {},
    "version": 1
  }
}