{
  "contractName": "ERC20CappedMock",
  "abi": [
    {
      "inputs": [
        {
          "internalType": "string",
          "name": "name",
          "type": "string"
        },
        {
          "internalType": "string",
          "name": "symbol",
          "type": "string"
        },
        {
          "internalType": "uint256",
          "name": "cap",
          "type": "uint256"
        }
      ],
      "stateMutability": "nonpayable",
      "type": "constructor"
    },
    {
      "anonymous": false,
      "inputs": [
        {
          "indexed": true,
          "internalType": "address",
          "name": "owner",
          "type": "address"
        },
        {
          "indexed": true,
          "internalType": "address",
          "name": "spender",
          "type": "address"
        },
        {
          "indexed": false,
          "internalType": "uint256",
          "name": "value",
          "type": "uint256"
        }
      ],
      "name": "Approval",
      "type": "event"
    },
    {
      "anonymous": false,
      "inputs": [
        {
          "indexed": true,
          "internalType": "address",
          "name": "from",
          "type": "address"
        },
        {
          "indexed": true,
          "internalType": "address",
          "name": "to",
          "type": "address"
        },
        {
          "indexed": false,
          "internalType": "uint256",
          "name": "value",
          "type": "uint256"
        }
      ],
      "name": "Transfer",
      "type": "event"
    },
    {
      "inputs": [
        {
          "internalType": "address",
          "name": "owner",
          "type": "address"
        },
        {
          "internalType": "address",
          "name": "spender",
          "type": "address"
        }
      ],
      "name": "allowance",
      "outputs": [
        {
          "internalType": "uint256",
          "name": "",
          "type": "uint256"
        }
      ],
      "stateMutability": "view",
      "type": "function"
    },
    {
      "inputs": [
        {
          "internalType": "address",
          "name": "spender",
          "type": "address"
        },
        {
          "internalType": "uint256",
          "name": "amount",
          "type": "uint256"
        }
      ],
      "name": "approve",
      "outputs": [
        {
          "internalType": "bool",
          "name": "",
          "type": "bool"
        }
      ],
      "stateMutability": "nonpayable",
      "type": "function"
    },
    {
      "inputs": [
        {
          "internalType": "address",
          "name": "account",
          "type": "address"
        }
      ],
      "name": "balanceOf",
      "outputs": [
        {
          "internalType": "uint256",
          "name": "",
          "type": "uint256"
        }
      ],
      "stateMutability": "view",
      "type": "function"
    },
    {
      "inputs": [],
      "name": "cap",
      "outputs": [
        {
          "internalType": "uint256",
          "name": "",
          "type": "uint256"
        }
      ],
      "stateMutability": "view",
      "type": "function"
    },
    {
      "inputs": [],
      "name": "decimals",
      "outputs": [
        {
          "internalType": "uint8",
          "name": "",
          "type": "uint8"
        }
      ],
      "stateMutability": "view",
      "type": "function"
    },
    {
      "inputs": [
        {
          "internalType": "address",
          "name": "spender",
          "type": "address"
        },
        {
          "internalType": "uint256",
          "name": "subtractedValue",
          "type": "uint256"
        }
      ],
      "name": "decreaseAllowance",
      "outputs": [
        {
          "internalType": "bool",
          "name": "",
          "type": "bool"
        }
      ],
      "stateMutability": "nonpayable",
      "type": "function"
    },
    {
      "inputs": [
        {
          "internalType": "address",
          "name": "spender",
          "type": "address"
        },
        {
          "internalType": "uint256",
          "name": "addedValue",
          "type": "uint256"
        }
      ],
      "name": "increaseAllowance",
      "outputs": [
        {
          "internalType": "bool",
          "name": "",
          "type": "bool"
        }
      ],
      "stateMutability": "nonpayable",
      "type": "function"
    },
    {
      "inputs": [],
      "name": "name",
      "outputs": [
        {
          "internalType": "string",
          "name": "",
          "type": "string"
        }
      ],
      "stateMutability": "view",
      "type": "function"
    },
    {
      "inputs": [],
      "name": "symbol",
      "outputs": [
        {
          "internalType": "string",
          "name": "",
          "type": "string"
        }
      ],
      "stateMutability": "view",
      "type": "function"
    },
    {
      "inputs": [],
      "name": "totalSupply",
      "outputs": [
        {
          "internalType": "uint256",
          "name": "",
          "type": "uint256"
        }
      ],
      "stateMutability": "view",
      "type": "function"
    },
    {
      "inputs": [
        {
          "internalType": "address",
          "name": "recipient",
          "type": "address"
        },
        {
          "internalType": "uint256",
          "name": "amount",
          "type": "uint256"
        }
      ],
      "name": "transfer",
      "outputs": [
        {
          "internalType": "bool",
          "name": "",
          "type": "bool"
        }
      ],
      "stateMutability": "nonpayable",
      "type": "function"
    },
    {
      "inputs": [
        {
          "internalType": "address",
          "name": "sender",
          "type": "address"
        },
        {
          "internalType": "address",
          "name": "recipient",
          "type": "address"
        },
        {
          "internalType": "uint256",
          "name": "amount",
          "type": "uint256"
        }
      ],
      "name": "transferFrom",
      "outputs": [
        {
          "internalType": "bool",
          "name": "",
          "type": "bool"
        }
      ],
      "stateMutability": "nonpayable",
      "type": "function"
    },
    {
      "inputs": [
        {
          "internalType": "address",
          "name": "to",
          "type": "address"
        },
        {
          "internalType": "uint256",
          "name": "tokenId",
          "type": "uint256"
        }
      ],
      "name": "mint",
      "outputs": [],
      "stateMutability": "nonpayable",
      "type": "function"
    }
  ],
  "bytecode": "0x60a06040523480156200001157600080fd5b5060405162001b0138038062001b018339818101604052810190620000379190620001ff565b808383816003908051906020019062000052929190620000c6565b5080600490805190602001906200006b929190620000c6565b50505060008111620000b4576040517f08c379a0000000000000000000000000000000000000000000000000000000008152600401620000ab90620002c9565b60405180910390fd5b80608081815250505050505062000451565b828054620000d490620003a3565b90600052602060002090601f016020900481019282620000f8576000855562000144565b82601f106200011357805160ff191683800117855562000144565b8280016001018555821562000144579182015b828111156200014357825182559160200191906001019062000126565b5b50905062000153919062000157565b5090565b5b808211156200017257600081600090555060010162000158565b5090565b60006200018d62000187846200031f565b620002eb565b905082815260208101848484011115620001a657600080fd5b620001b38482856200036d565b509392505050565b600082601f830112620001cd57600080fd5b8151620001df84826020860162000176565b91505092915050565b600081519050620001f98162000437565b92915050565b6000806000606084860312156200021557600080fd5b600084015167ffffffffffffffff8111156200023057600080fd5b6200023e86828701620001bb565b935050602084015167ffffffffffffffff8111156200025c57600080fd5b6200026a86828701620001bb565b92505060406200027d86828701620001e8565b9150509250925092565b60006200029660158362000352565b91507f45524332304361707065643a20636170206973203000000000000000000000006000830152602082019050919050565b60006020820190508181036000830152620002e48162000287565b9050919050565b6000604051905081810181811067ffffffffffffffff8211171562000315576200031462000408565b5b8060405250919050565b600067ffffffffffffffff8211156200033d576200033c62000408565b5b601f19601f8301169050602081019050919050565b600082825260208201905092915050565b6000819050919050565b60005b838110156200038d57808201518184015260208101905062000370565b838111156200039d576000848401525b50505050565b60006002820490506001821680620003bc57607f821691505b60208210811415620003d357620003d2620003d9565b5b50919050565b7f4e487b7100000000000000000000000000000000000000000000000000000000600052602260045260246000fd5b7f4e487b7100000000000000000000000000000000000000000000000000000000600052604160045260246000fd5b620004428162000363565b81146200044e57600080fd5b50565b6080516116946200046d600039600061049e01526116946000f3fe608060405234801561001057600080fd5b50600436106100cf5760003560e01c8063395093511161008c57806395d89b411161006657806395d89b4114610228578063a457c2d714610246578063a9059cbb14610276578063dd62ed3e146102a6576100cf565b806339509351146101ac57806340c10f19146101dc57806370a08231146101f8576100cf565b806306fdde03146100d4578063095ea7b3146100f257806318160ddd1461012257806323b872dd14610140578063313ce56714610170578063355274ea1461018e575b600080fd5b6100dc6102d6565b6040516100e991906112e9565b60405180910390f35b61010c60048036038101906101079190610ee2565b610368565b60405161011991906112ce565b60405180910390f35b61012a610386565b604051610137919061142b565b60405180910390f35b61015a60048036038101906101559190610e93565b610390565b60405161016791906112ce565b60405180910390f35b610178610491565b6040516101859190611446565b60405180910390f35b61019661049a565b6040516101a3919061142b565b60405180910390f35b6101c660048036038101906101c19190610ee2565b6104c2565b6040516101d391906112ce565b60405180910390f35b6101f660048036038101906101f19190610ee2565b61056e565b005b610212600480360381019061020d9190610e2e565b61057c565b60405161021f919061142b565b60405180910390f35b6102306105c4565b60405161023d91906112e9565b60405180910390f35b610260600480360381019061025b9190610ee2565b610656565b60405161026d91906112ce565b60405180910390f35b610290600480360381019061028b9190610ee2565b61074a565b60405161029d91906112ce565b60405180910390f35b6102c060048036038101906102bb9190610e57565b610768565b6040516102cd919061142b565b60405180910390f35b6060600380546102e59061158f565b80601f01602080910402602001604051908101604052809291908181526020018280546103119061158f565b801561035e5780601f106103335761010080835404028352916020019161035e565b820191906000526020600020905b81548152906001019060200180831161034157829003601f168201915b5050505050905090565b600061037c6103756107ef565b84846107f7565b6001905092915050565b6000600254905090565b600061039d8484846109c2565b6000600160008673ffffffffffffffffffffffffffffffffffffffff1673ffffffffffffffffffffffffffffffffffffffff16815260200190815260200160002060006103e86107ef565b73ffffffffffffffffffffffffffffffffffffffff1673ffffffffffffffffffffffffffffffffffffffff16815260200190815260200160002054905082811015610468576040517f08c379a000000000000000000000000000000000000000000000000000000000815260040161045f9061136b565b60405180910390fd5b610485856104746107ef565b858461048091906114d3565b6107f7565b60019150509392505050565b60006012905090565b60007f0000000000000000000000000000000000000000000000000000000000000000905090565b60006105646104cf6107ef565b8484600160006104dd6107ef565b73ffffffffffffffffffffffffffffffffffffffff1673ffffffffffffffffffffffffffffffffffffffff16815260200190815260200160002060008873ffffffffffffffffffffffffffffffffffffffff1673ffffffffffffffffffffffffffffffffffffffff1681526020019081526020016000205461055f919061147d565b6107f7565b6001905092915050565b6105788282610c41565b5050565b60008060008373ffffffffffffffffffffffffffffffffffffffff1673ffffffffffffffffffffffffffffffffffffffff168152602001908152602001600020549050919050565b6060600480546105d39061158f565b80601f01602080910402602001604051908101604052809291908181526020018280546105ff9061158f565b801561064c5780601f106106215761010080835404028352916020019161064c565b820191906000526020600020905b81548152906001019060200180831161062f57829003601f168201915b5050505050905090565b600080600160006106656107ef565b73ffffffffffffffffffffffffffffffffffffffff1673ffffffffffffffffffffffffffffffffffffffff16815260200190815260200160002060008573ffffffffffffffffffffffffffffffffffffffff1673ffffffffffffffffffffffffffffffffffffffff16815260200190815260200160002054905082811015610722576040517f08c379a0000000000000000000000000000000000000000000000000000000008152600401610719906113eb565b60405180910390fd5b61073f61072d6107ef565b85858461073a91906114d3565b6107f7565b600191505092915050565b600061075e6107576107ef565b84846109c2565b6001905092915050565b6000600160008473ffffffffffffffffffffffffffffffffffffffff1673ffffffffffffffffffffffffffffffffffffffff16815260200190815260200160002060008373ffffffffffffffffffffffffffffffffffffffff1673ffffffffffffffffffffffffffffffffffffffff16815260200190815260200160002054905092915050565b600033905090565b600073ffffffffffffffffffffffffffffffffffffffff168373ffffffffffffffffffffffffffffffffffffffff161415610867576040517f08c379a000000000000000000000000000000000000000000000000000000000815260040161085e906113cb565b60405180910390fd5b600073ffffffffffffffffffffffffffffffffffffffff168273ffffffffffffffffffffffffffffffffffffffff1614156108d7576040517f08c379a00000000000000000000000000000000000000000000000000000000081526004016108ce9061132b565b60405180910390fd5b80600160008573ffffffffffffffffffffffffffffffffffffffff1673ffffffffffffffffffffffffffffffffffffffff16815260200190815260200160002060008473ffffffffffffffffffffffffffffffffffffffff1673ffffffffffffffffffffffffffffffffffffffff168152602001908152602001600020819055508173ffffffffffffffffffffffffffffffffffffffff168373ffffffffffffffffffffffffffffffffffffffff167f8c5be1e5ebec7d5bd14f71427d1e84f3dd0314c0f7b2291e5b200ac8c7c3b925836040516109b5919061142b565b60405180910390a3505050565b600073ffffffffffffffffffffffffffffffffffffffff168373ffffffffffffffffffffffffffffffffffffffff161415610a32576040517f08c379a0000000000000000000000000000000000000000000000000000000008152600401610a299061138b565b60405180910390fd5b600073ffffffffffffffffffffffffffffffffffffffff168273ffffffffffffffffffffffffffffffffffffffff161415610aa2576040517f08c379a0000000000000000000000000000000000000000000000000000000008152600401610a999061130b565b60405180910390fd5b610aad838383610cab565b60008060008573ffffffffffffffffffffffffffffffffffffffff1673ffffffffffffffffffffffffffffffffffffffff16815260200190815260200160002054905081811015610b33576040517f08c379a0000000000000000000000000000000000000000000000000000000008152600401610b2a9061134b565b60405180910390fd5b8181610b3f91906114d3565b6000808673ffffffffffffffffffffffffffffffffffffffff1673ffffffffffffffffffffffffffffffffffffffff16815260200190815260200160002081905550816000808573ffffffffffffffffffffffffffffffffffffffff1673ffffffffffffffffffffffffffffffffffffffff1681526020019081526020016000206000828254610bcf919061147d565b925050819055508273ffffffffffffffffffffffffffffffffffffffff168473ffffffffffffffffffffffffffffffffffffffff167fddf252ad1be2c89b69c2b068fc378daa952ba7f163c4a11628f55a4df523b3ef84604051610c33919061142b565b60405180910390a350505050565b610c4961049a565b81610c52610386565b610c5c919061147d565b1115610c9d576040517f08c379a0000000000000000000000000000000000000000000000000000000008152600401610c94906113ab565b60405180910390fd5b610ca78282610cb0565b5050565b505050565b600073ffffffffffffffffffffffffffffffffffffffff168273ffffffffffffffffffffffffffffffffffffffff161415610d20576040517f08c379a0000000000000000000000000000000000000000000000000000000008152600401610d179061140b565b60405180910390fd5b610d2c60008383610cab565b8060026000828254610d3e919061147d565b92505081905550806000808473ffffffffffffffffffffffffffffffffffffffff1673ffffffffffffffffffffffffffffffffffffffff1681526020019081526020016000206000828254610d93919061147d565b925050819055508173ffffffffffffffffffffffffffffffffffffffff16600073ffffffffffffffffffffffffffffffffffffffff167fddf252ad1be2c89b69c2b068fc378daa952ba7f163c4a11628f55a4df523b3ef83604051610df8919061142b565b60405180910390a35050565b600081359050610e1381611630565b92915050565b600081359050610e2881611647565b92915050565b600060208284031215610e4057600080fd5b6000610e4e84828501610e04565b91505092915050565b60008060408385031215610e6a57600080fd5b6000610e7885828601610e04565b9250506020610e8985828601610e04565b9150509250929050565b600080600060608486031215610ea857600080fd5b6000610eb686828701610e04565b9350506020610ec786828701610e04565b9250506040610ed886828701610e19565b9150509250925092565b60008060408385031215610ef557600080fd5b6000610f0385828601610e04565b9250506020610f1485828601610e19565b9150509250929050565b610f2781611519565b82525050565b6000610f3882611461565b610f42818561146c565b9350610f5281856020860161155c565b610f5b8161161f565b840191505092915050565b6000610f7360238361146c565b91507f45524332303a207472616e7366657220746f20746865207a65726f206164647260008301527f65737300000000000000000000000000000000000000000000000000000000006020830152604082019050919050565b6000610fd960228361146c565b91507f45524332303a20617070726f766520746f20746865207a65726f20616464726560008301527f73730000000000000000000000000000000000000000000000000000000000006020830152604082019050919050565b600061103f60268361146c565b91507f45524332303a207472616e7366657220616d6f756e742065786365656473206260008301527f616c616e636500000000000000000000000000000000000000000000000000006020830152604082019050919050565b60006110a560288361146c565b91507f45524332303a207472616e7366657220616d6f756e742065786365656473206160008301527f6c6c6f77616e63650000000000000000000000000000000000000000000000006020830152604082019050919050565b600061110b60258361146c565b91507f45524332303a207472616e736665722066726f6d20746865207a65726f20616460008301527f64726573730000000000000000000000000000000000000000000000000000006020830152604082019050919050565b600061117160198361146c565b91507f45524332304361707065643a20636170206578636565646564000000000000006000830152602082019050919050565b60006111b160248361146c565b91507f45524332303a20617070726f76652066726f6d20746865207a65726f2061646460008301527f72657373000000000000000000000000000000000000000000000000000000006020830152604082019050919050565b600061121760258361146c565b91507f45524332303a2064656372656173656420616c6c6f77616e63652062656c6f7760008301527f207a65726f0000000000000000000000000000000000000000000000000000006020830152604082019050919050565b600061127d601f8361146c565b91507f45524332303a206d696e7420746f20746865207a65726f2061646472657373006000830152602082019050919050565b6112b981611545565b82525050565b6112c88161154f565b82525050565b60006020820190506112e36000830184610f1e565b92915050565b600060208201905081810360008301526113038184610f2d565b905092915050565b6000602082019050818103600083015261132481610f66565b9050919050565b6000602082019050818103600083015261134481610fcc565b9050919050565b6000602082019050818103600083015261136481611032565b9050919050565b6000602082019050818103600083015261138481611098565b9050919050565b600060208201905081810360008301526113a4816110fe565b9050919050565b600060208201905081810360008301526113c481611164565b9050919050565b600060208201905081810360008301526113e4816111a4565b9050919050565b600060208201905081810360008301526114048161120a565b9050919050565b6000602082019050818103600083015261142481611270565b9050919050565b600060208201905061144060008301846112b0565b92915050565b600060208201905061145b60008301846112bf565b92915050565b600081519050919050565b600082825260208201905092915050565b600061148882611545565b915061149383611545565b9250827fffffffffffffffffffffffffffffffffffffffffffffffffffffffffffffffff038211156114c8576114c76115c1565b5b828201905092915050565b60006114de82611545565b91506114e983611545565b9250828210156114fc576114fb6115c1565b5b828203905092915050565b600061151282611525565b9050919050565b60008115159050919050565b600073ffffffffffffffffffffffffffffffffffffffff82169050919050565b6000819050919050565b600060ff82169050919050565b60005b8381101561157a57808201518184015260208101905061155f565b83811115611589576000848401525b50505050565b600060028204905060018216806115a757607f821691505b602082108114156115bb576115ba6115f0565b5b50919050565b7f4e487b7100000000000000000000000000000000000000000000000000000000600052601160045260246000fd5b7f4e487b7100000000000000000000000000000000000000000000000000000000600052602260045260246000fd5b6000601f19601f8301169050919050565b61163981611507565b811461164457600080fd5b50565b61165081611545565b811461165b57600080fd5b5056fea2646970667358221220be41a2cd02bffa21450d81660fdf3607809f2447fdde2c63a154f5d5829570ed64736f6c63430008000033",
  "immutableReferences": {
    "11311": [
      {
        "length": 32,
        "start": 1182
      }
    ]
  },
  "source": "// SPDX-License-Identifier: MIT\n\npragma solidity ^0.8.0;\n\nimport \"../token/ERC20/extensions/ERC20Capped.sol\";\n\ncontract ERC20CappedMock is ERC20Capped {\n    constructor (string memory name, string memory symbol, uint256 cap)\n        ERC20(name, symbol) ERC20Capped(cap)\n    { }\n\n    function mint(address to, uint256 tokenId) public {\n        _mint(to, tokenId);\n    }\n}\n",
  "sourcePath": "/Users/jaredborders/Documents/Work/Blockchain/Truffle-2X/contracts/openzeppelin-solidity/contracts/mocks/ERC20CappedMock.sol",
  "compiler": {
    "name": "solc",
    "version": "0.8.0+commit.c7dfd78e.Emscripten.clang"
  },
  "schemaVersion": "3.3.4",
  "updatedAt": "2021-04-16T22:50:40.329Z",
  "devdoc": {
    "kind": "dev",
    "methods": {
      "allowance(address,address)": {
        "details": "See {IERC20-allowance}."
      },
      "approve(address,uint256)": {
        "details": "See {IERC20-approve}. Requirements: - `spender` cannot be the zero address."
      },
      "balanceOf(address)": {
        "details": "See {IERC20-balanceOf}."
      },
      "cap()": {
        "details": "Returns the cap on the token's total supply."
      },
      "decimals()": {
        "details": "Returns the number of decimals used to get its user representation. For example, if `decimals` equals `2`, a balance of `505` tokens should be displayed to a user as `5,05` (`505 / 10 ** 2`). Tokens usually opt for a value of 18, imitating the relationship between Ether and Wei. This is the value {ERC20} uses, unless this function is overridden; NOTE: This information is only used for _display_ purposes: it in no way affects any of the arithmetic of the contract, including {IERC20-balanceOf} and {IERC20-transfer}."
      },
      "decreaseAllowance(address,uint256)": {
        "details": "Atomically decreases the allowance granted to `spender` by the caller. This is an alternative to {approve} that can be used as a mitigation for problems described in {IERC20-approve}. Emits an {Approval} event indicating the updated allowance. Requirements: - `spender` cannot be the zero address. - `spender` must have allowance for the caller of at least `subtractedValue`."
      },
      "increaseAllowance(address,uint256)": {
        "details": "Atomically increases the allowance granted to `spender` by the caller. This is an alternative to {approve} that can be used as a mitigation for problems described in {IERC20-approve}. Emits an {Approval} event indicating the updated allowance. Requirements: - `spender` cannot be the zero address."
      },
      "name()": {
        "details": "Returns the name of the token."
      },
      "symbol()": {
        "details": "Returns the symbol of the token, usually a shorter version of the name."
      },
      "totalSupply()": {
        "details": "See {IERC20-totalSupply}."
      },
      "transfer(address,uint256)": {
        "details": "See {IERC20-transfer}. Requirements: - `recipient` cannot be the zero address. - the caller must have a balance of at least `amount`."
      },
      "transferFrom(address,address,uint256)": {
        "details": "See {IERC20-transferFrom}. Emits an {Approval} event indicating the updated allowance. This is not required by the EIP. See the note at the beginning of {ERC20}. Requirements: - `sender` and `recipient` cannot be the zero address. - `sender` must have a balance of at least `amount`. - the caller must have allowance for ``sender``'s tokens of at least `amount`."
      }
    },
    "version": 1
  },
  "userdoc": {
    "kind": "user",
    "methods": {},
    "version": 1
  }
}