{
  "contractName": "ERC721PausableMock",
  "abi": [
    {
      "inputs": [
        {
          "internalType": "string",
          "name": "name",
          "type": "string"
        },
        {
          "internalType": "string",
          "name": "symbol",
          "type": "string"
        }
      ],
      "stateMutability": "nonpayable",
      "type": "constructor"
    },
    {
      "anonymous": false,
      "inputs": [
        {
          "indexed": true,
          "internalType": "address",
          "name": "owner",
          "type": "address"
        },
        {
          "indexed": true,
          "internalType": "address",
          "name": "approved",
          "type": "address"
        },
        {
          "indexed": true,
          "internalType": "uint256",
          "name": "tokenId",
          "type": "uint256"
        }
      ],
      "name": "Approval",
      "type": "event"
    },
    {
      "anonymous": false,
      "inputs": [
        {
          "indexed": true,
          "internalType": "address",
          "name": "owner",
          "type": "address"
        },
        {
          "indexed": true,
          "internalType": "address",
          "name": "operator",
          "type": "address"
        },
        {
          "indexed": false,
          "internalType": "bool",
          "name": "approved",
          "type": "bool"
        }
      ],
      "name": "ApprovalForAll",
      "type": "event"
    },
    {
      "anonymous": false,
      "inputs": [
        {
          "indexed": false,
          "internalType": "address",
          "name": "account",
          "type": "address"
        }
      ],
      "name": "Paused",
      "type": "event"
    },
    {
      "anonymous": false,
      "inputs": [
        {
          "indexed": true,
          "internalType": "address",
          "name": "from",
          "type": "address"
        },
        {
          "indexed": true,
          "internalType": "address",
          "name": "to",
          "type": "address"
        },
        {
          "indexed": true,
          "internalType": "uint256",
          "name": "tokenId",
          "type": "uint256"
        }
      ],
      "name": "Transfer",
      "type": "event"
    },
    {
      "anonymous": false,
      "inputs": [
        {
          "indexed": false,
          "internalType": "address",
          "name": "account",
          "type": "address"
        }
      ],
      "name": "Unpaused",
      "type": "event"
    },
    {
      "inputs": [
        {
          "internalType": "address",
          "name": "to",
          "type": "address"
        },
        {
          "internalType": "uint256",
          "name": "tokenId",
          "type": "uint256"
        }
      ],
      "name": "approve",
      "outputs": [],
      "stateMutability": "nonpayable",
      "type": "function"
    },
    {
      "inputs": [
        {
          "internalType": "address",
          "name": "owner",
          "type": "address"
        }
      ],
      "name": "balanceOf",
      "outputs": [
        {
          "internalType": "uint256",
          "name": "",
          "type": "uint256"
        }
      ],
      "stateMutability": "view",
      "type": "function"
    },
    {
      "inputs": [
        {
          "internalType": "uint256",
          "name": "tokenId",
          "type": "uint256"
        }
      ],
      "name": "getApproved",
      "outputs": [
        {
          "internalType": "address",
          "name": "",
          "type": "address"
        }
      ],
      "stateMutability": "view",
      "type": "function"
    },
    {
      "inputs": [
        {
          "internalType": "address",
          "name": "owner",
          "type": "address"
        },
        {
          "internalType": "address",
          "name": "operator",
          "type": "address"
        }
      ],
      "name": "isApprovedForAll",
      "outputs": [
        {
          "internalType": "bool",
          "name": "",
          "type": "bool"
        }
      ],
      "stateMutability": "view",
      "type": "function"
    },
    {
      "inputs": [],
      "name": "name",
      "outputs": [
        {
          "internalType": "string",
          "name": "",
          "type": "string"
        }
      ],
      "stateMutability": "view",
      "type": "function"
    },
    {
      "inputs": [
        {
          "internalType": "uint256",
          "name": "tokenId",
          "type": "uint256"
        }
      ],
      "name": "ownerOf",
      "outputs": [
        {
          "internalType": "address",
          "name": "",
          "type": "address"
        }
      ],
      "stateMutability": "view",
      "type": "function"
    },
    {
      "inputs": [],
      "name": "paused",
      "outputs": [
        {
          "internalType": "bool",
          "name": "",
          "type": "bool"
        }
      ],
      "stateMutability": "view",
      "type": "function"
    },
    {
      "inputs": [
        {
          "internalType": "address",
          "name": "from",
          "type": "address"
        },
        {
          "internalType": "address",
          "name": "to",
          "type": "address"
        },
        {
          "internalType": "uint256",
          "name": "tokenId",
          "type": "uint256"
        }
      ],
      "name": "safeTransferFrom",
      "outputs": [],
      "stateMutability": "nonpayable",
      "type": "function"
    },
    {
      "inputs": [
        {
          "internalType": "address",
          "name": "from",
          "type": "address"
        },
        {
          "internalType": "address",
          "name": "to",
          "type": "address"
        },
        {
          "internalType": "uint256",
          "name": "tokenId",
          "type": "uint256"
        },
        {
          "internalType": "bytes",
          "name": "_data",
          "type": "bytes"
        }
      ],
      "name": "safeTransferFrom",
      "outputs": [],
      "stateMutability": "nonpayable",
      "type": "function"
    },
    {
      "inputs": [
        {
          "internalType": "address",
          "name": "operator",
          "type": "address"
        },
        {
          "internalType": "bool",
          "name": "approved",
          "type": "bool"
        }
      ],
      "name": "setApprovalForAll",
      "outputs": [],
      "stateMutability": "nonpayable",
      "type": "function"
    },
    {
      "inputs": [
        {
          "internalType": "bytes4",
          "name": "interfaceId",
          "type": "bytes4"
        }
      ],
      "name": "supportsInterface",
      "outputs": [
        {
          "internalType": "bool",
          "name": "",
          "type": "bool"
        }
      ],
      "stateMutability": "view",
      "type": "function"
    },
    {
      "inputs": [],
      "name": "symbol",
      "outputs": [
        {
          "internalType": "string",
          "name": "",
          "type": "string"
        }
      ],
      "stateMutability": "view",
      "type": "function"
    },
    {
      "inputs": [
        {
          "internalType": "uint256",
          "name": "tokenId",
          "type": "uint256"
        }
      ],
      "name": "tokenURI",
      "outputs": [
        {
          "internalType": "string",
          "name": "",
          "type": "string"
        }
      ],
      "stateMutability": "view",
      "type": "function"
    },
    {
      "inputs": [
        {
          "internalType": "address",
          "name": "from",
          "type": "address"
        },
        {
          "internalType": "address",
          "name": "to",
          "type": "address"
        },
        {
          "internalType": "uint256",
          "name": "tokenId",
          "type": "uint256"
        }
      ],
      "name": "transferFrom",
      "outputs": [],
      "stateMutability": "nonpayable",
      "type": "function"
    },
    {
      "inputs": [],
      "name": "pause",
      "outputs": [],
      "stateMutability": "nonpayable",
      "type": "function"
    },
    {
      "inputs": [],
      "name": "unpause",
      "outputs": [],
      "stateMutability": "nonpayable",
      "type": "function"
    },
    {
      "inputs": [
        {
          "internalType": "uint256",
          "name": "tokenId",
          "type": "uint256"
        }
      ],
      "name": "exists",
      "outputs": [
        {
          "internalType": "bool",
          "name": "",
          "type": "bool"
        }
      ],
      "stateMutability": "view",
      "type": "function"
    },
    {
      "inputs": [
        {
          "internalType": "address",
          "name": "to",
          "type": "address"
        },
        {
          "internalType": "uint256",
          "name": "tokenId",
          "type": "uint256"
        }
      ],
      "name": "mint",
      "outputs": [],
      "stateMutability": "nonpayable",
      "type": "function"
    },
    {
      "inputs": [
        {
          "internalType": "address",
          "name": "to",
          "type": "address"
        },
        {
          "internalType": "uint256",
          "name": "tokenId",
          "type": "uint256"
        },
        {
          "internalType": "bytes",
          "name": "_data",
          "type": "bytes"
        }
      ],
      "name": "safeMint",
      "outputs": [],
      "stateMutability": "nonpayable",
      "type": "function"
    },
    {
      "inputs": [
        {
          "internalType": "address",
          "name": "to",
          "type": "address"
        },
        {
          "internalType": "uint256",
          "name": "tokenId",
          "type": "uint256"
        }
      ],
      "name": "safeMint",
      "outputs": [],
      "stateMutability": "nonpayable",
      "type": "function"
    },
    {
      "inputs": [
        {
          "internalType": "uint256",
          "name": "tokenId",
          "type": "uint256"
        }
      ],
      "name": "burn",
      "outputs": [],
      "stateMutability": "nonpayable",
      "type": "function"
    }
  ],
  "bytecode": "0x60806040523480156200001157600080fd5b5060405162002f6638038062002f668339818101604052810190620000379190620001b2565b818181600090805190602001906200005192919062000090565b5080600190805190602001906200006a92919062000090565b5050506000600660006101000a81548160ff021916908315150217905550505062000356565b8280546200009e90620002c2565b90600052602060002090601f016020900481019282620000c257600085556200010e565b82601f10620000dd57805160ff19168380011785556200010e565b828001600101855582156200010e579182015b828111156200010d578251825591602001919060010190620000f0565b5b5090506200011d919062000121565b5090565b5b808211156200013c57600081600090555060010162000122565b5090565b600062000157620001518462000259565b62000225565b9050828152602081018484840111156200017057600080fd5b6200017d8482856200028c565b509392505050565b600082601f8301126200019757600080fd5b8151620001a984826020860162000140565b91505092915050565b60008060408385031215620001c657600080fd5b600083015167ffffffffffffffff811115620001e157600080fd5b620001ef8582860162000185565b925050602083015167ffffffffffffffff8111156200020d57600080fd5b6200021b8582860162000185565b9150509250929050565b6000604051905081810181811067ffffffffffffffff821117156200024f576200024e62000327565b5b8060405250919050565b600067ffffffffffffffff82111562000277576200027662000327565b5b601f19601f8301169050602081019050919050565b60005b83811015620002ac5780820151818401526020810190506200028f565b83811115620002bc576000848401525b50505050565b60006002820490506001821680620002db57607f821691505b60208210811415620002f257620002f1620002f8565b5b50919050565b7f4e487b7100000000000000000000000000000000000000000000000000000000600052602260045260246000fd5b7f4e487b7100000000000000000000000000000000000000000000000000000000600052604160045260246000fd5b612c0080620003666000396000f3fe608060405234801561001057600080fd5b50600436106101375760003560e01c80635c975abb116100b857806395d89b411161007c57806395d89b4114610324578063a144819414610342578063a22cb4651461035e578063b88d4fde1461037a578063c87b56dd14610396578063e985e9c5146103c657610137565b80635c975abb146102805780636352211e1461029e57806370a08231146102ce5780638456cb59146102fe5780638832e6e31461030857610137565b80633f4ba83a116100ff5780633f4ba83a146101f257806340c10f19146101fc57806342842e0e1461021857806342966c68146102345780634f558e791461025057610137565b806301ffc9a71461013c57806306fdde031461016c578063081812fc1461018a578063095ea7b3146101ba57806323b872dd146101d6575b600080fd5b61015660048036038101906101519190611d8a565b6103f6565b6040516101639190612568565b60405180910390f35b6101746104d8565b6040516101819190612583565b60405180910390f35b6101a4600480360381019061019f9190611ddc565b61056a565b6040516101b19190612501565b60405180910390f35b6101d460048036038101906101cf9190611ce7565b6105ef565b005b6101f060048036038101906101eb9190611be1565b610707565b005b6101fa610767565b005b61021660048036038101906102119190611ce7565b610771565b005b610232600480360381019061022d9190611be1565b61077f565b005b61024e60048036038101906102499190611ddc565b61079f565b005b61026a60048036038101906102659190611ddc565b6107ab565b6040516102779190612568565b60405180910390f35b6102886107bd565b6040516102959190612568565b60405180910390f35b6102b860048036038101906102b39190611ddc565b6107d4565b6040516102c59190612501565b60405180910390f35b6102e860048036038101906102e39190611b7c565b610886565b6040516102f591906127c5565b60405180910390f35b61030661093e565b005b610322600480360381019061031d9190611d23565b610948565b005b61032c610958565b6040516103399190612583565b60405180910390f35b61035c60048036038101906103579190611ce7565b6109ea565b005b61037860048036038101906103739190611cab565b6109f8565b005b610394600480360381019061038f9190611c30565b610b79565b005b6103b060048036038101906103ab9190611ddc565b610bdb565b6040516103bd9190612583565b60405180910390f35b6103e060048036038101906103db9190611ba5565b610c82565b6040516103ed9190612568565b60405180910390f35b60007f80ac58cd000000000000000000000000000000000000000000000000000000007bffffffffffffffffffffffffffffffffffffffffffffffffffffffff1916827bffffffffffffffffffffffffffffffffffffffffffffffffffffffff191614806104c157507f5b5e139f000000000000000000000000000000000000000000000000000000007bffffffffffffffffffffffffffffffffffffffffffffffffffffffff1916827bffffffffffffffffffffffffffffffffffffffffffffffffffffffff1916145b806104d157506104d082610d16565b5b9050919050565b6060600080546104e7906129f5565b80601f0160208091040260200160405190810160405280929190818152602001828054610513906129f5565b80156105605780601f1061053557610100808354040283529160200191610560565b820191906000526020600020905b81548152906001019060200180831161054357829003601f168201915b5050505050905090565b600061057582610d80565b6105b4576040517f08c379a00000000000000000000000000000000000000000000000000000000081526004016105ab90612725565b60405180910390fd5b6004600083815260200190815260200160002060009054906101000a900473ffffffffffffffffffffffffffffffffffffffff169050919050565b60006105fa826107d4565b90508073ffffffffffffffffffffffffffffffffffffffff168373ffffffffffffffffffffffffffffffffffffffff16141561066b576040517f08c379a000000000000000000000000000000000000000000000000000000000815260040161066290612785565b60405180910390fd5b8073ffffffffffffffffffffffffffffffffffffffff1661068a610dec565b73ffffffffffffffffffffffffffffffffffffffff1614806106b957506106b8816106b3610dec565b610c82565b5b6106f8576040517f08c379a00000000000000000000000000000000000000000000000000000000081526004016106ef906126a5565b60405180910390fd5b6107028383610df4565b505050565b610718610712610dec565b82610ead565b610757576040517f08c379a000000000000000000000000000000000000000000000000000000000815260040161074e906127a5565b60405180910390fd5b610762838383610f8b565b505050565b61076f6111e7565b565b61077b8282611289565b5050565b61079a83838360405180602001604052806000815250610b79565b505050565b6107a881611457565b50565b60006107b682610d80565b9050919050565b6000600660009054906101000a900460ff16905090565b6000806002600084815260200190815260200160002060009054906101000a900473ffffffffffffffffffffffffffffffffffffffff169050600073ffffffffffffffffffffffffffffffffffffffff168173ffffffffffffffffffffffffffffffffffffffff16141561087d576040517f08c379a0000000000000000000000000000000000000000000000000000000008152600401610874906126e5565b60405180910390fd5b80915050919050565b60008073ffffffffffffffffffffffffffffffffffffffff168273ffffffffffffffffffffffffffffffffffffffff1614156108f7576040517f08c379a00000000000000000000000000000000000000000000000000000000081526004016108ee906126c5565b60405180910390fd5b600360008373ffffffffffffffffffffffffffffffffffffffff1673ffffffffffffffffffffffffffffffffffffffff168152602001908152602001600020549050919050565b610946611568565b565b61095383838361160b565b505050565b606060018054610967906129f5565b80601f0160208091040260200160405190810160405280929190818152602001828054610993906129f5565b80156109e05780601f106109b5576101008083540402835291602001916109e0565b820191906000526020600020905b8154815290600101906020018083116109c357829003601f168201915b5050505050905090565b6109f48282611666565b5050565b610a00610dec565b73ffffffffffffffffffffffffffffffffffffffff168273ffffffffffffffffffffffffffffffffffffffff161415610a6e576040517f08c379a0000000000000000000000000000000000000000000000000000000008152600401610a6590612645565b60405180910390fd5b8060056000610a7b610dec565b73ffffffffffffffffffffffffffffffffffffffff1673ffffffffffffffffffffffffffffffffffffffff16815260200190815260200160002060008473ffffffffffffffffffffffffffffffffffffffff1673ffffffffffffffffffffffffffffffffffffffff16815260200190815260200160002060006101000a81548160ff0219169083151502179055508173ffffffffffffffffffffffffffffffffffffffff16610b28610dec565b73ffffffffffffffffffffffffffffffffffffffff167f17307eab39ab6107e8899845ad3d59bd9653f200f220920489ca2b5937696c3183604051610b6d9190612568565b60405180910390a35050565b610b8a610b84610dec565b83610ead565b610bc9576040517f08c379a0000000000000000000000000000000000000000000000000000000008152600401610bc0906127a5565b60405180910390fd5b610bd584848484611684565b50505050565b6060610be682610d80565b610c25576040517f08c379a0000000000000000000000000000000000000000000000000000000008152600401610c1c90612765565b60405180910390fd5b6000610c2f6116e0565b90506000815111610c4f5760405180602001604052806000815250610c7a565b80610c59846116f7565b604051602001610c6a9291906124dd565b6040516020818303038152906040525b915050919050565b6000600560008473ffffffffffffffffffffffffffffffffffffffff1673ffffffffffffffffffffffffffffffffffffffff16815260200190815260200160002060008373ffffffffffffffffffffffffffffffffffffffff1673ffffffffffffffffffffffffffffffffffffffff16815260200190815260200160002060009054906101000a900460ff16905092915050565b60007f01ffc9a7000000000000000000000000000000000000000000000000000000007bffffffffffffffffffffffffffffffffffffffffffffffffffffffff1916827bffffffffffffffffffffffffffffffffffffffffffffffffffffffff1916149050919050565b60008073ffffffffffffffffffffffffffffffffffffffff166002600084815260200190815260200160002060009054906101000a900473ffffffffffffffffffffffffffffffffffffffff1673ffffffffffffffffffffffffffffffffffffffff1614159050919050565b600033905090565b816004600083815260200190815260200160002060006101000a81548173ffffffffffffffffffffffffffffffffffffffff021916908373ffffffffffffffffffffffffffffffffffffffff160217905550808273ffffffffffffffffffffffffffffffffffffffff16610e67836107d4565b73ffffffffffffffffffffffffffffffffffffffff167f8c5be1e5ebec7d5bd14f71427d1e84f3dd0314c0f7b2291e5b200ac8c7c3b92560405160405180910390a45050565b6000610eb882610d80565b610ef7576040517f08c379a0000000000000000000000000000000000000000000000000000000008152600401610eee90612665565b60405180910390fd5b6000610f02836107d4565b90508073ffffffffffffffffffffffffffffffffffffffff168473ffffffffffffffffffffffffffffffffffffffff161480610f7157508373ffffffffffffffffffffffffffffffffffffffff16610f598461056a565b73ffffffffffffffffffffffffffffffffffffffff16145b80610f825750610f818185610c82565b5b91505092915050565b8273ffffffffffffffffffffffffffffffffffffffff16610fab826107d4565b73ffffffffffffffffffffffffffffffffffffffff1614611001576040517f08c379a0000000000000000000000000000000000000000000000000000000008152600401610ff890612745565b60405180910390fd5b600073ffffffffffffffffffffffffffffffffffffffff168273ffffffffffffffffffffffffffffffffffffffff161415611071576040517f08c379a000000000000000000000000000000000000000000000000000000000815260040161106890612625565b60405180910390fd5b61107c8383836118a4565b611087600082610df4565b6001600360008573ffffffffffffffffffffffffffffffffffffffff1673ffffffffffffffffffffffffffffffffffffffff16815260200190815260200160002060008282546110d7919061290b565b925050819055506001600360008473ffffffffffffffffffffffffffffffffffffffff1673ffffffffffffffffffffffffffffffffffffffff168152602001908152602001600020600082825461112e9190612884565b92505081905550816002600083815260200190815260200160002060006101000a81548173ffffffffffffffffffffffffffffffffffffffff021916908373ffffffffffffffffffffffffffffffffffffffff160217905550808273ffffffffffffffffffffffffffffffffffffffff168473ffffffffffffffffffffffffffffffffffffffff167fddf252ad1be2c89b69c2b068fc378daa952ba7f163c4a11628f55a4df523b3ef60405160405180910390a4505050565b6111ef6107bd565b61122e576040517f08c379a0000000000000000000000000000000000000000000000000000000008152600401611225906125c5565b60405180910390fd5b6000600660006101000a81548160ff0219169083151502179055507f5db9ee0a495bf2e6ff9c91a7834c1ba4fdd244a5e8aa4e537bd38aeae4b073aa611272610dec565b60405161127f9190612501565b60405180910390a1565b600073ffffffffffffffffffffffffffffffffffffffff168273ffffffffffffffffffffffffffffffffffffffff1614156112f9576040517f08c379a00000000000000000000000000000000000000000000000000000000081526004016112f090612705565b60405180910390fd5b61130281610d80565b15611342576040517f08c379a000000000000000000000000000000000000000000000000000000000815260040161133990612605565b60405180910390fd5b61134e600083836118a4565b6001600360008473ffffffffffffffffffffffffffffffffffffffff1673ffffffffffffffffffffffffffffffffffffffff168152602001908152602001600020600082825461139e9190612884565b92505081905550816002600083815260200190815260200160002060006101000a81548173ffffffffffffffffffffffffffffffffffffffff021916908373ffffffffffffffffffffffffffffffffffffffff160217905550808273ffffffffffffffffffffffffffffffffffffffff16600073ffffffffffffffffffffffffffffffffffffffff167fddf252ad1be2c89b69c2b068fc378daa952ba7f163c4a11628f55a4df523b3ef60405160405180910390a45050565b6000611462826107d4565b9050611470816000846118a4565b61147b600083610df4565b6001600360008373ffffffffffffffffffffffffffffffffffffffff1673ffffffffffffffffffffffffffffffffffffffff16815260200190815260200160002060008282546114cb919061290b565b925050819055506002600083815260200190815260200160002060006101000a81549073ffffffffffffffffffffffffffffffffffffffff021916905581600073ffffffffffffffffffffffffffffffffffffffff168273ffffffffffffffffffffffffffffffffffffffff167fddf252ad1be2c89b69c2b068fc378daa952ba7f163c4a11628f55a4df523b3ef60405160405180910390a45050565b6115706107bd565b156115b0576040517f08c379a00000000000000000000000000000000000000000000000000000000081526004016115a790612685565b60405180910390fd5b6001600660006101000a81548160ff0219169083151502179055507f62e78cea01bee320cd4e420270b5ea74000d11b0c9f74754ebdbfc544b05a2586115f4610dec565b6040516116019190612501565b60405180910390a1565b6116158383611289565b61162260008484846118fc565b611661576040517f08c379a0000000000000000000000000000000000000000000000000000000008152600401611658906125e5565b60405180910390fd5b505050565b61168082826040518060200160405280600081525061160b565b5050565b61168f848484610f8b565b61169b848484846118fc565b6116da576040517f08c379a00000000000000000000000000000000000000000000000000000000081526004016116d1906125e5565b60405180910390fd5b50505050565b606060405180602001604052806000815250905090565b6060600082141561173f576040518060400160405280600181526020017f3000000000000000000000000000000000000000000000000000000000000000815250905061189f565b600082905060005b6000821461177157808061175a90612a27565b915050600a8261176a91906128da565b9150611747565b60008167ffffffffffffffff8111156117b3577f4e487b7100000000000000000000000000000000000000000000000000000000600052604160045260246000fd5b6040519080825280601f01601f1916602001820160405280156117e55781602001600182028036833780820191505090505b5090505b60008514611898576001826117fe919061290b565b9150600a8561180d9190612a70565b60306118199190612884565b60f81b818381518110611855577f4e487b7100000000000000000000000000000000000000000000000000000000600052603260045260246000fd5b60200101907effffffffffffffffffffffffffffffffffffffffffffffffffffffffffffff1916908160001a905350600a8561189191906128da565b94506117e9565b8093505050505b919050565b6118af838383611a93565b6118b76107bd565b156118f7576040517f08c379a00000000000000000000000000000000000000000000000000000000081526004016118ee906125a5565b60405180910390fd5b505050565b600061191d8473ffffffffffffffffffffffffffffffffffffffff16611a98565b15611a86578373ffffffffffffffffffffffffffffffffffffffff1663150b7a02611946610dec565b8786866040518563ffffffff1660e01b8152600401611968949392919061251c565b602060405180830381600087803b15801561198257600080fd5b505af19250505080156119b357506040513d601f19601f820116820180604052508101906119b09190611db3565b60015b611a36573d80600081146119e3576040519150601f19603f3d011682016040523d82523d6000602084013e6119e8565b606091505b50600081511415611a2e576040517f08c379a0000000000000000000000000000000000000000000000000000000008152600401611a25906125e5565b60405180910390fd5b805181602001fd5b63150b7a0260e01b7bffffffffffffffffffffffffffffffffffffffffffffffffffffffff1916817bffffffffffffffffffffffffffffffffffffffffffffffffffffffff191614915050611a8b565b600190505b949350505050565b505050565b600080823b905060008111915050919050565b6000611abe611ab984612811565b6127e0565b905082815260208101848484011115611ad657600080fd5b611ae18482856129b3565b509392505050565b600081359050611af881612b6e565b92915050565b600081359050611b0d81612b85565b92915050565b600081359050611b2281612b9c565b92915050565b600081519050611b3781612b9c565b92915050565b600082601f830112611b4e57600080fd5b8135611b5e848260208601611aab565b91505092915050565b600081359050611b7681612bb3565b92915050565b600060208284031215611b8e57600080fd5b6000611b9c84828501611ae9565b91505092915050565b60008060408385031215611bb857600080fd5b6000611bc685828601611ae9565b9250506020611bd785828601611ae9565b9150509250929050565b600080600060608486031215611bf657600080fd5b6000611c0486828701611ae9565b9350506020611c1586828701611ae9565b9250506040611c2686828701611b67565b9150509250925092565b60008060008060808587031215611c4657600080fd5b6000611c5487828801611ae9565b9450506020611c6587828801611ae9565b9350506040611c7687828801611b67565b925050606085013567ffffffffffffffff811115611c9357600080fd5b611c9f87828801611b3d565b91505092959194509250565b60008060408385031215611cbe57600080fd5b6000611ccc85828601611ae9565b9250506020611cdd85828601611afe565b9150509250929050565b60008060408385031215611cfa57600080fd5b6000611d0885828601611ae9565b9250506020611d1985828601611b67565b9150509250929050565b600080600060608486031215611d3857600080fd5b6000611d4686828701611ae9565b9350506020611d5786828701611b67565b925050604084013567ffffffffffffffff811115611d7457600080fd5b611d8086828701611b3d565b9150509250925092565b600060208284031215611d9c57600080fd5b6000611daa84828501611b13565b91505092915050565b600060208284031215611dc557600080fd5b6000611dd384828501611b28565b91505092915050565b600060208284031215611dee57600080fd5b6000611dfc84828501611b67565b91505092915050565b611e0e8161293f565b82525050565b611e1d81612951565b82525050565b6000611e2e82612841565b611e388185612857565b9350611e488185602086016129c2565b611e5181612b5d565b840191505092915050565b6000611e678261284c565b611e718185612868565b9350611e818185602086016129c2565b611e8a81612b5d565b840191505092915050565b6000611ea08261284c565b611eaa8185612879565b9350611eba8185602086016129c2565b80840191505092915050565b6000611ed3602b83612868565b91507f4552433732315061757361626c653a20746f6b656e207472616e73666572207760008301527f68696c65207061757365640000000000000000000000000000000000000000006020830152604082019050919050565b6000611f39601483612868565b91507f5061757361626c653a206e6f74207061757365640000000000000000000000006000830152602082019050919050565b6000611f79603283612868565b91507f4552433732313a207472616e7366657220746f206e6f6e20455243373231526560008301527f63656976657220696d706c656d656e74657200000000000000000000000000006020830152604082019050919050565b6000611fdf601c83612868565b91507f4552433732313a20746f6b656e20616c7265616479206d696e746564000000006000830152602082019050919050565b600061201f602483612868565b91507f4552433732313a207472616e7366657220746f20746865207a65726f2061646460008301527f72657373000000000000000000000000000000000000000000000000000000006020830152604082019050919050565b6000612085601983612868565b91507f4552433732313a20617070726f766520746f2063616c6c6572000000000000006000830152602082019050919050565b60006120c5602c83612868565b91507f4552433732313a206f70657261746f7220717565727920666f72206e6f6e657860008301527f697374656e7420746f6b656e00000000000000000000000000000000000000006020830152604082019050919050565b600061212b601083612868565b91507f5061757361626c653a20706175736564000000000000000000000000000000006000830152602082019050919050565b600061216b603883612868565b91507f4552433732313a20617070726f76652063616c6c6572206973206e6f74206f7760008301527f6e6572206e6f7220617070726f76656420666f7220616c6c00000000000000006020830152604082019050919050565b60006121d1602a83612868565b91507f4552433732313a2062616c616e636520717565727920666f7220746865207a6560008301527f726f2061646472657373000000000000000000000000000000000000000000006020830152604082019050919050565b6000612237602983612868565b91507f4552433732313a206f776e657220717565727920666f72206e6f6e657869737460008301527f656e7420746f6b656e00000000000000000000000000000000000000000000006020830152604082019050919050565b600061229d602083612868565b91507f4552433732313a206d696e7420746f20746865207a65726f20616464726573736000830152602082019050919050565b60006122dd602c83612868565b91507f4552433732313a20617070726f76656420717565727920666f72206e6f6e657860008301527f697374656e7420746f6b656e00000000000000000000000000000000000000006020830152604082019050919050565b6000612343602983612868565b91507f4552433732313a207472616e73666572206f6620746f6b656e2074686174206960008301527f73206e6f74206f776e00000000000000000000000000000000000000000000006020830152604082019050919050565b60006123a9602f83612868565b91507f4552433732314d657461646174613a2055524920717565727920666f72206e6f60008301527f6e6578697374656e7420746f6b656e00000000000000000000000000000000006020830152604082019050919050565b600061240f602183612868565b91507f4552433732313a20617070726f76616c20746f2063757272656e74206f776e6560008301527f72000000000000000000000000000000000000000000000000000000000000006020830152604082019050919050565b6000612475603183612868565b91507f4552433732313a207472616e736665722063616c6c6572206973206e6f74206f60008301527f776e6572206e6f7220617070726f7665640000000000000000000000000000006020830152604082019050919050565b6124d7816129a9565b82525050565b60006124e98285611e95565b91506124f58284611e95565b91508190509392505050565b60006020820190506125166000830184611e05565b92915050565b60006080820190506125316000830187611e05565b61253e6020830186611e05565b61254b60408301856124ce565b818103606083015261255d8184611e23565b905095945050505050565b600060208201905061257d6000830184611e14565b92915050565b6000602082019050818103600083015261259d8184611e5c565b905092915050565b600060208201905081810360008301526125be81611ec6565b9050919050565b600060208201905081810360008301526125de81611f2c565b9050919050565b600060208201905081810360008301526125fe81611f6c565b9050919050565b6000602082019050818103600083015261261e81611fd2565b9050919050565b6000602082019050818103600083015261263e81612012565b9050919050565b6000602082019050818103600083015261265e81612078565b9050919050565b6000602082019050818103600083015261267e816120b8565b9050919050565b6000602082019050818103600083015261269e8161211e565b9050919050565b600060208201905081810360008301526126be8161215e565b9050919050565b600060208201905081810360008301526126de816121c4565b9050919050565b600060208201905081810360008301526126fe8161222a565b9050919050565b6000602082019050818103600083015261271e81612290565b9050919050565b6000602082019050818103600083015261273e816122d0565b9050919050565b6000602082019050818103600083015261275e81612336565b9050919050565b6000602082019050818103600083015261277e8161239c565b9050919050565b6000602082019050818103600083015261279e81612402565b9050919050565b600060208201905081810360008301526127be81612468565b9050919050565b60006020820190506127da60008301846124ce565b92915050565b6000604051905081810181811067ffffffffffffffff8211171561280757612806612b2e565b5b8060405250919050565b600067ffffffffffffffff82111561282c5761282b612b2e565b5b601f19601f8301169050602081019050919050565b600081519050919050565b600081519050919050565b600082825260208201905092915050565b600082825260208201905092915050565b600081905092915050565b600061288f826129a9565b915061289a836129a9565b9250827fffffffffffffffffffffffffffffffffffffffffffffffffffffffffffffffff038211156128cf576128ce612aa1565b5b828201905092915050565b60006128e5826129a9565b91506128f0836129a9565b925082612900576128ff612ad0565b5b828204905092915050565b6000612916826129a9565b9150612921836129a9565b92508282101561293457612933612aa1565b5b828203905092915050565b600061294a82612989565b9050919050565b60008115159050919050565b60007fffffffff0000000000000000000000000000000000000000000000000000000082169050919050565b600073ffffffffffffffffffffffffffffffffffffffff82169050919050565b6000819050919050565b82818337600083830152505050565b60005b838110156129e05780820151818401526020810190506129c5565b838111156129ef576000848401525b50505050565b60006002820490506001821680612a0d57607f821691505b60208210811415612a2157612a20612aff565b5b50919050565b6000612a32826129a9565b91507fffffffffffffffffffffffffffffffffffffffffffffffffffffffffffffffff821415612a6557612a64612aa1565b5b600182019050919050565b6000612a7b826129a9565b9150612a86836129a9565b925082612a9657612a95612ad0565b5b828206905092915050565b7f4e487b7100000000000000000000000000000000000000000000000000000000600052601160045260246000fd5b7f4e487b7100000000000000000000000000000000000000000000000000000000600052601260045260246000fd5b7f4e487b7100000000000000000000000000000000000000000000000000000000600052602260045260246000fd5b7f4e487b7100000000000000000000000000000000000000000000000000000000600052604160045260246000fd5b6000601f19601f8301169050919050565b612b778161293f565b8114612b8257600080fd5b50565b612b8e81612951565b8114612b9957600080fd5b50565b612ba58161295d565b8114612bb057600080fd5b50565b612bbc816129a9565b8114612bc757600080fd5b5056fea2646970667358221220f3f32267e95ea6a29b47dcb062b73e9ecb4cfcfc1c5c1aff4a14a1bf6f9ead6f64736f6c63430008000033",
  "immutableReferences": {},
  "source": "// SPDX-License-Identifier: MIT\n\npragma solidity ^0.8.0;\n\nimport \"../token/ERC721/extensions/ERC721Pausable.sol\";\n\n/**\n * @title ERC721PausableMock\n * This mock just provides a public mint, burn and exists functions for testing purposes\n */\ncontract ERC721PausableMock is ERC721Pausable {\n    constructor (string memory name, string memory symbol) ERC721(name, symbol) { }\n\n    function pause() external {\n        _pause();\n    }\n\n    function unpause() external {\n        _unpause();\n    }\n\n    function exists(uint256 tokenId) public view returns (bool) {\n        return _exists(tokenId);\n    }\n\n    function mint(address to, uint256 tokenId) public {\n        _mint(to, tokenId);\n    }\n\n    function safeMint(address to, uint256 tokenId) public {\n        _safeMint(to, tokenId);\n    }\n\n    function safeMint(address to, uint256 tokenId, bytes memory _data) public {\n        _safeMint(to, tokenId, _data);\n    }\n\n    function burn(uint256 tokenId) public {\n        _burn(tokenId);\n    }\n}\n",
  "sourcePath": "/Users/jaredborders/Documents/Work/Blockchain/2X/contracts/openzeppelin-solidity/contracts/mocks/ERC721PausableMock.sol",
  "compiler": {
    "name": "solc",
    "version": "0.8.0+commit.c7dfd78e.Emscripten.clang"
  },
  "schemaVersion": "3.3.4",
  "updatedAt": "2021-04-21T17:54:48.069Z",
  "devdoc": {
    "kind": "dev",
    "methods": {
      "approve(address,uint256)": {
        "details": "See {IERC721-approve}."
      },
      "balanceOf(address)": {
        "details": "See {IERC721-balanceOf}."
      },
      "getApproved(uint256)": {
        "details": "See {IERC721-getApproved}."
      },
      "isApprovedForAll(address,address)": {
        "details": "See {IERC721-isApprovedForAll}."
      },
      "name()": {
        "details": "See {IERC721Metadata-name}."
      },
      "ownerOf(uint256)": {
        "details": "See {IERC721-ownerOf}."
      },
      "paused()": {
        "details": "Returns true if the contract is paused, and false otherwise."
      },
      "safeTransferFrom(address,address,uint256)": {
        "details": "See {IERC721-safeTransferFrom}."
      },
      "safeTransferFrom(address,address,uint256,bytes)": {
        "details": "See {IERC721-safeTransferFrom}."
      },
      "setApprovalForAll(address,bool)": {
        "details": "See {IERC721-setApprovalForAll}."
      },
      "supportsInterface(bytes4)": {
        "details": "See {IERC165-supportsInterface}."
      },
      "symbol()": {
        "details": "See {IERC721Metadata-symbol}."
      },
      "tokenURI(uint256)": {
        "details": "See {IERC721Metadata-tokenURI}."
      },
      "transferFrom(address,address,uint256)": {
        "details": "See {IERC721-transferFrom}."
      }
    },
    "title": "ERC721PausableMock This mock just provides a public mint, burn and exists functions for testing purposes",
    "version": 1
  },
  "userdoc": {
    "kind": "user",
    "methods": {},
    "version": 1
  }
}