{
  "contractName": "ERC721BurnableMock",
  "abi": [
    {
      "inputs": [
        {
          "internalType": "string",
          "name": "name",
          "type": "string"
        },
        {
          "internalType": "string",
          "name": "symbol",
          "type": "string"
        }
      ],
      "stateMutability": "nonpayable",
      "type": "constructor"
    },
    {
      "anonymous": false,
      "inputs": [
        {
          "indexed": true,
          "internalType": "address",
          "name": "owner",
          "type": "address"
        },
        {
          "indexed": true,
          "internalType": "address",
          "name": "approved",
          "type": "address"
        },
        {
          "indexed": true,
          "internalType": "uint256",
          "name": "tokenId",
          "type": "uint256"
        }
      ],
      "name": "Approval",
      "type": "event"
    },
    {
      "anonymous": false,
      "inputs": [
        {
          "indexed": true,
          "internalType": "address",
          "name": "owner",
          "type": "address"
        },
        {
          "indexed": true,
          "internalType": "address",
          "name": "operator",
          "type": "address"
        },
        {
          "indexed": false,
          "internalType": "bool",
          "name": "approved",
          "type": "bool"
        }
      ],
      "name": "ApprovalForAll",
      "type": "event"
    },
    {
      "anonymous": false,
      "inputs": [
        {
          "indexed": true,
          "internalType": "address",
          "name": "from",
          "type": "address"
        },
        {
          "indexed": true,
          "internalType": "address",
          "name": "to",
          "type": "address"
        },
        {
          "indexed": true,
          "internalType": "uint256",
          "name": "tokenId",
          "type": "uint256"
        }
      ],
      "name": "Transfer",
      "type": "event"
    },
    {
      "inputs": [
        {
          "internalType": "address",
          "name": "to",
          "type": "address"
        },
        {
          "internalType": "uint256",
          "name": "tokenId",
          "type": "uint256"
        }
      ],
      "name": "approve",
      "outputs": [],
      "stateMutability": "nonpayable",
      "type": "function"
    },
    {
      "inputs": [
        {
          "internalType": "address",
          "name": "owner",
          "type": "address"
        }
      ],
      "name": "balanceOf",
      "outputs": [
        {
          "internalType": "uint256",
          "name": "",
          "type": "uint256"
        }
      ],
      "stateMutability": "view",
      "type": "function"
    },
    {
      "inputs": [
        {
          "internalType": "uint256",
          "name": "tokenId",
          "type": "uint256"
        }
      ],
      "name": "burn",
      "outputs": [],
      "stateMutability": "nonpayable",
      "type": "function"
    },
    {
      "inputs": [
        {
          "internalType": "uint256",
          "name": "tokenId",
          "type": "uint256"
        }
      ],
      "name": "getApproved",
      "outputs": [
        {
          "internalType": "address",
          "name": "",
          "type": "address"
        }
      ],
      "stateMutability": "view",
      "type": "function"
    },
    {
      "inputs": [
        {
          "internalType": "address",
          "name": "owner",
          "type": "address"
        },
        {
          "internalType": "address",
          "name": "operator",
          "type": "address"
        }
      ],
      "name": "isApprovedForAll",
      "outputs": [
        {
          "internalType": "bool",
          "name": "",
          "type": "bool"
        }
      ],
      "stateMutability": "view",
      "type": "function"
    },
    {
      "inputs": [],
      "name": "name",
      "outputs": [
        {
          "internalType": "string",
          "name": "",
          "type": "string"
        }
      ],
      "stateMutability": "view",
      "type": "function"
    },
    {
      "inputs": [
        {
          "internalType": "uint256",
          "name": "tokenId",
          "type": "uint256"
        }
      ],
      "name": "ownerOf",
      "outputs": [
        {
          "internalType": "address",
          "name": "",
          "type": "address"
        }
      ],
      "stateMutability": "view",
      "type": "function"
    },
    {
      "inputs": [
        {
          "internalType": "address",
          "name": "from",
          "type": "address"
        },
        {
          "internalType": "address",
          "name": "to",
          "type": "address"
        },
        {
          "internalType": "uint256",
          "name": "tokenId",
          "type": "uint256"
        }
      ],
      "name": "safeTransferFrom",
      "outputs": [],
      "stateMutability": "nonpayable",
      "type": "function"
    },
    {
      "inputs": [
        {
          "internalType": "address",
          "name": "from",
          "type": "address"
        },
        {
          "internalType": "address",
          "name": "to",
          "type": "address"
        },
        {
          "internalType": "uint256",
          "name": "tokenId",
          "type": "uint256"
        },
        {
          "internalType": "bytes",
          "name": "_data",
          "type": "bytes"
        }
      ],
      "name": "safeTransferFrom",
      "outputs": [],
      "stateMutability": "nonpayable",
      "type": "function"
    },
    {
      "inputs": [
        {
          "internalType": "address",
          "name": "operator",
          "type": "address"
        },
        {
          "internalType": "bool",
          "name": "approved",
          "type": "bool"
        }
      ],
      "name": "setApprovalForAll",
      "outputs": [],
      "stateMutability": "nonpayable",
      "type": "function"
    },
    {
      "inputs": [
        {
          "internalType": "bytes4",
          "name": "interfaceId",
          "type": "bytes4"
        }
      ],
      "name": "supportsInterface",
      "outputs": [
        {
          "internalType": "bool",
          "name": "",
          "type": "bool"
        }
      ],
      "stateMutability": "view",
      "type": "function"
    },
    {
      "inputs": [],
      "name": "symbol",
      "outputs": [
        {
          "internalType": "string",
          "name": "",
          "type": "string"
        }
      ],
      "stateMutability": "view",
      "type": "function"
    },
    {
      "inputs": [
        {
          "internalType": "uint256",
          "name": "tokenId",
          "type": "uint256"
        }
      ],
      "name": "tokenURI",
      "outputs": [
        {
          "internalType": "string",
          "name": "",
          "type": "string"
        }
      ],
      "stateMutability": "view",
      "type": "function"
    },
    {
      "inputs": [
        {
          "internalType": "address",
          "name": "from",
          "type": "address"
        },
        {
          "internalType": "address",
          "name": "to",
          "type": "address"
        },
        {
          "internalType": "uint256",
          "name": "tokenId",
          "type": "uint256"
        }
      ],
      "name": "transferFrom",
      "outputs": [],
      "stateMutability": "nonpayable",
      "type": "function"
    },
    {
      "inputs": [
        {
          "internalType": "uint256",
          "name": "tokenId",
          "type": "uint256"
        }
      ],
      "name": "exists",
      "outputs": [
        {
          "internalType": "bool",
          "name": "",
          "type": "bool"
        }
      ],
      "stateMutability": "view",
      "type": "function"
    },
    {
      "inputs": [
        {
          "internalType": "address",
          "name": "to",
          "type": "address"
        },
        {
          "internalType": "uint256",
          "name": "tokenId",
          "type": "uint256"
        }
      ],
      "name": "mint",
      "outputs": [],
      "stateMutability": "nonpayable",
      "type": "function"
    },
    {
      "inputs": [
        {
          "internalType": "address",
          "name": "to",
          "type": "address"
        },
        {
          "internalType": "uint256",
          "name": "tokenId",
          "type": "uint256"
        },
        {
          "internalType": "bytes",
          "name": "_data",
          "type": "bytes"
        }
      ],
      "name": "safeMint",
      "outputs": [],
      "stateMutability": "nonpayable",
      "type": "function"
    },
    {
      "inputs": [
        {
          "internalType": "address",
          "name": "to",
          "type": "address"
        },
        {
          "internalType": "uint256",
          "name": "tokenId",
          "type": "uint256"
        }
      ],
      "name": "safeMint",
      "outputs": [],
      "stateMutability": "nonpayable",
      "type": "function"
    }
  ],
  "bytecode": "0x60806040523480156200001157600080fd5b5060405162002cc038038062002cc0833981810160405281019062000037919062000197565b818181600090805190602001906200005192919062000075565b5080600190805190602001906200006a92919062000075565b50505050506200033b565b8280546200008390620002a7565b90600052602060002090601f016020900481019282620000a75760008555620000f3565b82601f10620000c257805160ff1916838001178555620000f3565b82800160010185558215620000f3579182015b82811115620000f2578251825591602001919060010190620000d5565b5b50905062000102919062000106565b5090565b5b808211156200012157600081600090555060010162000107565b5090565b60006200013c62000136846200023e565b6200020a565b9050828152602081018484840111156200015557600080fd5b6200016284828562000271565b509392505050565b600082601f8301126200017c57600080fd5b81516200018e84826020860162000125565b91505092915050565b60008060408385031215620001ab57600080fd5b600083015167ffffffffffffffff811115620001c657600080fd5b620001d4858286016200016a565b925050602083015167ffffffffffffffff811115620001f257600080fd5b62000200858286016200016a565b9150509250929050565b6000604051905081810181811067ffffffffffffffff821117156200023457620002336200030c565b5b8060405250919050565b600067ffffffffffffffff8211156200025c576200025b6200030c565b5b601f19601f8301169050602081019050919050565b60005b838110156200029157808201518184015260208101905062000274565b83811115620002a1576000848401525b50505050565b60006002820490506001821680620002c057607f821691505b60208210811415620002d757620002d6620002dd565b5b50919050565b7f4e487b7100000000000000000000000000000000000000000000000000000000600052602260045260246000fd5b7f4e487b7100000000000000000000000000000000000000000000000000000000600052604160045260246000fd5b612975806200034b6000396000f3fe608060405234801561001057600080fd5b50600436106101165760003560e01c80636352211e116100a2578063a144819411610071578063a1448194146102ef578063a22cb4651461030b578063b88d4fde14610327578063c87b56dd14610343578063e985e9c51461037357610116565b80636352211e1461025557806370a08231146102855780638832e6e3146102b557806395d89b41146102d157610116565b806323b872dd116100e957806323b872dd146101b557806340c10f19146101d157806342842e0e146101ed57806342966c68146102095780634f558e791461022557610116565b806301ffc9a71461011b57806306fdde031461014b578063081812fc14610169578063095ea7b314610199575b600080fd5b61013560048036038101906101309190611bbf565b6103a3565b604051610142919061231d565b60405180910390f35b610153610485565b6040516101609190612338565b60405180910390f35b610183600480360381019061017e9190611c11565b610517565b60405161019091906122b6565b60405180910390f35b6101b360048036038101906101ae9190611b1c565b61059c565b005b6101cf60048036038101906101ca9190611a16565b6106b4565b005b6101eb60048036038101906101e69190611b1c565b610714565b005b61020760048036038101906102029190611a16565b610722565b005b610223600480360381019061021e9190611c11565b610742565b005b61023f600480360381019061023a9190611c11565b61079e565b60405161024c919061231d565b60405180910390f35b61026f600480360381019061026a9190611c11565b6107b0565b60405161027c91906122b6565b60405180910390f35b61029f600480360381019061029a91906119b1565b610862565b6040516102ac919061253a565b60405180910390f35b6102cf60048036038101906102ca9190611b58565b61091a565b005b6102d961092a565b6040516102e69190612338565b60405180910390f35b61030960048036038101906103049190611b1c565b6109bc565b005b61032560048036038101906103209190611ae0565b6109ca565b005b610341600480360381019061033c9190611a65565b610b4b565b005b61035d60048036038101906103589190611c11565b610bad565b60405161036a9190612338565b60405180910390f35b61038d600480360381019061038891906119da565b610c54565b60405161039a919061231d565b60405180910390f35b60007f80ac58cd000000000000000000000000000000000000000000000000000000007bffffffffffffffffffffffffffffffffffffffffffffffffffffffff1916827bffffffffffffffffffffffffffffffffffffffffffffffffffffffff1916148061046e57507f5b5e139f000000000000000000000000000000000000000000000000000000007bffffffffffffffffffffffffffffffffffffffffffffffffffffffff1916827bffffffffffffffffffffffffffffffffffffffffffffffffffffffff1916145b8061047e575061047d82610ce8565b5b9050919050565b6060600080546104949061276a565b80601f01602080910402602001604051908101604052809291908181526020018280546104c09061276a565b801561050d5780601f106104e25761010080835404028352916020019161050d565b820191906000526020600020905b8154815290600101906020018083116104f057829003601f168201915b5050505050905090565b600061052282610d52565b610561576040517f08c379a00000000000000000000000000000000000000000000000000000000081526004016105589061247a565b60405180910390fd5b6004600083815260200190815260200160002060009054906101000a900473ffffffffffffffffffffffffffffffffffffffff169050919050565b60006105a7826107b0565b90508073ffffffffffffffffffffffffffffffffffffffff168373ffffffffffffffffffffffffffffffffffffffff161415610618576040517f08c379a000000000000000000000000000000000000000000000000000000000815260040161060f906124da565b60405180910390fd5b8073ffffffffffffffffffffffffffffffffffffffff16610637610dbe565b73ffffffffffffffffffffffffffffffffffffffff161480610666575061066581610660610dbe565b610c54565b5b6106a5576040517f08c379a000000000000000000000000000000000000000000000000000000000815260040161069c906123fa565b60405180910390fd5b6106af8383610dc6565b505050565b6106c56106bf610dbe565b82610e7f565b610704576040517f08c379a00000000000000000000000000000000000000000000000000000000081526004016106fb906124fa565b60405180910390fd5b61070f838383610f5d565b505050565b61071e82826111b9565b5050565b61073d83838360405180602001604052806000815250610b4b565b505050565b61075361074d610dbe565b82610e7f565b610792576040517f08c379a00000000000000000000000000000000000000000000000000000000081526004016107899061251a565b60405180910390fd5b61079b81611387565b50565b60006107a982610d52565b9050919050565b6000806002600084815260200190815260200160002060009054906101000a900473ffffffffffffffffffffffffffffffffffffffff169050600073ffffffffffffffffffffffffffffffffffffffff168173ffffffffffffffffffffffffffffffffffffffff161415610859576040517f08c379a00000000000000000000000000000000000000000000000000000000081526004016108509061243a565b60405180910390fd5b80915050919050565b60008073ffffffffffffffffffffffffffffffffffffffff168273ffffffffffffffffffffffffffffffffffffffff1614156108d3576040517f08c379a00000000000000000000000000000000000000000000000000000000081526004016108ca9061241a565b60405180910390fd5b600360008373ffffffffffffffffffffffffffffffffffffffff1673ffffffffffffffffffffffffffffffffffffffff168152602001908152602001600020549050919050565b610925838383611498565b505050565b6060600180546109399061276a565b80601f01602080910402602001604051908101604052809291908181526020018280546109659061276a565b80156109b25780601f10610987576101008083540402835291602001916109b2565b820191906000526020600020905b81548152906001019060200180831161099557829003601f168201915b5050505050905090565b6109c682826114f3565b5050565b6109d2610dbe565b73ffffffffffffffffffffffffffffffffffffffff168273ffffffffffffffffffffffffffffffffffffffff161415610a40576040517f08c379a0000000000000000000000000000000000000000000000000000000008152600401610a37906123ba565b60405180910390fd5b8060056000610a4d610dbe565b73ffffffffffffffffffffffffffffffffffffffff1673ffffffffffffffffffffffffffffffffffffffff16815260200190815260200160002060008473ffffffffffffffffffffffffffffffffffffffff1673ffffffffffffffffffffffffffffffffffffffff16815260200190815260200160002060006101000a81548160ff0219169083151502179055508173ffffffffffffffffffffffffffffffffffffffff16610afa610dbe565b73ffffffffffffffffffffffffffffffffffffffff167f17307eab39ab6107e8899845ad3d59bd9653f200f220920489ca2b5937696c3183604051610b3f919061231d565b60405180910390a35050565b610b5c610b56610dbe565b83610e7f565b610b9b576040517f08c379a0000000000000000000000000000000000000000000000000000000008152600401610b92906124fa565b60405180910390fd5b610ba784848484611511565b50505050565b6060610bb882610d52565b610bf7576040517f08c379a0000000000000000000000000000000000000000000000000000000008152600401610bee906124ba565b60405180910390fd5b6000610c0161156d565b90506000815111610c215760405180602001604052806000815250610c4c565b80610c2b84611584565b604051602001610c3c929190612292565b6040516020818303038152906040525b915050919050565b6000600560008473ffffffffffffffffffffffffffffffffffffffff1673ffffffffffffffffffffffffffffffffffffffff16815260200190815260200160002060008373ffffffffffffffffffffffffffffffffffffffff1673ffffffffffffffffffffffffffffffffffffffff16815260200190815260200160002060009054906101000a900460ff16905092915050565b60007f01ffc9a7000000000000000000000000000000000000000000000000000000007bffffffffffffffffffffffffffffffffffffffffffffffffffffffff1916827bffffffffffffffffffffffffffffffffffffffffffffffffffffffff1916149050919050565b60008073ffffffffffffffffffffffffffffffffffffffff166002600084815260200190815260200160002060009054906101000a900473ffffffffffffffffffffffffffffffffffffffff1673ffffffffffffffffffffffffffffffffffffffff1614159050919050565b600033905090565b816004600083815260200190815260200160002060006101000a81548173ffffffffffffffffffffffffffffffffffffffff021916908373ffffffffffffffffffffffffffffffffffffffff160217905550808273ffffffffffffffffffffffffffffffffffffffff16610e39836107b0565b73ffffffffffffffffffffffffffffffffffffffff167f8c5be1e5ebec7d5bd14f71427d1e84f3dd0314c0f7b2291e5b200ac8c7c3b92560405160405180910390a45050565b6000610e8a82610d52565b610ec9576040517f08c379a0000000000000000000000000000000000000000000000000000000008152600401610ec0906123da565b60405180910390fd5b6000610ed4836107b0565b90508073ffffffffffffffffffffffffffffffffffffffff168473ffffffffffffffffffffffffffffffffffffffff161480610f4357508373ffffffffffffffffffffffffffffffffffffffff16610f2b84610517565b73ffffffffffffffffffffffffffffffffffffffff16145b80610f545750610f538185610c54565b5b91505092915050565b8273ffffffffffffffffffffffffffffffffffffffff16610f7d826107b0565b73ffffffffffffffffffffffffffffffffffffffff1614610fd3576040517f08c379a0000000000000000000000000000000000000000000000000000000008152600401610fca9061249a565b60405180910390fd5b600073ffffffffffffffffffffffffffffffffffffffff168273ffffffffffffffffffffffffffffffffffffffff161415611043576040517f08c379a000000000000000000000000000000000000000000000000000000000815260040161103a9061239a565b60405180910390fd5b61104e838383611731565b611059600082610dc6565b6001600360008573ffffffffffffffffffffffffffffffffffffffff1673ffffffffffffffffffffffffffffffffffffffff16815260200190815260200160002060008282546110a99190612680565b925050819055506001600360008473ffffffffffffffffffffffffffffffffffffffff1673ffffffffffffffffffffffffffffffffffffffff168152602001908152602001600020600082825461110091906125f9565b92505081905550816002600083815260200190815260200160002060006101000a81548173ffffffffffffffffffffffffffffffffffffffff021916908373ffffffffffffffffffffffffffffffffffffffff160217905550808273ffffffffffffffffffffffffffffffffffffffff168473ffffffffffffffffffffffffffffffffffffffff167fddf252ad1be2c89b69c2b068fc378daa952ba7f163c4a11628f55a4df523b3ef60405160405180910390a4505050565b600073ffffffffffffffffffffffffffffffffffffffff168273ffffffffffffffffffffffffffffffffffffffff161415611229576040517f08c379a00000000000000000000000000000000000000000000000000000000081526004016112209061245a565b60405180910390fd5b61123281610d52565b15611272576040517f08c379a00000000000000000000000000000000000000000000000000000000081526004016112699061237a565b60405180910390fd5b61127e60008383611731565b6001600360008473ffffffffffffffffffffffffffffffffffffffff1673ffffffffffffffffffffffffffffffffffffffff16815260200190815260200160002060008282546112ce91906125f9565b92505081905550816002600083815260200190815260200160002060006101000a81548173ffffffffffffffffffffffffffffffffffffffff021916908373ffffffffffffffffffffffffffffffffffffffff160217905550808273ffffffffffffffffffffffffffffffffffffffff16600073ffffffffffffffffffffffffffffffffffffffff167fddf252ad1be2c89b69c2b068fc378daa952ba7f163c4a11628f55a4df523b3ef60405160405180910390a45050565b6000611392826107b0565b90506113a081600084611731565b6113ab600083610dc6565b6001600360008373ffffffffffffffffffffffffffffffffffffffff1673ffffffffffffffffffffffffffffffffffffffff16815260200190815260200160002060008282546113fb9190612680565b925050819055506002600083815260200190815260200160002060006101000a81549073ffffffffffffffffffffffffffffffffffffffff021916905581600073ffffffffffffffffffffffffffffffffffffffff168273ffffffffffffffffffffffffffffffffffffffff167fddf252ad1be2c89b69c2b068fc378daa952ba7f163c4a11628f55a4df523b3ef60405160405180910390a45050565b6114a283836111b9565b6114af6000848484611736565b6114ee576040517f08c379a00000000000000000000000000000000000000000000000000000000081526004016114e59061235a565b60405180910390fd5b505050565b61150d828260405180602001604052806000815250611498565b5050565b61151c848484610f5d565b61152884848484611736565b611567576040517f08c379a000000000000000000000000000000000000000000000000000000000815260040161155e9061235a565b60405180910390fd5b50505050565b606060405180602001604052806000815250905090565b606060008214156115cc576040518060400160405280600181526020017f3000000000000000000000000000000000000000000000000000000000000000815250905061172c565b600082905060005b600082146115fe5780806115e79061279c565b915050600a826115f7919061264f565b91506115d4565b60008167ffffffffffffffff811115611640577f4e487b7100000000000000000000000000000000000000000000000000000000600052604160045260246000fd5b6040519080825280601f01601f1916602001820160405280156116725781602001600182028036833780820191505090505b5090505b600085146117255760018261168b9190612680565b9150600a8561169a91906127e5565b60306116a691906125f9565b60f81b8183815181106116e2577f4e487b7100000000000000000000000000000000000000000000000000000000600052603260045260246000fd5b60200101907effffffffffffffffffffffffffffffffffffffffffffffffffffffffffffff1916908160001a905350600a8561171e919061264f565b9450611676565b8093505050505b919050565b505050565b60006117578473ffffffffffffffffffffffffffffffffffffffff166118cd565b156118c0578373ffffffffffffffffffffffffffffffffffffffff1663150b7a02611780610dbe565b8786866040518563ffffffff1660e01b81526004016117a294939291906122d1565b602060405180830381600087803b1580156117bc57600080fd5b505af19250505080156117ed57506040513d601f19601f820116820180604052508101906117ea9190611be8565b60015b611870573d806000811461181d576040519150601f19603f3d011682016040523d82523d6000602084013e611822565b606091505b50600081511415611868576040517f08c379a000000000000000000000000000000000000000000000000000000000815260040161185f9061235a565b60405180910390fd5b805181602001fd5b63150b7a0260e01b7bffffffffffffffffffffffffffffffffffffffffffffffffffffffff1916817bffffffffffffffffffffffffffffffffffffffffffffffffffffffff1916149150506118c5565b600190505b949350505050565b600080823b905060008111915050919050565b60006118f36118ee84612586565b612555565b90508281526020810184848401111561190b57600080fd5b611916848285612728565b509392505050565b60008135905061192d816128e3565b92915050565b600081359050611942816128fa565b92915050565b60008135905061195781612911565b92915050565b60008151905061196c81612911565b92915050565b600082601f83011261198357600080fd5b81356119938482602086016118e0565b91505092915050565b6000813590506119ab81612928565b92915050565b6000602082840312156119c357600080fd5b60006119d18482850161191e565b91505092915050565b600080604083850312156119ed57600080fd5b60006119fb8582860161191e565b9250506020611a0c8582860161191e565b9150509250929050565b600080600060608486031215611a2b57600080fd5b6000611a398682870161191e565b9350506020611a4a8682870161191e565b9250506040611a5b8682870161199c565b9150509250925092565b60008060008060808587031215611a7b57600080fd5b6000611a898782880161191e565b9450506020611a9a8782880161191e565b9350506040611aab8782880161199c565b925050606085013567ffffffffffffffff811115611ac857600080fd5b611ad487828801611972565b91505092959194509250565b60008060408385031215611af357600080fd5b6000611b018582860161191e565b9250506020611b1285828601611933565b9150509250929050565b60008060408385031215611b2f57600080fd5b6000611b3d8582860161191e565b9250506020611b4e8582860161199c565b9150509250929050565b600080600060608486031215611b6d57600080fd5b6000611b7b8682870161191e565b9350506020611b8c8682870161199c565b925050604084013567ffffffffffffffff811115611ba957600080fd5b611bb586828701611972565b9150509250925092565b600060208284031215611bd157600080fd5b6000611bdf84828501611948565b91505092915050565b600060208284031215611bfa57600080fd5b6000611c088482850161195d565b91505092915050565b600060208284031215611c2357600080fd5b6000611c318482850161199c565b91505092915050565b611c43816126b4565b82525050565b611c52816126c6565b82525050565b6000611c63826125b6565b611c6d81856125cc565b9350611c7d818560208601612737565b611c86816128d2565b840191505092915050565b6000611c9c826125c1565b611ca681856125dd565b9350611cb6818560208601612737565b611cbf816128d2565b840191505092915050565b6000611cd5826125c1565b611cdf81856125ee565b9350611cef818560208601612737565b80840191505092915050565b6000611d086032836125dd565b91507f4552433732313a207472616e7366657220746f206e6f6e20455243373231526560008301527f63656976657220696d706c656d656e74657200000000000000000000000000006020830152604082019050919050565b6000611d6e601c836125dd565b91507f4552433732313a20746f6b656e20616c7265616479206d696e746564000000006000830152602082019050919050565b6000611dae6024836125dd565b91507f4552433732313a207472616e7366657220746f20746865207a65726f2061646460008301527f72657373000000000000000000000000000000000000000000000000000000006020830152604082019050919050565b6000611e146019836125dd565b91507f4552433732313a20617070726f766520746f2063616c6c6572000000000000006000830152602082019050919050565b6000611e54602c836125dd565b91507f4552433732313a206f70657261746f7220717565727920666f72206e6f6e657860008301527f697374656e7420746f6b656e00000000000000000000000000000000000000006020830152604082019050919050565b6000611eba6038836125dd565b91507f4552433732313a20617070726f76652063616c6c6572206973206e6f74206f7760008301527f6e6572206e6f7220617070726f76656420666f7220616c6c00000000000000006020830152604082019050919050565b6000611f20602a836125dd565b91507f4552433732313a2062616c616e636520717565727920666f7220746865207a6560008301527f726f2061646472657373000000000000000000000000000000000000000000006020830152604082019050919050565b6000611f866029836125dd565b91507f4552433732313a206f776e657220717565727920666f72206e6f6e657869737460008301527f656e7420746f6b656e00000000000000000000000000000000000000000000006020830152604082019050919050565b6000611fec6020836125dd565b91507f4552433732313a206d696e7420746f20746865207a65726f20616464726573736000830152602082019050919050565b600061202c602c836125dd565b91507f4552433732313a20617070726f76656420717565727920666f72206e6f6e657860008301527f697374656e7420746f6b656e00000000000000000000000000000000000000006020830152604082019050919050565b60006120926029836125dd565b91507f4552433732313a207472616e73666572206f6620746f6b656e2074686174206960008301527f73206e6f74206f776e00000000000000000000000000000000000000000000006020830152604082019050919050565b60006120f8602f836125dd565b91507f4552433732314d657461646174613a2055524920717565727920666f72206e6f60008301527f6e6578697374656e7420746f6b656e00000000000000000000000000000000006020830152604082019050919050565b600061215e6021836125dd565b91507f4552433732313a20617070726f76616c20746f2063757272656e74206f776e6560008301527f72000000000000000000000000000000000000000000000000000000000000006020830152604082019050919050565b60006121c46031836125dd565b91507f4552433732313a207472616e736665722063616c6c6572206973206e6f74206f60008301527f776e6572206e6f7220617070726f7665640000000000000000000000000000006020830152604082019050919050565b600061222a6030836125dd565b91507f4552433732314275726e61626c653a2063616c6c6572206973206e6f74206f7760008301527f6e6572206e6f7220617070726f766564000000000000000000000000000000006020830152604082019050919050565b61228c8161271e565b82525050565b600061229e8285611cca565b91506122aa8284611cca565b91508190509392505050565b60006020820190506122cb6000830184611c3a565b92915050565b60006080820190506122e66000830187611c3a565b6122f36020830186611c3a565b6123006040830185612283565b81810360608301526123128184611c58565b905095945050505050565b60006020820190506123326000830184611c49565b92915050565b600060208201905081810360008301526123528184611c91565b905092915050565b6000602082019050818103600083015261237381611cfb565b9050919050565b6000602082019050818103600083015261239381611d61565b9050919050565b600060208201905081810360008301526123b381611da1565b9050919050565b600060208201905081810360008301526123d381611e07565b9050919050565b600060208201905081810360008301526123f381611e47565b9050919050565b6000602082019050818103600083015261241381611ead565b9050919050565b6000602082019050818103600083015261243381611f13565b9050919050565b6000602082019050818103600083015261245381611f79565b9050919050565b6000602082019050818103600083015261247381611fdf565b9050919050565b600060208201905081810360008301526124938161201f565b9050919050565b600060208201905081810360008301526124b381612085565b9050919050565b600060208201905081810360008301526124d3816120eb565b9050919050565b600060208201905081810360008301526124f381612151565b9050919050565b60006020820190508181036000830152612513816121b7565b9050919050565b600060208201905081810360008301526125338161221d565b9050919050565b600060208201905061254f6000830184612283565b92915050565b6000604051905081810181811067ffffffffffffffff8211171561257c5761257b6128a3565b5b8060405250919050565b600067ffffffffffffffff8211156125a1576125a06128a3565b5b601f19601f8301169050602081019050919050565b600081519050919050565b600081519050919050565b600082825260208201905092915050565b600082825260208201905092915050565b600081905092915050565b60006126048261271e565b915061260f8361271e565b9250827fffffffffffffffffffffffffffffffffffffffffffffffffffffffffffffffff0382111561264457612643612816565b5b828201905092915050565b600061265a8261271e565b91506126658361271e565b92508261267557612674612845565b5b828204905092915050565b600061268b8261271e565b91506126968361271e565b9250828210156126a9576126a8612816565b5b828203905092915050565b60006126bf826126fe565b9050919050565b60008115159050919050565b60007fffffffff0000000000000000000000000000000000000000000000000000000082169050919050565b600073ffffffffffffffffffffffffffffffffffffffff82169050919050565b6000819050919050565b82818337600083830152505050565b60005b8381101561275557808201518184015260208101905061273a565b83811115612764576000848401525b50505050565b6000600282049050600182168061278257607f821691505b6020821081141561279657612795612874565b5b50919050565b60006127a78261271e565b91507fffffffffffffffffffffffffffffffffffffffffffffffffffffffffffffffff8214156127da576127d9612816565b5b600182019050919050565b60006127f08261271e565b91506127fb8361271e565b92508261280b5761280a612845565b5b828206905092915050565b7f4e487b7100000000000000000000000000000000000000000000000000000000600052601160045260246000fd5b7f4e487b7100000000000000000000000000000000000000000000000000000000600052601260045260246000fd5b7f4e487b7100000000000000000000000000000000000000000000000000000000600052602260045260246000fd5b7f4e487b7100000000000000000000000000000000000000000000000000000000600052604160045260246000fd5b6000601f19601f8301169050919050565b6128ec816126b4565b81146128f757600080fd5b50565b612903816126c6565b811461290e57600080fd5b50565b61291a816126d2565b811461292557600080fd5b50565b6129318161271e565b811461293c57600080fd5b5056fea264697066735822122030198757798e7ce7b2799248c5285b57eeccac5a88a7459ba2ab8e10908b40f164736f6c63430008000033",
  "immutableReferences": {},
  "source": "// SPDX-License-Identifier: MIT\n\npragma solidity ^0.8.0;\n\nimport \"../token/ERC721/extensions/ERC721Burnable.sol\";\n\ncontract ERC721BurnableMock is ERC721Burnable {\n    constructor(string memory name, string memory symbol) ERC721(name, symbol) { }\n\n    function exists(uint256 tokenId) public view returns (bool) {\n        return _exists(tokenId);\n    }\n\n    function mint(address to, uint256 tokenId) public {\n        _mint(to, tokenId);\n    }\n\n    function safeMint(address to, uint256 tokenId) public {\n        _safeMint(to, tokenId);\n    }\n\n    function safeMint(address to, uint256 tokenId, bytes memory _data) public {\n        _safeMint(to, tokenId, _data);\n    }\n}\n",
  "sourcePath": "/Users/jaredborders/Documents/Work/Blockchain/Truffle-2X/contracts/openzeppelin-solidity/contracts/mocks/ERC721BurnableMock.sol",
  "compiler": {
    "name": "solc",
    "version": "0.8.0+commit.c7dfd78e.Emscripten.clang"
  },
  "schemaVersion": "3.3.4",
  "updatedAt": "2021-04-16T22:50:40.369Z",
  "devdoc": {
    "kind": "dev",
    "methods": {
      "approve(address,uint256)": {
        "details": "See {IERC721-approve}."
      },
      "balanceOf(address)": {
        "details": "See {IERC721-balanceOf}."
      },
      "burn(uint256)": {
        "details": "Burns `tokenId`. See {ERC721-_burn}. Requirements: - The caller must own `tokenId` or be an approved operator."
      },
      "getApproved(uint256)": {
        "details": "See {IERC721-getApproved}."
      },
      "isApprovedForAll(address,address)": {
        "details": "See {IERC721-isApprovedForAll}."
      },
      "name()": {
        "details": "See {IERC721Metadata-name}."
      },
      "ownerOf(uint256)": {
        "details": "See {IERC721-ownerOf}."
      },
      "safeTransferFrom(address,address,uint256)": {
        "details": "See {IERC721-safeTransferFrom}."
      },
      "safeTransferFrom(address,address,uint256,bytes)": {
        "details": "See {IERC721-safeTransferFrom}."
      },
      "setApprovalForAll(address,bool)": {
        "details": "See {IERC721-setApprovalForAll}."
      },
      "supportsInterface(bytes4)": {
        "details": "See {IERC165-supportsInterface}."
      },
      "symbol()": {
        "details": "See {IERC721Metadata-symbol}."
      },
      "tokenURI(uint256)": {
        "details": "See {IERC721Metadata-tokenURI}."
      },
      "transferFrom(address,address,uint256)": {
        "details": "See {IERC721-transferFrom}."
      }
    },
    "version": 1
  },
  "userdoc": {
    "kind": "user",
    "methods": {},
    "version": 1
  }
}