{
  "contractName": "InitializableMock",
  "abi": [
    {
      "inputs": [],
      "name": "initializerRan",
      "outputs": [
        {
          "internalType": "bool",
          "name": "",
          "type": "bool"
        }
      ],
      "stateMutability": "view",
      "type": "function"
    },
    {
      "inputs": [],
      "name": "x",
      "outputs": [
        {
          "internalType": "uint256",
          "name": "",
          "type": "uint256"
        }
      ],
      "stateMutability": "view",
      "type": "function"
    },
    {
      "inputs": [],
      "name": "initialize",
      "outputs": [],
      "stateMutability": "nonpayable",
      "type": "function"
    },
    {
      "inputs": [],
      "name": "initializeNested",
      "outputs": [],
      "stateMutability": "nonpayable",
      "type": "function"
    },
    {
      "inputs": [
        {
          "internalType": "uint256",
          "name": "_x",
          "type": "uint256"
        }
      ],
      "name": "initializeWithX",
      "outputs": [],
      "stateMutability": "payable",
      "type": "function"
    },
    {
      "inputs": [
        {
          "internalType": "uint256",
          "name": "_x",
          "type": "uint256"
        }
      ],
      "name": "nonInitializable",
      "outputs": [],
      "stateMutability": "payable",
      "type": "function"
    },
    {
      "inputs": [],
      "name": "fail",
      "outputs": [],
      "stateMutability": "pure",
      "type": "function"
    }
  ],
  "bytecode": "0x608060405234801561001057600080fd5b5061064f806100206000396000f3fe60806040526004361061006f5760003560e01c8063a9cc47181161004e578063a9cc4718146100d2578063c3b8ef2a146100e9578063cb3a528d14610114578063e955c9ec1461012b5761006f565b806218eaa8146100745780630c55699c146100905780638129fc1c146100bb575b600080fd5b61008e60048036038101906100899190610478565b610147565b005b34801561009c57600080fd5b506100a5610228565b6040516100b291906105c0565b60405180910390f35b3480156100c757600080fd5b506100d061022e565b005b3480156100de57600080fd5b506100e7610322565b005b3480156100f557600080fd5b506100fe610365565b60405161010b9190610565565b60405180910390f35b34801561012057600080fd5b50610129610378565b005b61014560048036038101906101409190610478565b610459565b005b600060019054906101000a900460ff168061016d575060008054906101000a900460ff16155b6101ac576040517f08c379a00000000000000000000000000000000000000000000000000000000081526004016101a3906105a0565b60405180910390fd5b60008060019054906101000a900460ff1615905080156101fc576001600060016101000a81548160ff02191690831515021790555060016000806101000a81548160ff0219169083151502179055505b8160018190555080156102245760008060016101000a81548160ff0219169083151502179055505b5050565b60015481565b600060019054906101000a900460ff1680610254575060008054906101000a900460ff16155b610293576040517f08c379a000000000000000000000000000000000000000000000000000000000815260040161028a906105a0565b60405180910390fd5b60008060019054906101000a900460ff1615905080156102e3576001600060016101000a81548160ff02191690831515021790555060016000806101000a81548160ff0219169083151502179055505b6001600060026101000a81548160ff021916908315150217905550801561031f5760008060016101000a81548160ff0219169083151502179055505b50565b6000610363576040517f08c379a000000000000000000000000000000000000000000000000000000000815260040161035a90610580565b60405180910390fd5b565b600060029054906101000a900460ff1681565b600060019054906101000a900460ff168061039e575060008054906101000a900460ff16155b6103dd576040517f08c379a00000000000000000000000000000000000000000000000000000000081526004016103d4906105a0565b60405180910390fd5b60008060019054906101000a900460ff16159050801561042d576001600060016101000a81548160ff02191690831515021790555060016000806101000a81548160ff0219169083151502179055505b61043561022e565b80156104565760008060016101000a81548160ff0219169083151502179055505b50565b8060018190555050565b60008135905061047281610602565b92915050565b60006020828403121561048a57600080fd5b600061049884828501610463565b91505092915050565b6104aa816105ec565b82525050565b60006104bd6020836105db565b91507f496e697469616c697a61626c654d6f636b20666f72636564206661696c7572656000830152602082019050919050565b60006104fd602e836105db565b91507f496e697469616c697a61626c653a20636f6e747261637420697320616c72656160008301527f647920696e697469616c697a65640000000000000000000000000000000000006020830152604082019050919050565b61055f816105f8565b82525050565b600060208201905061057a60008301846104a1565b92915050565b60006020820190508181036000830152610599816104b0565b9050919050565b600060208201905081810360008301526105b9816104f0565b9050919050565b60006020820190506105d56000830184610556565b92915050565b600082825260208201905092915050565b60008115159050919050565b6000819050919050565b61060b816105f8565b811461061657600080fd5b5056fea26469706673582212207c6eaaad919494ff9ea32895c69454a64400b4b8c9ff1537437b743ef0876d0264736f6c63430008000033",
  "immutableReferences": {},
  "source": "// SPDX-License-Identifier: MIT\n\npragma solidity ^0.8.0;\n\nimport \"../proxy/utils/Initializable.sol\";\n\n/**\n * @title InitializableMock\n * @dev This contract is a mock to test initializable functionality\n */\ncontract InitializableMock is Initializable {\n\n  bool public initializerRan;\n  uint256 public x;\n\n  function initialize() public initializer {\n    initializerRan = true;\n  }\n\n  function initializeNested() public initializer {\n    initialize();\n  }\n\n  function initializeWithX(uint256 _x) public payable initializer {\n    x = _x;\n  }\n\n  function nonInitializable(uint256 _x) public payable {\n    x = _x;\n  }\n\n  function fail() public pure {\n    require(false, \"InitializableMock forced failure\");\n  }\n\n}\n",
  "sourcePath": "/Users/jaredborders/Documents/Work/Blockchain/Truffle-2X/contracts/openzeppelin-solidity/contracts/mocks/InitializableMock.sol",
  "compiler": {
    "name": "solc",
    "version": "0.8.0+commit.c7dfd78e.Emscripten.clang"
  },
  "schemaVersion": "3.3.4",
  "updatedAt": "2021-04-16T22:50:40.695Z",
  "devdoc": {
    "details": "This contract is a mock to test initializable functionality",
    "kind": "dev",
    "methods": {},
    "title": "InitializableMock",
    "version": 1
  },
  "userdoc": {
    "kind": "user",
    "methods": {},
    "version": 1
  }
}