{
  "contractName": "MulticallTokenMock",
  "abi": [
    {
      "inputs": [
        {
          "internalType": "uint256",
          "name": "initialBalance",
          "type": "uint256"
        }
      ],
      "stateMutability": "nonpayable",
      "type": "constructor"
    },
    {
      "anonymous": false,
      "inputs": [
        {
          "indexed": true,
          "internalType": "address",
          "name": "owner",
          "type": "address"
        },
        {
          "indexed": true,
          "internalType": "address",
          "name": "spender",
          "type": "address"
        },
        {
          "indexed": false,
          "internalType": "uint256",
          "name": "value",
          "type": "uint256"
        }
      ],
      "name": "Approval",
      "type": "event"
    },
    {
      "anonymous": false,
      "inputs": [
        {
          "indexed": true,
          "internalType": "address",
          "name": "from",
          "type": "address"
        },
        {
          "indexed": true,
          "internalType": "address",
          "name": "to",
          "type": "address"
        },
        {
          "indexed": false,
          "internalType": "uint256",
          "name": "value",
          "type": "uint256"
        }
      ],
      "name": "Transfer",
      "type": "event"
    },
    {
      "inputs": [
        {
          "internalType": "address",
          "name": "owner",
          "type": "address"
        },
        {
          "internalType": "address",
          "name": "spender",
          "type": "address"
        }
      ],
      "name": "allowance",
      "outputs": [
        {
          "internalType": "uint256",
          "name": "",
          "type": "uint256"
        }
      ],
      "stateMutability": "view",
      "type": "function"
    },
    {
      "inputs": [
        {
          "internalType": "address",
          "name": "spender",
          "type": "address"
        },
        {
          "internalType": "uint256",
          "name": "amount",
          "type": "uint256"
        }
      ],
      "name": "approve",
      "outputs": [
        {
          "internalType": "bool",
          "name": "",
          "type": "bool"
        }
      ],
      "stateMutability": "nonpayable",
      "type": "function"
    },
    {
      "inputs": [
        {
          "internalType": "address",
          "name": "owner",
          "type": "address"
        },
        {
          "internalType": "address",
          "name": "spender",
          "type": "address"
        },
        {
          "internalType": "uint256",
          "name": "value",
          "type": "uint256"
        }
      ],
      "name": "approveInternal",
      "outputs": [],
      "stateMutability": "nonpayable",
      "type": "function"
    },
    {
      "inputs": [
        {
          "internalType": "address",
          "name": "account",
          "type": "address"
        }
      ],
      "name": "balanceOf",
      "outputs": [
        {
          "internalType": "uint256",
          "name": "",
          "type": "uint256"
        }
      ],
      "stateMutability": "view",
      "type": "function"
    },
    {
      "inputs": [
        {
          "internalType": "address",
          "name": "account",
          "type": "address"
        },
        {
          "internalType": "uint256",
          "name": "amount",
          "type": "uint256"
        }
      ],
      "name": "burn",
      "outputs": [],
      "stateMutability": "nonpayable",
      "type": "function"
    },
    {
      "inputs": [],
      "name": "decimals",
      "outputs": [
        {
          "internalType": "uint8",
          "name": "",
          "type": "uint8"
        }
      ],
      "stateMutability": "view",
      "type": "function"
    },
    {
      "inputs": [
        {
          "internalType": "address",
          "name": "spender",
          "type": "address"
        },
        {
          "internalType": "uint256",
          "name": "subtractedValue",
          "type": "uint256"
        }
      ],
      "name": "decreaseAllowance",
      "outputs": [
        {
          "internalType": "bool",
          "name": "",
          "type": "bool"
        }
      ],
      "stateMutability": "nonpayable",
      "type": "function"
    },
    {
      "inputs": [
        {
          "internalType": "address",
          "name": "spender",
          "type": "address"
        },
        {
          "internalType": "uint256",
          "name": "addedValue",
          "type": "uint256"
        }
      ],
      "name": "increaseAllowance",
      "outputs": [
        {
          "internalType": "bool",
          "name": "",
          "type": "bool"
        }
      ],
      "stateMutability": "nonpayable",
      "type": "function"
    },
    {
      "inputs": [
        {
          "internalType": "address",
          "name": "account",
          "type": "address"
        },
        {
          "internalType": "uint256",
          "name": "amount",
          "type": "uint256"
        }
      ],
      "name": "mint",
      "outputs": [],
      "stateMutability": "nonpayable",
      "type": "function"
    },
    {
      "inputs": [
        {
          "internalType": "bytes[]",
          "name": "data",
          "type": "bytes[]"
        }
      ],
      "name": "multicall",
      "outputs": [
        {
          "internalType": "bytes[]",
          "name": "results",
          "type": "bytes[]"
        }
      ],
      "stateMutability": "nonpayable",
      "type": "function"
    },
    {
      "inputs": [],
      "name": "name",
      "outputs": [
        {
          "internalType": "string",
          "name": "",
          "type": "string"
        }
      ],
      "stateMutability": "view",
      "type": "function"
    },
    {
      "inputs": [],
      "name": "symbol",
      "outputs": [
        {
          "internalType": "string",
          "name": "",
          "type": "string"
        }
      ],
      "stateMutability": "view",
      "type": "function"
    },
    {
      "inputs": [],
      "name": "totalSupply",
      "outputs": [
        {
          "internalType": "uint256",
          "name": "",
          "type": "uint256"
        }
      ],
      "stateMutability": "view",
      "type": "function"
    },
    {
      "inputs": [
        {
          "internalType": "address",
          "name": "recipient",
          "type": "address"
        },
        {
          "internalType": "uint256",
          "name": "amount",
          "type": "uint256"
        }
      ],
      "name": "transfer",
      "outputs": [
        {
          "internalType": "bool",
          "name": "",
          "type": "bool"
        }
      ],
      "stateMutability": "nonpayable",
      "type": "function"
    },
    {
      "inputs": [
        {
          "internalType": "address",
          "name": "sender",
          "type": "address"
        },
        {
          "internalType": "address",
          "name": "recipient",
          "type": "address"
        },
        {
          "internalType": "uint256",
          "name": "amount",
          "type": "uint256"
        }
      ],
      "name": "transferFrom",
      "outputs": [
        {
          "internalType": "bool",
          "name": "",
          "type": "bool"
        }
      ],
      "stateMutability": "nonpayable",
      "type": "function"
    },
    {
      "inputs": [
        {
          "internalType": "address",
          "name": "from",
          "type": "address"
        },
        {
          "internalType": "address",
          "name": "to",
          "type": "address"
        },
        {
          "internalType": "uint256",
          "name": "value",
          "type": "uint256"
        }
      ],
      "name": "transferInternal",
      "outputs": [],
      "stateMutability": "nonpayable",
      "type": "function"
    }
  ],
  "bytecode": "0x60806040523480156200001157600080fd5b50604051620024be380380620024be833981810160405281019062000037919062000329565b6040518060400160405280600e81526020017f4d756c746963616c6c546f6b656e0000000000000000000000000000000000008152506040518060400160405280600381526020017f4243540000000000000000000000000000000000000000000000000000000000815250338383838160039080519060200190620000bf92919062000262565b508060049080519060200190620000d892919062000262565b505050620000ed8282620000f860201b60201c565b50505050506200050d565b600073ffffffffffffffffffffffffffffffffffffffff168273ffffffffffffffffffffffffffffffffffffffff1614156200016b576040517f08c379a00000000000000000000000000000000000000000000000000000000081526004016200016290620003a8565b60405180910390fd5b6200017f600083836200025d60201b60201c565b8060026000828254620001939190620003f8565b92505081905550806000808473ffffffffffffffffffffffffffffffffffffffff1673ffffffffffffffffffffffffffffffffffffffff1681526020019081526020016000206000828254620001ea9190620003f8565b925050819055508173ffffffffffffffffffffffffffffffffffffffff16600073ffffffffffffffffffffffffffffffffffffffff167fddf252ad1be2c89b69c2b068fc378daa952ba7f163c4a11628f55a4df523b3ef83604051620002519190620003ca565b60405180910390a35050565b505050565b82805462000270906200045f565b90600052602060002090601f016020900481019282620002945760008555620002e0565b82601f10620002af57805160ff1916838001178555620002e0565b82800160010185558215620002e0579182015b82811115620002df578251825591602001919060010190620002c2565b5b509050620002ef9190620002f3565b5090565b5b808211156200030e576000816000905550600101620002f4565b5090565b6000815190506200032381620004f3565b92915050565b6000602082840312156200033c57600080fd5b60006200034c8482850162000312565b91505092915050565b600062000364601f83620003e7565b91507f45524332303a206d696e7420746f20746865207a65726f2061646472657373006000830152602082019050919050565b620003a28162000455565b82525050565b60006020820190508181036000830152620003c38162000355565b9050919050565b6000602082019050620003e1600083018462000397565b92915050565b600082825260208201905092915050565b6000620004058262000455565b9150620004128362000455565b9250827fffffffffffffffffffffffffffffffffffffffffffffffffffffffffffffffff038211156200044a576200044962000495565b5b828201905092915050565b6000819050919050565b600060028204905060018216806200047857607f821691505b602082108114156200048f576200048e620004c4565b5b50919050565b7f4e487b7100000000000000000000000000000000000000000000000000000000600052601160045260246000fd5b7f4e487b7100000000000000000000000000000000000000000000000000000000600052602260045260246000fd5b620004fe8162000455565b81146200050a57600080fd5b50565b611fa1806200051d6000396000f3fe608060405234801561001057600080fd5b50600436106101005760003560e01c806356189cb411610097578063a457c2d711610066578063a457c2d7146102ad578063a9059cbb146102dd578063ac9650d81461030d578063dd62ed3e1461033d57610100565b806356189cb41461022757806370a082311461024357806395d89b41146102735780639dc29fac1461029157610100565b806323b872dd116100d357806323b872dd1461018d578063313ce567146101bd57806339509351146101db57806340c10f191461020b57610100565b806306fdde0314610105578063095ea7b31461012357806318160ddd14610153578063222f5be014610171575b600080fd5b61010d61036d565b60405161011a9190611a8f565b60405180910390f35b61013d60048036038101906101389190611425565b6103ff565b60405161014a9190611a74565b60405180910390f35b61015b61041d565b6040516101689190611c11565b60405180910390f35b61018b600480360381019061018691906113d6565b610427565b005b6101a760048036038101906101a291906113d6565b610437565b6040516101b49190611a74565b60405180910390f35b6101c5610538565b6040516101d29190611c2c565b60405180910390f35b6101f560048036038101906101f09190611425565b610541565b6040516102029190611a74565b60405180910390f35b61022560048036038101906102209190611425565b6105ed565b005b610241600480360381019061023c91906113d6565b6105fb565b005b61025d60048036038101906102589190611371565b61060b565b60405161026a9190611c11565b60405180910390f35b61027b610653565b6040516102889190611a8f565b60405180910390f35b6102ab60048036038101906102a69190611425565b6106e5565b005b6102c760048036038101906102c29190611425565b6106f3565b6040516102d49190611a74565b60405180910390f35b6102f760048036038101906102f29190611425565b6107e7565b6040516103049190611a74565b60405180910390f35b61032760048036038101906103229190611461565b610805565b6040516103349190611a52565b60405180910390f35b6103576004803603810190610352919061139a565b610983565b6040516103649190611c11565b60405180910390f35b60606003805461037c90611e2c565b80601f01602080910402602001604051908101604052809291908181526020018280546103a890611e2c565b80156103f55780601f106103ca576101008083540402835291602001916103f5565b820191906000526020600020905b8154815290600101906020018083116103d857829003601f168201915b5050505050905090565b600061041361040c610a0a565b8484610a12565b6001905092915050565b6000600254905090565b610432838383610bdd565b505050565b6000610444848484610bdd565b6000600160008673ffffffffffffffffffffffffffffffffffffffff1673ffffffffffffffffffffffffffffffffffffffff168152602001908152602001600020600061048f610a0a565b73ffffffffffffffffffffffffffffffffffffffff1673ffffffffffffffffffffffffffffffffffffffff1681526020019081526020016000205490508281101561050f576040517f08c379a000000000000000000000000000000000000000000000000000000000815260040161050690611b31565b60405180910390fd5b61052c8561051b610a0a565b85846105279190611d70565b610a12565b60019150509392505050565b60006012905090565b60006105e361054e610a0a565b84846001600061055c610a0a565b73ffffffffffffffffffffffffffffffffffffffff1673ffffffffffffffffffffffffffffffffffffffff16815260200190815260200160002060008873ffffffffffffffffffffffffffffffffffffffff1673ffffffffffffffffffffffffffffffffffffffff168152602001908152602001600020546105de9190611d1a565b610a12565b6001905092915050565b6105f78282610e5c565b5050565b610606838383610a12565b505050565b60008060008373ffffffffffffffffffffffffffffffffffffffff1673ffffffffffffffffffffffffffffffffffffffff168152602001908152602001600020549050919050565b60606004805461066290611e2c565b80601f016020809104026020016040519081016040528092919081815260200182805461068e90611e2c565b80156106db5780601f106106b0576101008083540402835291602001916106db565b820191906000526020600020905b8154815290600101906020018083116106be57829003601f168201915b5050505050905090565b6106ef8282610fb0565b5050565b60008060016000610702610a0a565b73ffffffffffffffffffffffffffffffffffffffff1673ffffffffffffffffffffffffffffffffffffffff16815260200190815260200160002060008573ffffffffffffffffffffffffffffffffffffffff1673ffffffffffffffffffffffffffffffffffffffff168152602001908152602001600020549050828110156107bf576040517f08c379a00000000000000000000000000000000000000000000000000000000081526004016107b690611bd1565b60405180910390fd5b6107dc6107ca610a0a565b8585846107d79190611d70565b610a12565b600191505092915050565b60006107fb6107f4610a0a565b8484610bdd565b6001905092915050565b60608282905067ffffffffffffffff81111561084a577f4e487b7100000000000000000000000000000000000000000000000000000000600052604160045260246000fd5b60405190808252806020026020018201604052801561087d57816020015b60608152602001906001900390816108685790505b50905060005b8383905081101561097c57610925308585848181106108cb577f4e487b7100000000000000000000000000000000000000000000000000000000600052603260045260246000fd5b90506020028101906108dd9190611c47565b8080601f016020809104026020016040519081016040528093929190818152602001838380828437600081840152601f19601f82011690508083019250505050505050611184565b82828151811061095e577f4e487b7100000000000000000000000000000000000000000000000000000000600052603260045260246000fd5b6020026020010181905250808061097490611e5e565b915050610883565b5092915050565b6000600160008473ffffffffffffffffffffffffffffffffffffffff1673ffffffffffffffffffffffffffffffffffffffff16815260200190815260200160002060008373ffffffffffffffffffffffffffffffffffffffff1673ffffffffffffffffffffffffffffffffffffffff16815260200190815260200160002054905092915050565b600033905090565b600073ffffffffffffffffffffffffffffffffffffffff168373ffffffffffffffffffffffffffffffffffffffff161415610a82576040517f08c379a0000000000000000000000000000000000000000000000000000000008152600401610a7990611bb1565b60405180910390fd5b600073ffffffffffffffffffffffffffffffffffffffff168273ffffffffffffffffffffffffffffffffffffffff161415610af2576040517f08c379a0000000000000000000000000000000000000000000000000000000008152600401610ae990611af1565b60405180910390fd5b80600160008573ffffffffffffffffffffffffffffffffffffffff1673ffffffffffffffffffffffffffffffffffffffff16815260200190815260200160002060008473ffffffffffffffffffffffffffffffffffffffff1673ffffffffffffffffffffffffffffffffffffffff168152602001908152602001600020819055508173ffffffffffffffffffffffffffffffffffffffff168373ffffffffffffffffffffffffffffffffffffffff167f8c5be1e5ebec7d5bd14f71427d1e84f3dd0314c0f7b2291e5b200ac8c7c3b92583604051610bd09190611c11565b60405180910390a3505050565b600073ffffffffffffffffffffffffffffffffffffffff168373ffffffffffffffffffffffffffffffffffffffff161415610c4d576040517f08c379a0000000000000000000000000000000000000000000000000000000008152600401610c4490611b91565b60405180910390fd5b600073ffffffffffffffffffffffffffffffffffffffff168273ffffffffffffffffffffffffffffffffffffffff161415610cbd576040517f08c379a0000000000000000000000000000000000000000000000000000000008152600401610cb490611ab1565b60405180910390fd5b610cc88383836111b1565b60008060008573ffffffffffffffffffffffffffffffffffffffff1673ffffffffffffffffffffffffffffffffffffffff16815260200190815260200160002054905081811015610d4e576040517f08c379a0000000000000000000000000000000000000000000000000000000008152600401610d4590611b11565b60405180910390fd5b8181610d5a9190611d70565b6000808673ffffffffffffffffffffffffffffffffffffffff1673ffffffffffffffffffffffffffffffffffffffff16815260200190815260200160002081905550816000808573ffffffffffffffffffffffffffffffffffffffff1673ffffffffffffffffffffffffffffffffffffffff1681526020019081526020016000206000828254610dea9190611d1a565b925050819055508273ffffffffffffffffffffffffffffffffffffffff168473ffffffffffffffffffffffffffffffffffffffff167fddf252ad1be2c89b69c2b068fc378daa952ba7f163c4a11628f55a4df523b3ef84604051610e4e9190611c11565b60405180910390a350505050565b600073ffffffffffffffffffffffffffffffffffffffff168273ffffffffffffffffffffffffffffffffffffffff161415610ecc576040517f08c379a0000000000000000000000000000000000000000000000000000000008152600401610ec390611bf1565b60405180910390fd5b610ed8600083836111b1565b8060026000828254610eea9190611d1a565b92505081905550806000808473ffffffffffffffffffffffffffffffffffffffff1673ffffffffffffffffffffffffffffffffffffffff1681526020019081526020016000206000828254610f3f9190611d1a565b925050819055508173ffffffffffffffffffffffffffffffffffffffff16600073ffffffffffffffffffffffffffffffffffffffff167fddf252ad1be2c89b69c2b068fc378daa952ba7f163c4a11628f55a4df523b3ef83604051610fa49190611c11565b60405180910390a35050565b600073ffffffffffffffffffffffffffffffffffffffff168273ffffffffffffffffffffffffffffffffffffffff161415611020576040517f08c379a000000000000000000000000000000000000000000000000000000000815260040161101790611b51565b60405180910390fd5b61102c826000836111b1565b60008060008473ffffffffffffffffffffffffffffffffffffffff1673ffffffffffffffffffffffffffffffffffffffff168152602001908152602001600020549050818110156110b2576040517f08c379a00000000000000000000000000000000000000000000000000000000081526004016110a990611ad1565b60405180910390fd5b81816110be9190611d70565b6000808573ffffffffffffffffffffffffffffffffffffffff1673ffffffffffffffffffffffffffffffffffffffff1681526020019081526020016000208190555081600260008282546111129190611d70565b92505081905550600073ffffffffffffffffffffffffffffffffffffffff168373ffffffffffffffffffffffffffffffffffffffff167fddf252ad1be2c89b69c2b068fc378daa952ba7f163c4a11628f55a4df523b3ef846040516111779190611c11565b60405180910390a3505050565b60606111a98383604051806060016040528060278152602001611f45602791396111b6565b905092915050565b505050565b60606111c184611283565b611200576040517f08c379a00000000000000000000000000000000000000000000000000000000081526004016111f790611b71565b60405180910390fd5b6000808573ffffffffffffffffffffffffffffffffffffffff16856040516112289190611a3b565b600060405180830381855af49150503d8060008114611263576040519150601f19603f3d011682016040523d82523d6000602084013e611268565b606091505b5091509150611278828286611296565b925050509392505050565b600080823b905060008111915050919050565b606083156112a6578290506112f6565b6000835111156112b95782518084602001fd5b816040517f08c379a00000000000000000000000000000000000000000000000000000000081526004016112ed9190611a8f565b60405180910390fd5b9392505050565b60008135905061130c81611f16565b92915050565b60008083601f84011261132457600080fd5b8235905067ffffffffffffffff81111561133d57600080fd5b60208301915083602082028301111561135557600080fd5b9250929050565b60008135905061136b81611f2d565b92915050565b60006020828403121561138357600080fd5b6000611391848285016112fd565b91505092915050565b600080604083850312156113ad57600080fd5b60006113bb858286016112fd565b92505060206113cc858286016112fd565b9150509250929050565b6000806000606084860312156113eb57600080fd5b60006113f9868287016112fd565b935050602061140a868287016112fd565b925050604061141b8682870161135c565b9150509250925092565b6000806040838503121561143857600080fd5b6000611446858286016112fd565b92505060206114578582860161135c565b9150509250929050565b6000806020838503121561147457600080fd5b600083013567ffffffffffffffff81111561148e57600080fd5b61149a85828601611312565b92509250509250929050565b60006114b2838361153e565b905092915050565b60006114c582611cae565b6114cf8185611cdc565b9350836020820285016114e185611c9e565b8060005b8581101561151d57848403895281516114fe85826114a6565b945061150983611ccf565b925060208a019950506001810190506114e5565b50829750879550505050505092915050565b61153881611db6565b82525050565b600061154982611cb9565b6115538185611ced565b9350611563818560208601611df9565b61156c81611f05565b840191505092915050565b600061158282611cb9565b61158c8185611cfe565b935061159c818560208601611df9565b80840191505092915050565b60006115b382611cc4565b6115bd8185611d09565b93506115cd818560208601611df9565b6115d681611f05565b840191505092915050565b60006115ee602383611d09565b91507f45524332303a207472616e7366657220746f20746865207a65726f206164647260008301527f65737300000000000000000000000000000000000000000000000000000000006020830152604082019050919050565b6000611654602283611d09565b91507f45524332303a206275726e20616d6f756e7420657863656564732062616c616e60008301527f63650000000000000000000000000000000000000000000000000000000000006020830152604082019050919050565b60006116ba602283611d09565b91507f45524332303a20617070726f766520746f20746865207a65726f20616464726560008301527f73730000000000000000000000000000000000000000000000000000000000006020830152604082019050919050565b6000611720602683611d09565b91507f45524332303a207472616e7366657220616d6f756e742065786365656473206260008301527f616c616e636500000000000000000000000000000000000000000000000000006020830152604082019050919050565b6000611786602883611d09565b91507f45524332303a207472616e7366657220616d6f756e742065786365656473206160008301527f6c6c6f77616e63650000000000000000000000000000000000000000000000006020830152604082019050919050565b60006117ec602183611d09565b91507f45524332303a206275726e2066726f6d20746865207a65726f2061646472657360008301527f73000000000000000000000000000000000000000000000000000000000000006020830152604082019050919050565b6000611852602683611d09565b91507f416464726573733a2064656c65676174652063616c6c20746f206e6f6e2d636f60008301527f6e747261637400000000000000000000000000000000000000000000000000006020830152604082019050919050565b60006118b8602583611d09565b91507f45524332303a207472616e736665722066726f6d20746865207a65726f20616460008301527f64726573730000000000000000000000000000000000000000000000000000006020830152604082019050919050565b600061191e602483611d09565b91507f45524332303a20617070726f76652066726f6d20746865207a65726f2061646460008301527f72657373000000000000000000000000000000000000000000000000000000006020830152604082019050919050565b6000611984602583611d09565b91507f45524332303a2064656372656173656420616c6c6f77616e63652062656c6f7760008301527f207a65726f0000000000000000000000000000000000000000000000000000006020830152604082019050919050565b60006119ea601f83611d09565b91507f45524332303a206d696e7420746f20746865207a65726f2061646472657373006000830152602082019050919050565b611a2681611de2565b82525050565b611a3581611dec565b82525050565b6000611a478284611577565b915081905092915050565b60006020820190508181036000830152611a6c81846114ba565b905092915050565b6000602082019050611a89600083018461152f565b92915050565b60006020820190508181036000830152611aa981846115a8565b905092915050565b60006020820190508181036000830152611aca816115e1565b9050919050565b60006020820190508181036000830152611aea81611647565b9050919050565b60006020820190508181036000830152611b0a816116ad565b9050919050565b60006020820190508181036000830152611b2a81611713565b9050919050565b60006020820190508181036000830152611b4a81611779565b9050919050565b60006020820190508181036000830152611b6a816117df565b9050919050565b60006020820190508181036000830152611b8a81611845565b9050919050565b60006020820190508181036000830152611baa816118ab565b9050919050565b60006020820190508181036000830152611bca81611911565b9050919050565b60006020820190508181036000830152611bea81611977565b9050919050565b60006020820190508181036000830152611c0a816119dd565b9050919050565b6000602082019050611c266000830184611a1d565b92915050565b6000602082019050611c416000830184611a2c565b92915050565b60008083356001602003843603038112611c6057600080fd5b80840192508235915067ffffffffffffffff821115611c7e57600080fd5b602083019250600182023603831315611c9657600080fd5b509250929050565b6000819050602082019050919050565b600081519050919050565b600081519050919050565b600081519050919050565b6000602082019050919050565b600082825260208201905092915050565b600082825260208201905092915050565b600081905092915050565b600082825260208201905092915050565b6000611d2582611de2565b9150611d3083611de2565b9250827fffffffffffffffffffffffffffffffffffffffffffffffffffffffffffffffff03821115611d6557611d64611ea7565b5b828201905092915050565b6000611d7b82611de2565b9150611d8683611de2565b925082821015611d9957611d98611ea7565b5b828203905092915050565b6000611daf82611dc2565b9050919050565b60008115159050919050565b600073ffffffffffffffffffffffffffffffffffffffff82169050919050565b6000819050919050565b600060ff82169050919050565b60005b83811015611e17578082015181840152602081019050611dfc565b83811115611e26576000848401525b50505050565b60006002820490506001821680611e4457607f821691505b60208210811415611e5857611e57611ed6565b5b50919050565b6000611e6982611de2565b91507fffffffffffffffffffffffffffffffffffffffffffffffffffffffffffffffff821415611e9c57611e9b611ea7565b5b600182019050919050565b7f4e487b7100000000000000000000000000000000000000000000000000000000600052601160045260246000fd5b7f4e487b7100000000000000000000000000000000000000000000000000000000600052602260045260246000fd5b6000601f19601f8301169050919050565b611f1f81611da4565b8114611f2a57600080fd5b50565b611f3681611de2565b8114611f4157600080fd5b5056fe416464726573733a206c6f772d6c6576656c2064656c65676174652063616c6c206661696c6564a2646970667358221220f50aa2b239192cc5db353658354d3e614a0dc35f8a1b37366bccd13007cd688764736f6c63430008000033",
  "immutableReferences": {},
  "source": "// SPDX-License-Identifier: MIT\n\npragma solidity ^0.8.0;\n\nimport \"../utils/Multicall.sol\";\nimport \"./ERC20Mock.sol\";\n\ncontract MulticallTokenMock is ERC20Mock, Multicall {\n    constructor (uint256 initialBalance) ERC20Mock(\"MulticallToken\", \"BCT\", msg.sender, initialBalance) {}\n}\n",
  "sourcePath": "/Users/jaredborders/Documents/Work/Blockchain/Truffle-2X/contracts/openzeppelin-solidity/contracts/mocks/MulticallTokenMock.sol",
  "compiler": {
    "name": "solc",
    "version": "0.8.0+commit.c7dfd78e.Emscripten.clang"
  },
  "schemaVersion": "3.3.4",
  "updatedAt": "2021-04-16T22:50:40.708Z",
  "devdoc": {
    "kind": "dev",
    "methods": {
      "allowance(address,address)": {
        "details": "See {IERC20-allowance}."
      },
      "approve(address,uint256)": {
        "details": "See {IERC20-approve}. Requirements: - `spender` cannot be the zero address."
      },
      "balanceOf(address)": {
        "details": "See {IERC20-balanceOf}."
      },
      "decimals()": {
        "details": "Returns the number of decimals used to get its user representation. For example, if `decimals` equals `2`, a balance of `505` tokens should be displayed to a user as `5,05` (`505 / 10 ** 2`). Tokens usually opt for a value of 18, imitating the relationship between Ether and Wei. This is the value {ERC20} uses, unless this function is overridden; NOTE: This information is only used for _display_ purposes: it in no way affects any of the arithmetic of the contract, including {IERC20-balanceOf} and {IERC20-transfer}."
      },
      "decreaseAllowance(address,uint256)": {
        "details": "Atomically decreases the allowance granted to `spender` by the caller. This is an alternative to {approve} that can be used as a mitigation for problems described in {IERC20-approve}. Emits an {Approval} event indicating the updated allowance. Requirements: - `spender` cannot be the zero address. - `spender` must have allowance for the caller of at least `subtractedValue`."
      },
      "increaseAllowance(address,uint256)": {
        "details": "Atomically increases the allowance granted to `spender` by the caller. This is an alternative to {approve} that can be used as a mitigation for problems described in {IERC20-approve}. Emits an {Approval} event indicating the updated allowance. Requirements: - `spender` cannot be the zero address."
      },
      "multicall(bytes[])": {
        "details": "Receives and executes a batch of function calls on this contract."
      },
      "name()": {
        "details": "Returns the name of the token."
      },
      "symbol()": {
        "details": "Returns the symbol of the token, usually a shorter version of the name."
      },
      "totalSupply()": {
        "details": "See {IERC20-totalSupply}."
      },
      "transfer(address,uint256)": {
        "details": "See {IERC20-transfer}. Requirements: - `recipient` cannot be the zero address. - the caller must have a balance of at least `amount`."
      },
      "transferFrom(address,address,uint256)": {
        "details": "See {IERC20-transferFrom}. Emits an {Approval} event indicating the updated allowance. This is not required by the EIP. See the note at the beginning of {ERC20}. Requirements: - `sender` and `recipient` cannot be the zero address. - `sender` must have a balance of at least `amount`. - the caller must have allowance for ``sender``'s tokens of at least `amount`."
      }
    },
    "version": 1
  },
  "userdoc": {
    "kind": "user",
    "methods": {},
    "version": 1
  }
}