{
  "contractName": "SampleMother",
  "abi": [
    {
      "inputs": [],
      "name": "isHuman",
      "outputs": [
        {
          "internalType": "bool",
          "name": "",
          "type": "bool"
        }
      ],
      "stateMutability": "view",
      "type": "function"
    },
    {
      "inputs": [],
      "name": "mother",
      "outputs": [
        {
          "internalType": "uint256",
          "name": "",
          "type": "uint256"
        }
      ],
      "stateMutability": "view",
      "type": "function"
    },
    {
      "inputs": [],
      "name": "initialize",
      "outputs": [],
      "stateMutability": "nonpayable",
      "type": "function"
    },
    {
      "inputs": [
        {
          "internalType": "uint256",
          "name": "value",
          "type": "uint256"
        }
      ],
      "name": "initialize",
      "outputs": [],
      "stateMutability": "nonpayable",
      "type": "function"
    }
  ],
  "bytecode": "0x608060405234801561001057600080fd5b50610435806100206000396000f3fe608060405234801561001057600080fd5b506004361061004c5760003560e01c80634a6c9db6146100515780638129fc1c1461006f578063ed7dfee314610079578063fe4b84df14610097575b600080fd5b6100596100b3565b604051610066919061036b565b60405180910390f35b6100776100c6565b005b6100816101ba565b60405161008e91906103a6565b60405180910390f35b6100b160048036038101906100ac91906102be565b6101c0565b005b600060029054906101000a900460ff1681565b600060019054906101000a900460ff16806100ec575060008054906101000a900460ff16155b61012b576040517f08c379a000000000000000000000000000000000000000000000000000000000815260040161012290610386565b60405180910390fd5b60008060019054906101000a900460ff16159050801561017b576001600060016101000a81548160ff02191690831515021790555060016000806101000a81548160ff0219169083151502179055505b6001600060026101000a81548160ff02191690831515021790555080156101b75760008060016101000a81548160ff0219169083151502179055505b50565b60015481565b600060019054906101000a900460ff16806101e6575060008054906101000a900460ff16155b610225576040517f08c379a000000000000000000000000000000000000000000000000000000000815260040161021c90610386565b60405180910390fd5b60008060019054906101000a900460ff161590508015610275576001600060016101000a81548160ff02191690831515021790555060016000806101000a81548160ff0219169083151502179055505b61027d6100c6565b8160018190555080156102a55760008060016101000a81548160ff0219169083151502179055505b5050565b6000813590506102b8816103e8565b92915050565b6000602082840312156102d057600080fd5b60006102de848285016102a9565b91505092915050565b6102f0816103d2565b82525050565b6000610303602e836103c1565b91507f496e697469616c697a61626c653a20636f6e747261637420697320616c72656160008301527f647920696e697469616c697a65640000000000000000000000000000000000006020830152604082019050919050565b610365816103de565b82525050565b600060208201905061038060008301846102e7565b92915050565b6000602082019050818103600083015261039f816102f6565b9050919050565b60006020820190506103bb600083018461035c565b92915050565b600082825260208201905092915050565b60008115159050919050565b6000819050919050565b6103f1816103de565b81146103fc57600080fd5b5056fea2646970667358221220ea86fa370687aeb85da43ca35e0d3a12dadbc512f39435463d6a40f3ba07e9ca64736f6c63430008000033",
  "immutableReferences": {},
  "source": "// SPDX-License-Identifier: MIT\n\npragma solidity ^0.8.0;\n\nimport \"../proxy/utils/Initializable.sol\";\n\n// Sample contracts showing upgradeability with multiple inheritance.\n// Child contract inherits from Father and Mother contracts, and Father extends from Gramps.\n//\n//         Human\n//       /       \\\n//      |       Gramps\n//      |         |\n//    Mother    Father\n//      |         |\n//      -- Child --\n\n/**\n * Sample base intializable contract that is a human\n */\ncontract SampleHuman is Initializable {\n  bool public isHuman;\n\n  function initialize() public initializer {\n    isHuman = true;\n  }\n}\n\n/**\n * Sample base intializable contract that defines a field mother\n */\ncontract SampleMother is Initializable, SampleHuman {\n  uint256 public mother;\n\n  function initialize(uint256 value) public initializer virtual {\n    SampleHuman.initialize();\n    mother = value;\n  }\n}\n\n/**\n * Sample base intializable contract that defines a field gramps\n */\ncontract SampleGramps is Initializable, SampleHuman {\n  string public gramps;\n\n  function initialize(string memory value) public initializer virtual {\n    SampleHuman.initialize();\n    gramps = value;\n  }\n}\n\n/**\n * Sample base intializable contract that defines a field father and extends from gramps\n */\ncontract SampleFather is Initializable, SampleGramps {\n  uint256 public father;\n\n  function initialize(string memory _gramps, uint256 _father) public initializer {\n    SampleGramps.initialize(_gramps);\n    father = _father;\n  }\n}\n\n/**\n * Child extends from mother, father (gramps)\n */\ncontract SampleChild is Initializable, SampleMother, SampleFather {\n  uint256 public child;\n\n  function initialize(uint256 _mother, string memory _gramps, uint256 _father, uint256 _child) public initializer {\n    SampleMother.initialize(_mother);\n    SampleFather.initialize(_gramps, _father);\n    child = _child;\n  }\n}\n",
  "sourcePath": "/Users/jaredborders/Documents/Work/Blockchain/Truffle-2X/contracts/openzeppelin-solidity/contracts/mocks/MultipleInheritanceInitializableMocks.sol",
  "compiler": {
    "name": "solc",
    "version": "0.8.0+commit.c7dfd78e.Emscripten.clang"
  },
  "schemaVersion": "3.3.4",
  "updatedAt": "2021-04-16T22:50:40.732Z",
  "devdoc": {
    "kind": "dev",
    "methods": {},
    "version": 1
  },
  "userdoc": {
    "kind": "user",
    "methods": {},
    "notice": "Sample base intializable contract that defines a field mother",
    "version": 1
  }
}