{
  "contractName": "SignatureCheckerMock",
  "abi": [
    {
      "inputs": [
        {
          "internalType": "address",
          "name": "signer",
          "type": "address"
        },
        {
          "internalType": "bytes32",
          "name": "hash",
          "type": "bytes32"
        },
        {
          "internalType": "bytes",
          "name": "signature",
          "type": "bytes"
        }
      ],
      "name": "isValidSignatureNow",
      "outputs": [
        {
          "internalType": "bool",
          "name": "",
          "type": "bool"
        }
      ],
      "stateMutability": "view",
      "type": "function"
    }
  ],
  "bytecode": "0x608060405234801561001057600080fd5b50610a36806100206000396000f3fe608060405234801561001057600080fd5b506004361061002b5760003560e01c80636ccea65214610030575b600080fd5b61004a600480360381019061004591906104d8565b610060565b604051610057919061071a565b60405180910390f35b600061008d83838673ffffffffffffffffffffffffffffffffffffffff166100969092919063ffffffff16565b90509392505050565b60006100a1846101c9565b15610187578373ffffffffffffffffffffffffffffffffffffffff16631626ba7e84846040518363ffffffff1660e01b81526004016100e1929190610735565b60206040518083038186803b1580156100f957600080fd5b505afa92505050801561012a57506040513d601f19601f82011682018060405250810190610127919061053f565b60015b61013757600090506101c2565b631626ba7e60e01b7bffffffffffffffffffffffffffffffffffffffffffffffffffffffff1916817bffffffffffffffffffffffffffffffffffffffffffffffffffffffff1916149150506101c2565b8373ffffffffffffffffffffffffffffffffffffffff166101a884846101dc565b73ffffffffffffffffffffffffffffffffffffffff161490505b9392505050565b600080823b905060008111915050919050565b600080600080604185511415610209576020850151925060408501519150606085015160001a905061028f565b604085511415610253576040850151602086015193507f7fffffffffffffffffffffffffffffffffffffffffffffffffffffffffffffff81169250601b8160ff1c0191505061028e565b6040517f08c379a0000000000000000000000000000000000000000000000000000000008152600401610285906107ca565b60405180910390fd5b5b61029b868285856102a6565b935050505092915050565b60007f7fffffffffffffffffffffffffffffff5d576e7357a4501ddfe92f46681b20a08260001c111561030e576040517f08c379a0000000000000000000000000000000000000000000000000000000008152600401610305906107ea565b60405180910390fd5b601b8460ff1614806103235750601c8460ff16145b610362576040517f08c379a00000000000000000000000000000000000000000000000000000000081526004016103599061080a565b60405180910390fd5b6000600186868686604051600081526020016040526040516103879493929190610765565b6020604051602081039080840390855afa1580156103a9573d6000803e3d6000fd5b505050602060405103519050600073ffffffffffffffffffffffffffffffffffffffff168173ffffffffffffffffffffffffffffffffffffffff161415610425576040517f08c379a000000000000000000000000000000000000000000000000000000000815260040161041c906107aa565b60405180910390fd5b80915050949350505050565b600061044461043f8461085b565b61082a565b90508281526020810184848401111561045c57600080fd5b610467848285610939565b509392505050565b60008135905061047e816109bb565b92915050565b600081359050610493816109d2565b92915050565b6000815190506104a8816109e9565b92915050565b600082601f8301126104bf57600080fd5b81356104cf848260208601610431565b91505092915050565b6000806000606084860312156104ed57600080fd5b60006104fb8682870161046f565b935050602061050c86828701610484565b925050604084013567ffffffffffffffff81111561052957600080fd5b610535868287016104ae565b9150509250925092565b60006020828403121561055157600080fd5b600061055f84828501610499565b91505092915050565b610571816108ca565b82525050565b610580816108d6565b82525050565b60006105918261088b565b61059b8185610896565b93506105ab818560208601610948565b6105b4816109aa565b840191505092915050565b60006105cc6018836108a7565b91507f45434453413a20696e76616c6964207369676e617475726500000000000000006000830152602082019050919050565b600061060c601f836108a7565b91507f45434453413a20696e76616c6964207369676e6174757265206c656e677468006000830152602082019050919050565b600061064c6022836108a7565b91507f45434453413a20696e76616c6964207369676e6174757265202773272076616c60008301527f75650000000000000000000000000000000000000000000000000000000000006020830152604082019050919050565b60006106b26022836108a7565b91507f45434453413a20696e76616c6964207369676e6174757265202776272076616c60008301527f75650000000000000000000000000000000000000000000000000000000000006020830152604082019050919050565b6107148161092c565b82525050565b600060208201905061072f6000830184610568565b92915050565b600060408201905061074a6000830185610577565b818103602083015261075c8184610586565b90509392505050565b600060808201905061077a6000830187610577565b610787602083018661070b565b6107946040830185610577565b6107a16060830184610577565b95945050505050565b600060208201905081810360008301526107c3816105bf565b9050919050565b600060208201905081810360008301526107e3816105ff565b9050919050565b600060208201905081810360008301526108038161063f565b9050919050565b60006020820190508181036000830152610823816106a5565b9050919050565b6000604051905081810181811067ffffffffffffffff821117156108515761085061097b565b5b8060405250919050565b600067ffffffffffffffff8211156108765761087561097b565b5b601f19601f8301169050602081019050919050565b600081519050919050565b600082825260208201905092915050565b600082825260208201905092915050565b60006108c38261090c565b9050919050565b60008115159050919050565b6000819050919050565b60007fffffffff0000000000000000000000000000000000000000000000000000000082169050919050565b600073ffffffffffffffffffffffffffffffffffffffff82169050919050565b600060ff82169050919050565b82818337600083830152505050565b60005b8381101561096657808201518184015260208101905061094b565b83811115610975576000848401525b50505050565b7f4e487b7100000000000000000000000000000000000000000000000000000000600052604160045260246000fd5b6000601f19601f8301169050919050565b6109c4816108b8565b81146109cf57600080fd5b50565b6109db816108d6565b81146109e657600080fd5b50565b6109f2816108e0565b81146109fd57600080fd5b5056fea2646970667358221220801867b4d1dd807fe90fa7eed6745853358c4fd531b8ba8c3ef8ff3006f7564164736f6c63430008000033",
  "immutableReferences": {},
  "source": "// SPDX-License-Identifier: MIT\n\npragma solidity ^0.8.0;\n\nimport \"../utils/cryptography/SignatureChecker.sol\";\n\ncontract SignatureCheckerMock {\n    using SignatureChecker for address;\n\n    function isValidSignatureNow(address signer, bytes32 hash, bytes memory signature) public view returns (bool) {\n        return signer.isValidSignatureNow(hash, signature);\n    }\n}\n",
  "sourcePath": "/Users/jaredborders/Documents/Work/Blockchain/Truffle-2X/contracts/openzeppelin-solidity/contracts/mocks/SignatureCheckerMock.sol",
  "compiler": {
    "name": "solc",
    "version": "0.8.0+commit.c7dfd78e.Emscripten.clang"
  },
  "schemaVersion": "3.3.4",
  "updatedAt": "2021-04-16T22:50:40.801Z",
  "devdoc": {
    "kind": "dev",
    "methods": {},
    "version": 1
  },
  "userdoc": {
    "kind": "user",
    "methods": {},
    "version": 1
  }
}