{
  "contractName": "StringsMock",
  "abi": [
    {
      "inputs": [
        {
          "internalType": "uint256",
          "name": "value",
          "type": "uint256"
        }
      ],
      "name": "fromUint256",
      "outputs": [
        {
          "internalType": "string",
          "name": "",
          "type": "string"
        }
      ],
      "stateMutability": "pure",
      "type": "function"
    },
    {
      "inputs": [
        {
          "internalType": "uint256",
          "name": "value",
          "type": "uint256"
        }
      ],
      "name": "fromUint256Hex",
      "outputs": [
        {
          "internalType": "string",
          "name": "",
          "type": "string"
        }
      ],
      "stateMutability": "pure",
      "type": "function"
    },
    {
      "inputs": [
        {
          "internalType": "uint256",
          "name": "value",
          "type": "uint256"
        },
        {
          "internalType": "uint256",
          "name": "length",
          "type": "uint256"
        }
      ],
      "name": "fromUint256HexFixed",
      "outputs": [
        {
          "internalType": "string",
          "name": "",
          "type": "string"
        }
      ],
      "stateMutability": "pure",
      "type": "function"
    }
  ],
  "bytecode": "0x608060405234801561001057600080fd5b50610a3e806100206000396000f3fe608060405234801561001057600080fd5b50600436106100415760003560e01c806302c5b75f1461004657806392b0ed1a14610076578063a2bd3644146100a6575b600080fd5b610060600480360381019061005b9190610650565b6100d6565b60405161006d919061072e565b60405180910390f35b610090600480360381019061008b9190610679565b6100e8565b60405161009d919061072e565b60405180910390f35b6100c060048036038101906100bb9190610650565b6100fc565b6040516100cd919061072e565b60405180910390f35b60606100e18261010e565b9050919050565b60606100f48383610194565b905092915050565b60606101078261048e565b9050919050565b60606000821415610156576040518060400160405280600481526020017f3078303000000000000000000000000000000000000000000000000000000000815250905061018f565b600082905060005b6000821461018057808061017190610908565b915050600882901c915061015e565b61018a8482610194565b925050505b919050565b6060600060028360026101a79190610813565b6101b1919061078c565b67ffffffffffffffff8111156101f0577f4e487b7100000000000000000000000000000000000000000000000000000000600052604160045260246000fd5b6040519080825280601f01601f1916602001820160405280156102225781602001600182028036833780820191505090505b5090507f300000000000000000000000000000000000000000000000000000000000000081600081518110610280577f4e487b7100000000000000000000000000000000000000000000000000000000600052603260045260246000fd5b60200101907effffffffffffffffffffffffffffffffffffffffffffffffffffffffffffff1916908160001a9053507f78000000000000000000000000000000000000000000000000000000000000008160018151811061030a577f4e487b7100000000000000000000000000000000000000000000000000000000600052603260045260246000fd5b60200101907effffffffffffffffffffffffffffffffffffffffffffffffffffffffffffff1916908160001a9053506000600184600261034a9190610813565b610354919061078c565b90505b6001811115610440577f3031323334353637383961626364656600000000000000000000000000000000600f8616601081106103bc577f4e487b7100000000000000000000000000000000000000000000000000000000600052603260045260246000fd5b1a60f81b8282815181106103f9577f4e487b7100000000000000000000000000000000000000000000000000000000600052603260045260246000fd5b60200101907effffffffffffffffffffffffffffffffffffffffffffffffffffffffffffff1916908160001a905350600485901c945080610439906108de565b9050610357565b5060008414610484576040517f08c379a000000000000000000000000000000000000000000000000000000000815260040161047b90610750565b60405180910390fd5b8091505092915050565b606060008214156104d6576040518060400160405280600181526020017f30000000000000000000000000000000000000000000000000000000000000008152509050610636565b600082905060005b600082146105085780806104f190610908565b915050600a8261050191906107e2565b91506104de565b60008167ffffffffffffffff81111561054a577f4e487b7100000000000000000000000000000000000000000000000000000000600052604160045260246000fd5b6040519080825280601f01601f19166020018201604052801561057c5781602001600182028036833780820191505090505b5090505b6000851461062f57600182610595919061086d565b9150600a856105a49190610951565b60306105b0919061078c565b60f81b8183815181106105ec577f4e487b7100000000000000000000000000000000000000000000000000000000600052603260045260246000fd5b60200101907effffffffffffffffffffffffffffffffffffffffffffffffffffffffffffff1916908160001a905350600a8561062891906107e2565b9450610580565b8093505050505b919050565b60008135905061064a816109f1565b92915050565b60006020828403121561066257600080fd5b60006106708482850161063b565b91505092915050565b6000806040838503121561068c57600080fd5b600061069a8582860161063b565b92505060206106ab8582860161063b565b9150509250929050565b60006106c082610770565b6106ca818561077b565b93506106da8185602086016108ab565b6106e3816109e0565b840191505092915050565b60006106fb60208361077b565b91507f537472696e67733a20686578206c656e67746820696e73756666696369656e746000830152602082019050919050565b6000602082019050818103600083015261074881846106b5565b905092915050565b60006020820190508181036000830152610769816106ee565b9050919050565b600081519050919050565b600082825260208201905092915050565b6000610797826108a1565b91506107a2836108a1565b9250827fffffffffffffffffffffffffffffffffffffffffffffffffffffffffffffffff038211156107d7576107d6610982565b5b828201905092915050565b60006107ed826108a1565b91506107f8836108a1565b925082610808576108076109b1565b5b828204905092915050565b600061081e826108a1565b9150610829836108a1565b9250817fffffffffffffffffffffffffffffffffffffffffffffffffffffffffffffffff048311821515161561086257610861610982565b5b828202905092915050565b6000610878826108a1565b9150610883836108a1565b92508282101561089657610895610982565b5b828203905092915050565b6000819050919050565b60005b838110156108c95780820151818401526020810190506108ae565b838111156108d8576000848401525b50505050565b60006108e9826108a1565b915060008214156108fd576108fc610982565b5b600182039050919050565b6000610913826108a1565b91507fffffffffffffffffffffffffffffffffffffffffffffffffffffffffffffffff82141561094657610945610982565b5b600182019050919050565b600061095c826108a1565b9150610967836108a1565b925082610977576109766109b1565b5b828206905092915050565b7f4e487b7100000000000000000000000000000000000000000000000000000000600052601160045260246000fd5b7f4e487b7100000000000000000000000000000000000000000000000000000000600052601260045260246000fd5b6000601f19601f8301169050919050565b6109fa816108a1565b8114610a0557600080fd5b5056fea264697066735822122028e85b4befd4573c549b0508576da21610fc1e05cccb40038b060839c459ac0d64736f6c63430008000033",
  "immutableReferences": {},
  "source": "// SPDX-License-Identifier: MIT\n\npragma solidity ^0.8.0;\n\nimport \"../utils/Strings.sol\";\n\ncontract StringsMock {\n    function fromUint256(uint256 value) public pure returns (string memory) {\n        return Strings.toString(value);\n    }\n    function fromUint256Hex(uint256 value) public pure returns (string memory) {\n        return Strings.toHexString(value);\n    }\n    function fromUint256HexFixed(uint256 value, uint256 length) public pure returns (string memory) {\n        return Strings.toHexString(value, length);\n    }\n}\n",
  "sourcePath": "/Users/jaredborders/Documents/Work/Blockchain/2X/contracts/openzeppelin-solidity/contracts/mocks/StringsMock.sol",
  "compiler": {
    "name": "solc",
    "version": "0.8.0+commit.c7dfd78e.Emscripten.clang"
  },
  "schemaVersion": "3.3.4",
  "updatedAt": "2021-04-21T17:54:48.241Z",
  "devdoc": {
    "kind": "dev",
    "methods": {},
    "version": 1
  },
  "userdoc": {
    "kind": "user",
    "methods": {},
    "version": 1
  }
}