{
  "contractName": "Wager",
  "abi": [
    {
      "inputs": [
        {
          "internalType": "string",
          "name": "_wagerName",
          "type": "string"
        },
        {
          "internalType": "uint256",
          "name": "_duration",
          "type": "uint256"
        },
        {
          "internalType": "address",
          "name": "_owner",
          "type": "address"
        }
      ],
      "stateMutability": "payable",
      "type": "constructor"
    },
    {
      "anonymous": false,
      "inputs": [
        {
          "indexed": true,
          "internalType": "address",
          "name": "previousOwner",
          "type": "address"
        },
        {
          "indexed": true,
          "internalType": "address",
          "name": "newOwner",
          "type": "address"
        }
      ],
      "name": "OwnershipTransferred",
      "type": "event"
    },
    {
      "anonymous": false,
      "inputs": [
        {
          "indexed": true,
          "internalType": "address",
          "name": "participant",
          "type": "address"
        }
      ],
      "name": "ParticipantJoin",
      "type": "event"
    },
    {
      "anonymous": false,
      "inputs": [
        {
          "indexed": true,
          "internalType": "address",
          "name": "participant",
          "type": "address"
        }
      ],
      "name": "ParticipantWithdraw",
      "type": "event"
    },
    {
      "anonymous": false,
      "inputs": [
        {
          "indexed": false,
          "internalType": "address",
          "name": "account",
          "type": "address"
        }
      ],
      "name": "Paused",
      "type": "event"
    },
    {
      "anonymous": false,
      "inputs": [
        {
          "indexed": false,
          "internalType": "address",
          "name": "account",
          "type": "address"
        }
      ],
      "name": "Unpaused",
      "type": "event"
    },
    {
      "anonymous": false,
      "inputs": [
        {
          "indexed": true,
          "internalType": "address",
          "name": "winner",
          "type": "address"
        }
      ],
      "name": "WinnerDetermined",
      "type": "event"
    },
    {
      "anonymous": false,
      "inputs": [
        {
          "indexed": true,
          "internalType": "address",
          "name": "winner",
          "type": "address"
        },
        {
          "indexed": true,
          "internalType": "uint256",
          "name": "wagerAmount",
          "type": "uint256"
        }
      ],
      "name": "WinnerWithdraw",
      "type": "event"
    },
    {
      "inputs": [],
      "name": "closedDateTime",
      "outputs": [
        {
          "internalType": "uint256",
          "name": "",
          "type": "uint256"
        }
      ],
      "stateMutability": "view",
      "type": "function"
    },
    {
      "inputs": [],
      "name": "owner",
      "outputs": [
        {
          "internalType": "address",
          "name": "",
          "type": "address"
        }
      ],
      "stateMutability": "view",
      "type": "function"
    },
    {
      "inputs": [
        {
          "internalType": "uint256",
          "name": "",
          "type": "uint256"
        }
      ],
      "name": "participants",
      "outputs": [
        {
          "internalType": "address",
          "name": "",
          "type": "address"
        }
      ],
      "stateMutability": "view",
      "type": "function"
    },
    {
      "inputs": [],
      "name": "paused",
      "outputs": [
        {
          "internalType": "bool",
          "name": "",
          "type": "bool"
        }
      ],
      "stateMutability": "view",
      "type": "function"
    },
    {
      "inputs": [],
      "name": "renounceOwnership",
      "outputs": [],
      "stateMutability": "nonpayable",
      "type": "function"
    },
    {
      "inputs": [],
      "name": "storeAddr",
      "outputs": [
        {
          "internalType": "address",
          "name": "",
          "type": "address"
        }
      ],
      "stateMutability": "view",
      "type": "function"
    },
    {
      "inputs": [
        {
          "internalType": "address",
          "name": "newOwner",
          "type": "address"
        }
      ],
      "name": "transferOwnership",
      "outputs": [],
      "stateMutability": "nonpayable",
      "type": "function"
    },
    {
      "inputs": [],
      "name": "wagerAmount",
      "outputs": [
        {
          "internalType": "uint256",
          "name": "",
          "type": "uint256"
        }
      ],
      "stateMutability": "view",
      "type": "function"
    },
    {
      "inputs": [],
      "name": "wagerName",
      "outputs": [
        {
          "internalType": "string",
          "name": "",
          "type": "string"
        }
      ],
      "stateMutability": "view",
      "type": "function"
    },
    {
      "inputs": [],
      "name": "wagerState",
      "outputs": [
        {
          "internalType": "enum Wager.WagerState",
          "name": "",
          "type": "uint8"
        }
      ],
      "stateMutability": "view",
      "type": "function"
    },
    {
      "inputs": [],
      "name": "winner",
      "outputs": [
        {
          "internalType": "address",
          "name": "",
          "type": "address"
        }
      ],
      "stateMutability": "view",
      "type": "function"
    },
    {
      "inputs": [
        {
          "internalType": "address",
          "name": "participant",
          "type": "address"
        }
      ],
      "name": "participate",
      "outputs": [],
      "stateMutability": "payable",
      "type": "function"
    },
    {
      "inputs": [],
      "name": "makeWager",
      "outputs": [],
      "stateMutability": "payable",
      "type": "function"
    },
    {
      "inputs": [],
      "name": "winnerWithdraw",
      "outputs": [],
      "stateMutability": "nonpayable",
      "type": "function"
    },
    {
      "inputs": [],
      "name": "myStake",
      "outputs": [
        {
          "internalType": "uint256",
          "name": "",
          "type": "uint256"
        }
      ],
      "stateMutability": "view",
      "type": "function"
    },
    {
      "inputs": [],
      "name": "participantWithdraw",
      "outputs": [],
      "stateMutability": "nonpayable",
      "type": "function"
    },
    {
      "inputs": [],
      "name": "totalParticipants",
      "outputs": [
        {
          "internalType": "uint256",
          "name": "",
          "type": "uint256"
        }
      ],
      "stateMutability": "view",
      "type": "function"
    }
  ],
  "bytecode": "0x608060405260405162002b5b38038062002b5b833981810160405281019062000029919062000b3e565b60008060006101000a81548160ff0219169083151502179055506000620000556200028560201b60201c565b905080600060016101000a81548173ffffffffffffffffffffffffffffffffffffffff021916908373ffffffffffffffffffffffffffffffffffffffff1602179055508073ffffffffffffffffffffffffffffffffffffffff16600073ffffffffffffffffffffffffffffffffffffffff167f8be0079c531659141344cd1fd0a4f28419497f9722a3daafe3b4186f6b6457e060405160405180910390a350600034116200013a576040517f08c379a0000000000000000000000000000000000000000000000000000000008152600401620001319062000da9565b60405180910390fd5b61012c8210156200014a57600080fd5b826001908051906020019062000162929190620009ee565b506200017d82426200028d60201b620013aa1790919060201c565b600281905550346003819055506000600460006101000a81548160ff02191690836002811115620001d7577f4e487b7100000000000000000000000000000000000000000000000000000000600052602160045260246000fd5b021790555033600560006101000a81548173ffffffffffffffffffffffffffffffffffffffff021916908373ffffffffffffffffffffffffffffffffffffffff16021790555060006003819055503373ffffffffffffffffffffffffffffffffffffffff168173ffffffffffffffffffffffffffffffffffffffff16146200026b576200026a81620002a560201b60201c565b5b6200027c816200046760201b60201c565b5050506200102d565b600033905090565b600081836200029d919062000e65565b905092915050565b620002b56200028560201b60201c565b73ffffffffffffffffffffffffffffffffffffffff16620002db620008cd60201b60201c565b73ffffffffffffffffffffffffffffffffffffffff161462000334576040517f08c379a00000000000000000000000000000000000000000000000000000000081526004016200032b9062000d87565b60405180910390fd5b600073ffffffffffffffffffffffffffffffffffffffff168173ffffffffffffffffffffffffffffffffffffffff161415620003a7576040517f08c379a00000000000000000000000000000000000000000000000000000000081526004016200039e9062000d43565b60405180910390fd5b8073ffffffffffffffffffffffffffffffffffffffff16600060019054906101000a900473ffffffffffffffffffffffffffffffffffffffff1673ffffffffffffffffffffffffffffffffffffffff167f8be0079c531659141344cd1fd0a4f28419497f9722a3daafe3b4186f6b6457e060405160405180910390a380600060016101000a81548173ffffffffffffffffffffffffffffffffffffffff021916908373ffffffffffffffffffffffffffffffffffffffff16021790555050565b60025442118015620004fa575060006002811115620004af577f4e487b7100000000000000000000000000000000000000000000000000000000600052602160045260246000fd5b600460009054906101000a900460ff166002811115620004f8577f4e487b7100000000000000000000000000000000000000000000000000000000600052602160045260246000fd5b145b15620005115762000510620008f660201b60201c565b5b600354341462000558576040517f08c379a00000000000000000000000000000000000000000000000000000000081526004016200054f9062000dcb565b60405180910390fd5b62000568620009d860201b60201c565b15620005ab576040517f08c379a0000000000000000000000000000000000000000000000000000000008152600401620005a29062000d65565b60405180910390fd5b6000806002811115620005e7577f4e487b7100000000000000000000000000000000000000000000000000000000600052602160045260246000fd5b600460009054906101000a900460ff16600281111562000630577f4e487b7100000000000000000000000000000000000000000000000000000000600052602160045260246000fd5b146200063b57600080fd5b6000600660008473ffffffffffffffffffffffffffffffffffffffff1673ffffffffffffffffffffffffffffffffffffffff168152602001908152602001600020541480156200070c575060006002811115620006c1577f4e487b7100000000000000000000000000000000000000000000000000000000600052602160045260246000fd5b600460009054906101000a900460ff1660028111156200070a577f4e487b7100000000000000000000000000000000000000000000000000000000600052602160045260246000fd5b145b1562000886576007829080600181540180825580915050600190039060005260206000200160009091909190916101000a81548173ffffffffffffffffffffffffffffffffffffffff021916908373ffffffffffffffffffffffffffffffffffffffff160217905550620007ce34600660008573ffffffffffffffffffffffffffffffffffffffff1673ffffffffffffffffffffffffffffffffffffffff168152602001908152602001600020546200028d60201b620013aa1790919060201c565b600660008473ffffffffffffffffffffffffffffffffffffffff1673ffffffffffffffffffffffffffffffffffffffff168152602001908152602001600020819055506200082d346003546200028d60201b620013aa1790919060201c565b6003819055506001600460006101000a81548160ff0219169083600281111562000880577f4e487b7100000000000000000000000000000000000000000000000000000000600052602160045260246000fd5b02179055505b8173ffffffffffffffffffffffffffffffffffffffff167f7d64acc9d4044ccfe97ebec406decfbd00c7250c2addbadbd522b2dd40b6d63060405160405180910390a25050565b60008060019054906101000a900473ffffffffffffffffffffffffffffffffffffffff16905090565b6001600460009054906101000a900460ff16600281111562000941577f4e487b7100000000000000000000000000000000000000000000000000000000600052602160045260246000fd5b6200094d919062000e65565b600281111562000986577f4e487b7100000000000000000000000000000000000000000000000000000000600052602160045260246000fd5b600460006101000a81548160ff02191690836002811115620009d1577f4e487b7100000000000000000000000000000000000000000000000000000000600052602160045260246000fd5b0217905550565b60008060009054906101000a900460ff16905090565b828054620009fc9062000f36565b90600052602060002090601f01602090048101928262000a20576000855562000a6c565b82601f1062000a3b57805160ff191683800117855562000a6c565b8280016001018555821562000a6c579182015b8281111562000a6b57825182559160200191906001019062000a4e565b5b50905062000a7b919062000a7f565b5090565b5b8082111562000a9a57600081600090555060010162000a80565b5090565b600062000ab562000aaf8462000e21565b62000ded565b90508281526020810184848401111562000ace57600080fd5b62000adb84828562000f00565b509392505050565b60008151905062000af48162000ff9565b92915050565b600082601f83011262000b0c57600080fd5b815162000b1e84826020860162000a9e565b91505092915050565b60008151905062000b388162001013565b92915050565b60008060006060848603121562000b5457600080fd5b600084015167ffffffffffffffff81111562000b6f57600080fd5b62000b7d8682870162000afa565b935050602062000b908682870162000b27565b925050604062000ba38682870162000ae3565b9150509250925092565b600062000bbc60268362000e54565b91507f4f776e61626c653a206e6577206f776e657220697320746865207a65726f206160008301527f64647265737300000000000000000000000000000000000000000000000000006020830152604082019050919050565b600062000c2460108362000e54565b91507f5061757361626c653a20706175736564000000000000000000000000000000006000830152602082019050919050565b600062000c6660208362000e54565b91507f4f776e61626c653a2063616c6c6572206973206e6f7420746865206f776e65726000830152602082019050919050565b600062000ca8602b8362000e54565b91507f546865206d696e696d756d2077616765722068617320746f206265206772656160008301527f746572207468616e20302e0000000000000000000000000000000000000000006020830152604082019050919050565b600062000d10601e8362000e54565b91507f596f75206d757374207761676572207468652073616d6520616d6f756e7400006000830152602082019050919050565b6000602082019050818103600083015262000d5e8162000bad565b9050919050565b6000602082019050818103600083015262000d808162000c15565b9050919050565b6000602082019050818103600083015262000da28162000c57565b9050919050565b6000602082019050818103600083015262000dc48162000c99565b9050919050565b6000602082019050818103600083015262000de68162000d01565b9050919050565b6000604051905081810181811067ffffffffffffffff8211171562000e175762000e1662000fca565b5b8060405250919050565b600067ffffffffffffffff82111562000e3f5762000e3e62000fca565b5b601f19601f8301169050602081019050919050565b600082825260208201905092915050565b600062000e728262000ef6565b915062000e7f8362000ef6565b9250827fffffffffffffffffffffffffffffffffffffffffffffffffffffffffffffffff0382111562000eb75762000eb662000f6c565b5b828201905092915050565b600062000ecf8262000ed6565b9050919050565b600073ffffffffffffffffffffffffffffffffffffffff82169050919050565b6000819050919050565b60005b8381101562000f2057808201518184015260208101905062000f03565b8381111562000f30576000848401525b50505050565b6000600282049050600182168062000f4f57607f821691505b6020821081141562000f665762000f6562000f9b565b5b50919050565b7f4e487b7100000000000000000000000000000000000000000000000000000000600052601160045260246000fd5b7f4e487b7100000000000000000000000000000000000000000000000000000000600052602260045260246000fd5b7f4e487b7100000000000000000000000000000000000000000000000000000000600052604160045260246000fd5b620010048162000ec2565b81146200101057600080fd5b50565b6200101e8162000ef6565b81146200102a57600080fd5b50565b611b1e806200103d6000396000f3fe6080604052600436106100fe5760003560e01c8063a26dbf2611610095578063da7ee4d011610064578063da7ee4d0146102c1578063dd59b81d146102ec578063dfbf53ae14610317578063e10b650b14610342578063f2fde38b14610359576100fe565b8063a26dbf2614610259578063aefd029914610284578063b91038c71461028e578063d32d9b6e146102aa576100fe565b806381cfd053116100d157806381cfd053146101ad5780638da5cb5b146101d857806390a006c214610203578063955cdfb11461022e576100fe565b806335c1d3491461010357806349de4704146101405780635c975abb1461016b578063715018a614610196575b600080fd5b34801561010f57600080fd5b5061012a600480360381019061012591906114f8565b610382565b604051610137919061176b565b60405180910390f35b34801561014c57600080fd5b506101556103c1565b604051610162919061189e565b60405180910390f35b34801561017757600080fd5b506101806103c7565b60405161018d9190611786565b60405180910390f35b3480156101a257600080fd5b506101ab6103dd565b005b3480156101b957600080fd5b506101c2610519565b6040516101cf91906117bc565b60405180910390f35b3480156101e457600080fd5b506101ed6105a7565b6040516101fa919061176b565b60405180910390f35b34801561020f57600080fd5b506102186105d0565b604051610225919061189e565b60405180910390f35b34801561023a57600080fd5b506102436105d6565b604051610250919061189e565b60405180910390f35b34801561026557600080fd5b5061026e61061d565b60405161027b919061189e565b60405180910390f35b61028c610672565b005b6102a860048036038101906102a391906114cf565b61070d565b005b3480156102b657600080fd5b506102bf610b43565b005b3480156102cd57600080fd5b506102d6610ef8565b6040516102e391906117a1565b60405180910390f35b3480156102f857600080fd5b50610301610f0b565b60405161030e919061176b565b60405180910390f35b34801561032357600080fd5b5061032c610f31565b604051610339919061176b565b60405180910390f35b34801561034e57600080fd5b50610357610f57565b005b34801561036557600080fd5b50610380600480360381019061037b91906114cf565b6111fe565b005b6007818154811061039257600080fd5b906000526020600020016000915054906101000a900473ffffffffffffffffffffffffffffffffffffffff1681565b60035481565b60008060009054906101000a900460ff16905090565b6103e56113c0565b73ffffffffffffffffffffffffffffffffffffffff166104036105a7565b73ffffffffffffffffffffffffffffffffffffffff1614610459576040517f08c379a00000000000000000000000000000000000000000000000000000000081526004016104509061183e565b60405180910390fd5b600073ffffffffffffffffffffffffffffffffffffffff16600060019054906101000a900473ffffffffffffffffffffffffffffffffffffffff1673ffffffffffffffffffffffffffffffffffffffff167f8be0079c531659141344cd1fd0a4f28419497f9722a3daafe3b4186f6b6457e060405160405180910390a360008060016101000a81548173ffffffffffffffffffffffffffffffffffffffff021916908373ffffffffffffffffffffffffffffffffffffffff160217905550565b60018054610526906119d6565b80601f0160208091040260200160405190810160405280929190818152602001828054610552906119d6565b801561059f5780601f106105745761010080835404028352916020019161059f565b820191906000526020600020905b81548152906001019060200180831161058257829003601f168201915b505050505081565b60008060019054906101000a900473ffffffffffffffffffffffffffffffffffffffff16905090565b60025481565b6000600660003373ffffffffffffffffffffffffffffffffffffffff1673ffffffffffffffffffffffffffffffffffffffff16815260200190815260200160002054905090565b60006106276103c7565b15610667576040517f08c379a000000000000000000000000000000000000000000000000000000000815260040161065e9061181e565b60405180910390fd5b600780549050905090565b61067a6103c7565b156106ba576040517f08c379a00000000000000000000000000000000000000000000000000000000081526004016106b19061181e565b60405180910390fd5b66038d7ea4c68000341015610704576040517f08c379a00000000000000000000000000000000000000000000000000000000081526004016106fb906117fe565b60405180910390fd5b34600381905550565b6002544211801561079d575060006002811115610753577f4e487b7100000000000000000000000000000000000000000000000000000000600052602160045260246000fd5b600460009054906101000a900460ff16600281111561079b577f4e487b7100000000000000000000000000000000000000000000000000000000600052602160045260246000fd5b145b156107ab576107aa6113c8565b5b60035434146107ef576040517f08c379a00000000000000000000000000000000000000000000000000000000081526004016107e69061187e565b60405180910390fd5b6107f76103c7565b15610837576040517f08c379a000000000000000000000000000000000000000000000000000000000815260040161082e9061181e565b60405180910390fd5b6000806002811115610872577f4e487b7100000000000000000000000000000000000000000000000000000000600052602160045260246000fd5b600460009054906101000a900460ff1660028111156108ba577f4e487b7100000000000000000000000000000000000000000000000000000000600052602160045260246000fd5b146108c457600080fd5b6000600660008473ffffffffffffffffffffffffffffffffffffffff1673ffffffffffffffffffffffffffffffffffffffff16815260200190815260200160002054148015610992575060006002811115610948577f4e487b7100000000000000000000000000000000000000000000000000000000600052602160045260246000fd5b600460009054906101000a900460ff166002811115610990577f4e487b7100000000000000000000000000000000000000000000000000000000600052602160045260246000fd5b145b15610afc576007829080600181540180825580915050600190039060005260206000200160009091909190916101000a81548173ffffffffffffffffffffffffffffffffffffffff021916908373ffffffffffffffffffffffffffffffffffffffff160217905550610a4c34600660008573ffffffffffffffffffffffffffffffffffffffff1673ffffffffffffffffffffffffffffffffffffffff168152602001908152602001600020546113aa90919063ffffffff16565b600660008473ffffffffffffffffffffffffffffffffffffffff1673ffffffffffffffffffffffffffffffffffffffff16815260200190815260200160002081905550610aa4346003546113aa90919063ffffffff16565b6003819055506001600460006101000a81548160ff02191690836002811115610af6577f4e487b7100000000000000000000000000000000000000000000000000000000600052602160045260246000fd5b02179055505b8173ffffffffffffffffffffffffffffffffffffffff167f7d64acc9d4044ccfe97ebec406decfbd00c7250c2addbadbd522b2dd40b6d63060405160405180910390a25050565b60025442118015610bd3575060006002811115610b89577f4e487b7100000000000000000000000000000000000000000000000000000000600052602160045260246000fd5b600460009054906101000a900460ff166002811115610bd1577f4e487b7100000000000000000000000000000000000000000000000000000000600052602160045260246000fd5b145b15610be157610be06113c8565b5b610be96103c7565b15610c29576040517f08c379a0000000000000000000000000000000000000000000000000000000008152600401610c209061181e565b60405180910390fd5b6002806002811115610c64577f4e487b7100000000000000000000000000000000000000000000000000000000600052602160045260246000fd5b600460009054906101000a900460ff166002811115610cac577f4e487b7100000000000000000000000000000000000000000000000000000000600052602160045260246000fd5b1415610cb757600080fd5b336000600660008373ffffffffffffffffffffffffffffffffffffffff1673ffffffffffffffffffffffffffffffffffffffff1681526020019081526020016000205411610d0457600080fd5b600660003373ffffffffffffffffffffffffffffffffffffffff1673ffffffffffffffffffffffffffffffffffffffff16815260200190815260200160002054471015610d7a577f4e487b7100000000000000000000000000000000000000000000000000000000600052600160045260246000fd5b6000600660003373ffffffffffffffffffffffffffffffffffffffff1673ffffffffffffffffffffffffffffffffffffffff1681526020019081526020016000205490506000600660003373ffffffffffffffffffffffffffffffffffffffff1673ffffffffffffffffffffffffffffffffffffffff1681526020019081526020016000208190555060003373ffffffffffffffffffffffffffffffffffffffff1682604051610e2990611756565b60006040518083038185875af1925050503d8060008114610e66576040519150601f19603f3d011682016040523d82523d6000602084013e610e6b565b606091505b5050905080610eaf576040517f08c379a0000000000000000000000000000000000000000000000000000000008152600401610ea69061185e565b60405180910390fd5b3373ffffffffffffffffffffffffffffffffffffffff167f3e266c2ad2cc202f17483930e6b16678a30d79012d7293b281995b09ff3dd32760405160405180910390a250505050565b600460009054906101000a900460ff1681565b600560009054906101000a900473ffffffffffffffffffffffffffffffffffffffff1681565b600460019054906101000a900473ffffffffffffffffffffffffffffffffffffffff1681565b610f5f6103c7565b15610f9f576040517f08c379a0000000000000000000000000000000000000000000000000000000008152600401610f969061181e565b60405180910390fd5b6001806002811115610fda577f4e487b7100000000000000000000000000000000000000000000000000000000600052602160045260246000fd5b600460009054906101000a900460ff166002811115611022577f4e487b7100000000000000000000000000000000000000000000000000000000600052602160045260246000fd5b1461102c57600080fd5b600460019054906101000a900473ffffffffffffffffffffffffffffffffffffffff16600073ffffffffffffffffffffffffffffffffffffffff168173ffffffffffffffffffffffffffffffffffffffff16141580156110b757503373ffffffffffffffffffffffffffffffffffffffff168173ffffffffffffffffffffffffffffffffffffffff16145b6110c057600080fd5b6003544710156110f9577f4e487b7100000000000000000000000000000000000000000000000000000000600052600160045260246000fd5b6000600354905060003373ffffffffffffffffffffffffffffffffffffffff168260405161112690611756565b60006040518083038185875af1925050503d8060008114611163576040519150601f19603f3d011682016040523d82523d6000602084013e611168565b606091505b50509050806111ac576040517f08c379a00000000000000000000000000000000000000000000000000000000081526004016111a39061185e565b60405180910390fd5b813373ffffffffffffffffffffffffffffffffffffffff167f30feb9cca70a47eaac8989afbf877fcbd223cc28379154f2501d66e410c0976260405160405180910390a350506111fa6113c8565b5050565b6112066113c0565b73ffffffffffffffffffffffffffffffffffffffff166112246105a7565b73ffffffffffffffffffffffffffffffffffffffff161461127a576040517f08c379a00000000000000000000000000000000000000000000000000000000081526004016112719061183e565b60405180910390fd5b600073ffffffffffffffffffffffffffffffffffffffff168173ffffffffffffffffffffffffffffffffffffffff1614156112ea576040517f08c379a00000000000000000000000000000000000000000000000000000000081526004016112e1906117de565b60405180910390fd5b8073ffffffffffffffffffffffffffffffffffffffff16600060019054906101000a900473ffffffffffffffffffffffffffffffffffffffff1673ffffffffffffffffffffffffffffffffffffffff167f8be0079c531659141344cd1fd0a4f28419497f9722a3daafe3b4186f6b6457e060405160405180910390a380600060016101000a81548173ffffffffffffffffffffffffffffffffffffffff021916908373ffffffffffffffffffffffffffffffffffffffff16021790555050565b600081836113b891906118e0565b905092915050565b600033905090565b6001600460009054906101000a900460ff166002811115611412577f4e487b7100000000000000000000000000000000000000000000000000000000600052602160045260246000fd5b61141c91906118e0565b6002811115611454577f4e487b7100000000000000000000000000000000000000000000000000000000600052602160045260246000fd5b600460006101000a81548160ff0219169083600281111561149e577f4e487b7100000000000000000000000000000000000000000000000000000000600052602160045260246000fd5b0217905550565b6000813590506114b481611aba565b92915050565b6000813590506114c981611ad1565b92915050565b6000602082840312156114e157600080fd5b60006114ef848285016114a5565b91505092915050565b60006020828403121561150a57600080fd5b6000611518848285016114ba565b91505092915050565b61152a81611936565b82525050565b61153981611948565b82525050565b61154881611991565b82525050565b6000611559826118b9565b61156381856118cf565b93506115738185602086016119a3565b61157c81611a95565b840191505092915050565b60006115946026836118cf565b91507f4f776e61626c653a206e6577206f776e657220697320746865207a65726f206160008301527f64647265737300000000000000000000000000000000000000000000000000006020830152604082019050919050565b60006115fa601f836118cf565b91507f4d757374207761676572206174206c6561737420302e303031206574686572006000830152602082019050919050565b600061163a6010836118cf565b91507f5061757361626c653a20706175736564000000000000000000000000000000006000830152602082019050919050565b600061167a6020836118cf565b91507f4f776e61626c653a2063616c6c6572206973206e6f7420746865206f776e65726000830152602082019050919050565b60006116ba6000836118c4565b9150600082019050919050565b60006116d46010836118cf565b91507f5472616e73666572206661696c65642e000000000000000000000000000000006000830152602082019050919050565b6000611714601e836118cf565b91507f596f75206d757374207761676572207468652073616d6520616d6f756e7400006000830152602082019050919050565b61175081611987565b82525050565b6000611761826116ad565b9150819050919050565b60006020820190506117806000830184611521565b92915050565b600060208201905061179b6000830184611530565b92915050565b60006020820190506117b6600083018461153f565b92915050565b600060208201905081810360008301526117d6818461154e565b905092915050565b600060208201905081810360008301526117f781611587565b9050919050565b60006020820190508181036000830152611817816115ed565b9050919050565b600060208201905081810360008301526118378161162d565b9050919050565b600060208201905081810360008301526118578161166d565b9050919050565b60006020820190508181036000830152611877816116c7565b9050919050565b6000602082019050818103600083015261189781611707565b9050919050565b60006020820190506118b36000830184611747565b92915050565b600081519050919050565b600081905092915050565b600082825260208201905092915050565b60006118eb82611987565b91506118f683611987565b9250827fffffffffffffffffffffffffffffffffffffffffffffffffffffffffffffffff0382111561192b5761192a611a08565b5b828201905092915050565b600061194182611967565b9050919050565b60008115159050919050565b600081905061196282611aa6565b919050565b600073ffffffffffffffffffffffffffffffffffffffff82169050919050565b6000819050919050565b600061199c82611954565b9050919050565b60005b838110156119c15780820151818401526020810190506119a6565b838111156119d0576000848401525b50505050565b600060028204905060018216806119ee57607f821691505b60208210811415611a0257611a01611a66565b5b50919050565b7f4e487b7100000000000000000000000000000000000000000000000000000000600052601160045260246000fd5b7f4e487b7100000000000000000000000000000000000000000000000000000000600052602160045260246000fd5b7f4e487b7100000000000000000000000000000000000000000000000000000000600052602260045260246000fd5b6000601f19601f8301169050919050565b60038110611ab757611ab6611a37565b5b50565b611ac381611936565b8114611ace57600080fd5b50565b611ada81611987565b8114611ae557600080fd5b5056fea2646970667358221220944f8248bac09d97d4997df635091ca341c6bd2a05ad8217cd5571007f1c5bae64736f6c63430008000033",
  "immutableReferences": {},
  "source": "// SPDX-License-Identifier: MIT\npragma solidity ^0.8.0;\n\nimport \"./openzeppelin-solidity/contracts/access/Ownable.sol\";\nimport \"./openzeppelin-solidity/contracts/security/Pausable.sol\";\nimport \"./openzeppelin-solidity/contracts/utils/math/SafeMath.sol\";\n\n/// @author jaredborders\n/// @title A wager (1v1) contract\ncontract Wager is Pausable, Ownable {\n    using SafeMath for uint;\n    \n    /* STATE VARIABLES */\n\n    uint constant MIN_DURATION = 300; // Duration of wager >= 5 minutes\n    string public wagerName; // Name given to wager\n    uint public closedDateTime; // Amount of time wager is \"good\" for\n    uint public wagerAmount; // Wei wagered\n\n    // Managed state of current wager contract\n    enum WagerState { open, closed, stakeWithdrawn }\n    WagerState public wagerState;\n    \n    // Address of the winning participant\n    address public winner;\n\n    // Store of all wagers \n    address public storeAddr;\n\n    // Collections of challengers & wagers\n    mapping(address => uint) private participantStakes;\n    address[] public participants;\n\n    /* EVENTS */\n\n    event ParticipantJoin(address indexed participant);\n    event ParticipantWithdraw(address indexed participant);\n    event WinnerDetermined(address indexed winner);\n    event WinnerWithdraw(\n        address indexed winner,\n        uint indexed wagerAmount\n    );\n\n    /* CONSTRUCTOR */\n\n    /// Create a new Wager contract\n    /// @param _wagerName - Name of the Wager\n    /// @param _duration - The duration of the wager `open` period\n    /// @param _owner - the owner to be recognized by this contract. Not necessarily `msg.sender` nor `tx.origin` for flexibility.\n    constructor (\n        string memory _wagerName, \n        uint _duration, \n        address _owner\n    ) \n        payable \n    {\n        require(msg.value > 0, \"The minimum wager has to be greater than 0.\");\n        require (_duration >= MIN_DURATION);\n\n        wagerName = _wagerName;\n        closedDateTime = block.timestamp.add(_duration);\n        wagerAmount = msg.value;\n        wagerState = WagerState.open;\n\n        // Wager creation should be called from its store.\n        storeAddr = msg.sender;\n        wagerAmount = 0;\n\n        // Transfer ownership to the owner, because it defaults to msg.sender\n        //   by OpenZeppelin\n        if (_owner != msg.sender) {\n            transferOwnership(_owner);\n        }\n\n        // The creator also need to participate in the game.\n        participate(_owner);\n    }\n\n    /* MODIFIERS */\n\n    modifier aboveMinStake {\n        require(msg.value == wagerAmount, \"You must wager the same amount\");\n        _;\n    }\n\n    modifier timeTransitions {\n        if (block.timestamp > closedDateTime && wagerState == WagerState.open) {\n            nextState();\n        }\n        _;\n    }\n\n    modifier atState(WagerState state) {\n        require(wagerState == state);\n        _;\n    }\n\n    modifier notAtState(WagerState state) {\n        require(wagerState != state);\n        _;\n    }\n\n    modifier onlyBy(address addr) {\n        require(addr != address(0) && addr == msg.sender);\n        _;\n    }\n\n    modifier participantHasStake(address sender) {\n        require(participantStakes[sender] > 0);\n        _;\n    }\n\n    modifier transitionNext() {\n        _;\n        nextState();\n    }\n\n    /* PUBLIC FUNCTIONS */\n\n    /// For a player to challenge a current wager (i.e. enter the bet).\n    /// @param participant - address of the challenger\n    function participate(address participant) \n        public \n        payable \n        timeTransitions \n        aboveMinStake \n        whenNotPaused \n        atState(WagerState.open) \n    {\n        // This is a new participant, push into the array\n        if (participantStakes[participant] == 0 && wagerState == WagerState.open) {\n            participants.push(participant);\n            participantStakes[participant] = participantStakes[participant].add(msg.value);\n            wagerAmount = wagerAmount.add(msg.value);\n            wagerState = WagerState.closed;\n        }\n        \n        emit ParticipantJoin(participant);\n    }\n\n    function makeWager() \n        public \n        payable \n        whenNotPaused \n    {\n        require(msg.value >= 0.001 ether, \"Must wager at least 0.001 ether\");\n        wagerAmount = uint(msg.value);\n    }\n\n    /// Allowing winner to withdraw money.\n    /// @dev in order to prevent withdrawal address is a malicious contract, we use check-effect-interaction pattern inside.\n    function winnerWithdraw() \n        public \n        whenNotPaused \n        atState(WagerState.closed) \n        onlyBy(winner) \n        transitionNext \n    {\n        // Using check-effect-interaction pattern\n        // 1. Check - done by modifiers\n        // Invariant check: make sure the contract has enough balance to be withdrawn from.\n        assert(address(this).balance >= wagerAmount);\n\n        // 2. Effect\n        // But we still want to transition to next state only after successful\n        // winner withdrawal.\n        uint stake = wagerAmount;\n\n        // 3. Interaction\n        (bool success, ) = msg.sender.call {value: stake}(\"\");\n        require(success, \"Transfer failed.\");\n        emit WinnerWithdraw(msg.sender, stake);\n    }\n\n    /// Allow participant to check his own stake\n    /// @return stake of the `msg.sender` in the wager\n    function myStake() \n        public \n        view \n        returns(uint) \n    {\n        return participantStakes[msg.sender];\n    }\n\n    /// Allow participant to withdraw money\n    /// @dev Also want to check participant is not withdrawing from a wager that has all stakes withdrawn.\n    function participantWithdraw() \n        public \n        timeTransitions \n        whenNotPaused \n        notAtState(WagerState.stakeWithdrawn) \n        participantHasStake(msg.sender) \n    {\n        // Using check-effect-interaction pattern\n        // 1. Check - done by modifiers\n\n        // Invariant check: make sure the contract has enough balance to be withdrawn from.\n        assert(address(this).balance >= participantStakes[msg.sender]);\n\n        // 2. Effect - set the participantStake = 0\n        uint stake = participantStakes[msg.sender];\n        participantStakes[msg.sender] = 0;\n\n        // 3. Interaction - tranfer\n        (bool success, ) = msg.sender.call {value: stake} (\"\");\n        require(success, \"Transfer failed.\");\n        emit ParticipantWithdraw(msg.sender);\n    }\n\n    /* EXTERNAL FUNCTIONS */\n\n    /// Retrieving number of participants in the game\n    /// @return Number of participants in the game\n    function totalParticipants() \n        external \n        view \n        whenNotPaused \n        returns(uint) \n    {\n        return participants.length;\n    }\n    \n    /* INTERNAL FUNCTIONS */\n\n    /// Determine the winner of the wager\n    /// @return Address of the winner\n    function determineWinner() \n        internal \n        timeTransitions \n        whenNotPaused \n        atState(WagerState.closed) \n        returns(address) \n    {\n        if (winner != address(0)) return winner;\n\n        winner = determineWinnerInternal();\n        emit WinnerDetermined(winner);\n        return winner;\n    }\n\n    /// Advancing the Wager state.\n    function nextState() \n        internal \n    {\n        wagerState = WagerState(uint(wagerState) + 1);\n    }\n\n    /// Determine the winner of the Wager\n    /// @return Address of the winner\n    function determineWinnerInternal() \n        internal \n        view \n        returns(address) \n    {\n        uint index = getRandom(participants.length);\n        return participants[index];\n    }\n\n    /// Generate a random value\n    /// @param len - the generated value is between 0 to len, exclusively.\n    /// @return A random number\n    function getRandom(uint len) \n        internal \n        view \n        returns(uint) \n    {\n        return uint(keccak256(abi.encodePacked(block.timestamp, block.number,block.difficulty))).mod(len);\n        // CHANGE TO ORACLE LATER!! ^Above code may be subject to manipulation\n    }\n}\n",
  "sourcePath": "/Users/jaredborders/Documents/Work/Blockchain/Truffle-2X/contracts/Wager.sol",
  "compiler": {
    "name": "solc",
    "version": "0.8.0+commit.c7dfd78e.Emscripten.clang"
  },
  "schemaVersion": "3.3.4",
  "updatedAt": "2021-04-21T16:35:42.475Z",
  "devdoc": {
    "author": "jaredborders",
    "kind": "dev",
    "methods": {
      "constructor": {
        "params": {
          "_duration": "- The duration of the wager `open` period",
          "_owner": "- the owner to be recognized by this contract. Not necessarily `msg.sender` nor `tx.origin` for flexibility.",
          "_wagerName": "- Name of the Wager"
        }
      },
      "myStake()": {
        "returns": {
          "_0": "stake of the `msg.sender` in the wager"
        }
      },
      "owner()": {
        "details": "Returns the address of the current owner."
      },
      "participantWithdraw()": {
        "details": "Also want to check participant is not withdrawing from a wager that has all stakes withdrawn."
      },
      "participate(address)": {
        "params": {
          "participant": "- address of the challenger"
        }
      },
      "paused()": {
        "details": "Returns true if the contract is paused, and false otherwise."
      },
      "renounceOwnership()": {
        "details": "Leaves the contract without owner. It will not be possible to call `onlyOwner` functions anymore. Can only be called by the current owner. NOTE: Renouncing ownership will leave the contract without an owner, thereby removing any functionality that is only available to the owner."
      },
      "totalParticipants()": {
        "returns": {
          "_0": "Number of participants in the game"
        }
      },
      "transferOwnership(address)": {
        "details": "Transfers ownership of the contract to a new account (`newOwner`). Can only be called by the current owner."
      },
      "winnerWithdraw()": {
        "details": "in order to prevent withdrawal address is a malicious contract, we use check-effect-interaction pattern inside."
      }
    },
    "title": "A wager (1v1) contract",
    "version": 1
  },
  "userdoc": {
    "kind": "user",
    "methods": {
      "constructor": {
        "notice": "Create a new Wager contract"
      },
      "myStake()": {
        "notice": "Allow participant to check his own stake"
      },
      "participantWithdraw()": {
        "notice": "Allow participant to withdraw money"
      },
      "participate(address)": {
        "notice": "For a player to challenge a current wager (i.e. enter the bet)."
      },
      "totalParticipants()": {
        "notice": "Retrieving number of participants in the game"
      },
      "winnerWithdraw()": {
        "notice": "Allowing winner to withdraw money."
      }
    },
    "version": 1
  }
}