{
  "contractName": "WagerStore2",
  "abi": [
    {
      "inputs": [],
      "stateMutability": "nonpayable",
      "type": "constructor"
    },
    {
      "anonymous": false,
      "inputs": [
        {
          "indexed": true,
          "internalType": "address",
          "name": "previousOwner",
          "type": "address"
        },
        {
          "indexed": true,
          "internalType": "address",
          "name": "newOwner",
          "type": "address"
        }
      ],
      "name": "OwnershipTransferred",
      "type": "event"
    },
    {
      "anonymous": false,
      "inputs": [
        {
          "indexed": false,
          "internalType": "address",
          "name": "account",
          "type": "address"
        }
      ],
      "name": "Paused",
      "type": "event"
    },
    {
      "anonymous": false,
      "inputs": [
        {
          "indexed": false,
          "internalType": "address",
          "name": "account",
          "type": "address"
        }
      ],
      "name": "Unpaused",
      "type": "event"
    },
    {
      "inputs": [],
      "name": "owner",
      "outputs": [
        {
          "internalType": "address",
          "name": "",
          "type": "address"
        }
      ],
      "stateMutability": "view",
      "type": "function"
    },
    {
      "inputs": [],
      "name": "paused",
      "outputs": [
        {
          "internalType": "bool",
          "name": "",
          "type": "bool"
        }
      ],
      "stateMutability": "view",
      "type": "function"
    },
    {
      "inputs": [],
      "name": "renounceOwnership",
      "outputs": [],
      "stateMutability": "nonpayable",
      "type": "function"
    },
    {
      "inputs": [
        {
          "internalType": "address",
          "name": "newOwner",
          "type": "address"
        }
      ],
      "name": "transferOwnership",
      "outputs": [],
      "stateMutability": "nonpayable",
      "type": "function"
    },
    {
      "inputs": [
        {
          "internalType": "uint256",
          "name": "",
          "type": "uint256"
        }
      ],
      "name": "wagerAddresses",
      "outputs": [
        {
          "internalType": "address",
          "name": "",
          "type": "address"
        }
      ],
      "stateMutability": "view",
      "type": "function"
    },
    {
      "inputs": [
        {
          "internalType": "uint256",
          "name": "_duration",
          "type": "uint256"
        }
      ],
      "name": "createWagerContract",
      "outputs": [
        {
          "internalType": "contract Wager2",
          "name": "",
          "type": "address"
        }
      ],
      "stateMutability": "payable",
      "type": "function"
    },
    {
      "inputs": [],
      "name": "getWagers",
      "outputs": [
        {
          "internalType": "address[]",
          "name": "",
          "type": "address[]"
        }
      ],
      "stateMutability": "view",
      "type": "function"
    }
  ],
  "bytecode": "0x608060405234801561001057600080fd5b5060008060006101000a81548160ff021916908315150217905550600061003b6100df60201b60201c565b905080600060016101000a81548173ffffffffffffffffffffffffffffffffffffffff021916908373ffffffffffffffffffffffffffffffffffffffff1602179055508073ffffffffffffffffffffffffffffffffffffffff16600073ffffffffffffffffffffffffffffffffffffffff167f8be0079c531659141344cd1fd0a4f28419497f9722a3daafe3b4186f6b6457e060405160405180910390a3506100e7565b600033905090565b611b3c806100f66000396000f3fe6080604052600436106200007a5760003560e01c80638da5cb5b11620000555780638da5cb5b146200010d578063906328a3146200013d57806392b7cdb51462000173578063f2fde38b14620001a3576200007a565b806305c38e33146200007f5780635c975abb14620000c3578063715018a614620000f3575b600080fd5b3480156200008c57600080fd5b50620000ab6004803603810190620000a5919062000754565b620001d1565b604051620000ba919062000903565b60405180910390f35b348015620000d057600080fd5b50620000db62000211565b604051620000ea919062000971565b60405180910390f35b3480156200010057600080fd5b506200010b62000227565b005b3480156200011a57600080fd5b50620001256200036a565b60405162000134919062000903565b60405180910390f35b6200015b600480360381019062000155919062000754565b62000393565b6040516200016a91906200098e565b60405180910390f35b3480156200018057600080fd5b506200018b6200049e565b6040516200019a91906200094d565b60405180910390f35b348015620001b057600080fd5b50620001cf6004803603810190620001c9919062000728565b6200052e565b005b60028181548110620001e257600080fd5b906000526020600020016000915054906101000a900473ffffffffffffffffffffffffffffffffffffffff1681565b60008060009054906101000a900460ff16905090565b62000231620006e4565b73ffffffffffffffffffffffffffffffffffffffff16620002516200036a565b73ffffffffffffffffffffffffffffffffffffffff1614620002aa576040517f08c379a0000000000000000000000000000000000000000000000000000000008152600401620002a190620009cd565b60405180910390fd5b600073ffffffffffffffffffffffffffffffffffffffff16600060019054906101000a900473ffffffffffffffffffffffffffffffffffffffff1673ffffffffffffffffffffffffffffffffffffffff167f8be0079c531659141344cd1fd0a4f28419497f9722a3daafe3b4186f6b6457e060405160405180910390a360008060016101000a81548173ffffffffffffffffffffffffffffffffffffffff021916908373ffffffffffffffffffffffffffffffffffffffff160217905550565b60008060019054906101000a900473ffffffffffffffffffffffffffffffffffffffff16905090565b600080343384604051620003a790620006ec565b620003b492919062000920565b6040518091039082f0905080158015620003d2573d6000803e3d6000fd5b50905060008190506002819080600181540180825580915050600190039060005260206000200160009091909190916101000a81548173ffffffffffffffffffffffffffffffffffffffff021916908373ffffffffffffffffffffffffffffffffffffffff16021790555060018060008373ffffffffffffffffffffffffffffffffffffffff1673ffffffffffffffffffffffffffffffffffffffff16815260200190815260200160002060006101000a81548160ff0219169083151502179055508192505050919050565b606060028054806020026020016040519081016040528092919081815260200182805480156200052457602002820191906000526020600020905b8160009054906101000a900473ffffffffffffffffffffffffffffffffffffffff1673ffffffffffffffffffffffffffffffffffffffff1681526020019060010190808311620004d9575b5050505050905090565b62000538620006e4565b73ffffffffffffffffffffffffffffffffffffffff16620005586200036a565b73ffffffffffffffffffffffffffffffffffffffff1614620005b1576040517f08c379a0000000000000000000000000000000000000000000000000000000008152600401620005a890620009cd565b60405180910390fd5b600073ffffffffffffffffffffffffffffffffffffffff168173ffffffffffffffffffffffffffffffffffffffff16141562000624576040517f08c379a00000000000000000000000000000000000000000000000000000000081526004016200061b90620009ab565b60405180910390fd5b8073ffffffffffffffffffffffffffffffffffffffff16600060019054906101000a900473ffffffffffffffffffffffffffffffffffffffff1673ffffffffffffffffffffffffffffffffffffffff167f8be0079c531659141344cd1fd0a4f28419497f9722a3daafe3b4186f6b6457e060405160405180910390a380600060016101000a81548173ffffffffffffffffffffffffffffffffffffffff021916908373ffffffffffffffffffffffffffffffffffffffff16021790555050565b600033905090565b6110278062000ae083390190565b6000813590506200070b8162000aab565b92915050565b600081359050620007228162000ac5565b92915050565b6000602082840312156200073b57600080fd5b60006200074b84828501620006fa565b91505092915050565b6000602082840312156200076757600080fd5b6000620007778482850162000711565b91505092915050565b60006200078e83836200079a565b60208301905092915050565b620007a58162000a39565b82525050565b620007b68162000a39565b82525050565b6000620007c982620009ff565b620007d5818562000a17565b9350620007e283620009ef565b8060005b8381101562000819578151620007fd888262000780565b97506200080a8362000a0a565b925050600181019050620007e6565b5085935050505092915050565b620008318162000a4d565b82525050565b620008428162000a83565b82525050565b60006200085760268362000a28565b91507f4f776e61626c653a206e6577206f776e657220697320746865207a65726f206160008301527f64647265737300000000000000000000000000000000000000000000000000006020830152604082019050919050565b6000620008bf60208362000a28565b91507f4f776e61626c653a2063616c6c6572206973206e6f7420746865206f776e65726000830152602082019050919050565b620008fd8162000a79565b82525050565b60006020820190506200091a6000830184620007ab565b92915050565b6000604082019050620009376000830185620007ab565b620009466020830184620008f2565b9392505050565b60006020820190508181036000830152620009698184620007bc565b905092915050565b600060208201905062000988600083018462000826565b92915050565b6000602082019050620009a5600083018462000837565b92915050565b60006020820190508181036000830152620009c68162000848565b9050919050565b60006020820190508181036000830152620009e881620008b0565b9050919050565b6000819050602082019050919050565b600081519050919050565b6000602082019050919050565b600082825260208201905092915050565b600082825260208201905092915050565b600062000a468262000a59565b9050919050565b60008115159050919050565b600073ffffffffffffffffffffffffffffffffffffffff82169050919050565b6000819050919050565b600062000a908262000a97565b9050919050565b600062000aa48262000a59565b9050919050565b62000ab68162000a39565b811462000ac257600080fd5b50565b62000ad08162000a79565b811462000adc57600080fd5b5056fe60806040526040516200102738038062001027833981810160405281019062000029919062000264565b60008060006101000a81548160ff0219169083151502179055506000620000556200022e60201b60201c565b905080600060016101000a81548173ffffffffffffffffffffffffffffffffffffffff021916908373ffffffffffffffffffffffffffffffffffffffff1602179055508073ffffffffffffffffffffffffffffffffffffffff16600073ffffffffffffffffffffffffffffffffffffffff167f8be0079c531659141344cd1fd0a4f28419497f9722a3daafe3b4186f6b6457e060405160405180910390a35066038d7ea4c6800034101562000141576040517f08c379a000000000000000000000000000000000000000000000000000000000815260040162000138906200034f565b60405180910390fd5b61012c81101562000189576040517f08c379a0000000000000000000000000000000000000000000000000000000008152600401620001809062000371565b60405180910390fd5b81600160006101000a81548173ffffffffffffffffffffffffffffffffffffffff021916908373ffffffffffffffffffffffffffffffffffffffff160217905550346002819055504281620001df9190620003a4565b60038190555033600460006101000a81548173ffffffffffffffffffffffffffffffffffffffff021916908373ffffffffffffffffffffffffffffffffffffffff1602179055505050620004a2565b600033905090565b60008151905062000247816200046e565b92915050565b6000815190506200025e8162000488565b92915050565b600080604083850312156200027857600080fd5b6000620002888582860162000236565b92505060206200029b858286016200024d565b9150509250929050565b6000620002b4601f8362000393565b91507f4d757374207761676572206174206c6561737420302e303031206574686572006000830152602082019050919050565b6000620002f660378362000393565b91507f4475726174696f6e206f6620776167657220617661696c6162696c697479206960008301527f7320746f6f2073686f727420283c35206d696e757465730000000000000000006020830152604082019050919050565b600060208201905081810360008301526200036a81620002a5565b9050919050565b600060208201905081810360008301526200038c81620002e7565b9050919050565b600082825260208201905092915050565b6000620003b18262000435565b9150620003be8362000435565b9250827fffffffffffffffffffffffffffffffffffffffffffffffffffffffffffffffff03821115620003f657620003f56200043f565b5b828201905092915050565b60006200040e8262000415565b9050919050565b600073ffffffffffffffffffffffffffffffffffffffff82169050919050565b6000819050919050565b7f4e487b7100000000000000000000000000000000000000000000000000000000600052601160045260246000fd5b620004798162000401565b81146200048557600080fd5b50565b620004938162000435565b81146200049f57600080fd5b50565b610b7580620004b26000396000f3fe6080604052600436106100865760003560e01c8063715018a611610059578063715018a61461013757806372fb97031461014e57806381980e3a1461016a5780638da5cb5b14610195578063f2fde38b146101c057610086565b8063236344a31461008b578063485e70a0146100b657806349de4704146100e15780635c975abb1461010c575b600080fd5b34801561009757600080fd5b506100a06101e9565b6040516100ad919061090f565b60405180910390f35b3480156100c257600080fd5b506100cb61020f565b6040516100d8919061090f565b60405180910390f35b3480156100ed57600080fd5b506100f6610235565b60405161010391906109c5565b60405180910390f35b34801561011857600080fd5b5061012161023b565b60405161012e919061092a565b60405180910390f35b34801561014357600080fd5b5061014c610251565b005b6101686004803603810190610163919061073f565b61038d565b005b34801561017657600080fd5b5061017f61043a565b60405161018c91906109c5565b60405180910390f35b3480156101a157600080fd5b506101aa610440565b6040516101b7919061090f565b60405180910390f35b3480156101cc57600080fd5b506101e760048036038101906101e2919061073f565b610469565b005b600460009054906101000a900473ffffffffffffffffffffffffffffffffffffffff1681565b600160009054906101000a900473ffffffffffffffffffffffffffffffffffffffff1681565b60025481565b60008060009054906101000a900460ff16905090565b610259610615565b73ffffffffffffffffffffffffffffffffffffffff16610277610440565b73ffffffffffffffffffffffffffffffffffffffff16146102cd576040517f08c379a00000000000000000000000000000000000000000000000000000000081526004016102c490610985565b60405180910390fd5b600073ffffffffffffffffffffffffffffffffffffffff16600060019054906101000a900473ffffffffffffffffffffffffffffffffffffffff1673ffffffffffffffffffffffffffffffffffffffff167f8be0079c531659141344cd1fd0a4f28419497f9722a3daafe3b4186f6b6457e060405160405180910390a360008060016101000a81548173ffffffffffffffffffffffffffffffffffffffff021916908373ffffffffffffffffffffffffffffffffffffffff160217905550565b60035442106103d1576040517f08c379a00000000000000000000000000000000000000000000000000000000081526004016103c890610965565b60405180910390fd5b6002543414610415576040517f08c379a000000000000000000000000000000000000000000000000000000000815260040161040c906109a5565b60405180910390fd5b346002600082825461042791906109f1565b925050819055506104378161061d565b50565b60035481565b60008060019054906101000a900473ffffffffffffffffffffffffffffffffffffffff16905090565b610471610615565b73ffffffffffffffffffffffffffffffffffffffff1661048f610440565b73ffffffffffffffffffffffffffffffffffffffff16146104e5576040517f08c379a00000000000000000000000000000000000000000000000000000000081526004016104dc90610985565b60405180910390fd5b600073ffffffffffffffffffffffffffffffffffffffff168173ffffffffffffffffffffffffffffffffffffffff161415610555576040517f08c379a000000000000000000000000000000000000000000000000000000000815260040161054c90610945565b60405180910390fd5b8073ffffffffffffffffffffffffffffffffffffffff16600060019054906101000a900473ffffffffffffffffffffffffffffffffffffffff1673ffffffffffffffffffffffffffffffffffffffff167f8be0079c531659141344cd1fd0a4f28419497f9722a3daafe3b4186f6b6457e060405160405180910390a380600060016101000a81548173ffffffffffffffffffffffffffffffffffffffff021916908373ffffffffffffffffffffffffffffffffffffffff16021790555050565b600033905090565b60006106276106e9565b1461067a578073ffffffffffffffffffffffffffffffffffffffff166108fc6002549081150290604051600060405180830381858888f19350505050158015610674573d6000803e3d6000fd5b506106e6565b600160009054906101000a900473ffffffffffffffffffffffffffffffffffffffff1673ffffffffffffffffffffffffffffffffffffffff166108fc6002549081150290604051600060405180830381858888f193505050501580156106e4573d6000803e3d6000fd5b505b50565b60006002424344604051602001610702939291906108d2565b6040516020818303038152906040528051906020012060001c6107259190610a99565b905090565b60008135905061073981610b28565b92915050565b60006020828403121561075157600080fd5b600061075f8482850161072a565b91505092915050565b61077181610a47565b82525050565b61078081610a59565b82525050565b60006107936026836109e0565b91507f4f776e61626c653a206e6577206f776e657220697320746865207a65726f206160008301527f64647265737300000000000000000000000000000000000000000000000000006020830152604082019050919050565b60006107f96011836109e0565b91507f57616765722068617320657870697265640000000000000000000000000000006000830152602082019050919050565b60006108396020836109e0565b91507f4f776e61626c653a2063616c6c6572206973206e6f7420746865206f776e65726000830152602082019050919050565b6000610879601e836109e0565b91507f596f75206d757374207761676572207468652073616d6520616d6f756e7400006000830152602082019050919050565b6108b581610a85565b82525050565b6108cc6108c782610a85565b610a8f565b82525050565b60006108de82866108bb565b6020820191506108ee82856108bb565b6020820191506108fe82846108bb565b602082019150819050949350505050565b60006020820190506109246000830184610768565b92915050565b600060208201905061093f6000830184610777565b92915050565b6000602082019050818103600083015261095e81610786565b9050919050565b6000602082019050818103600083015261097e816107ec565b9050919050565b6000602082019050818103600083015261099e8161082c565b9050919050565b600060208201905081810360008301526109be8161086c565b9050919050565b60006020820190506109da60008301846108ac565b92915050565b600082825260208201905092915050565b60006109fc82610a85565b9150610a0783610a85565b9250827fffffffffffffffffffffffffffffffffffffffffffffffffffffffffffffffff03821115610a3c57610a3b610aca565b5b828201905092915050565b6000610a5282610a65565b9050919050565b60008115159050919050565b600073ffffffffffffffffffffffffffffffffffffffff82169050919050565b6000819050919050565b6000819050919050565b6000610aa482610a85565b9150610aaf83610a85565b925082610abf57610abe610af9565b5b828206905092915050565b7f4e487b7100000000000000000000000000000000000000000000000000000000600052601160045260246000fd5b7f4e487b7100000000000000000000000000000000000000000000000000000000600052601260045260246000fd5b610b3181610a47565b8114610b3c57600080fd5b5056fea26469706673582212205b8319b05ba1ec0412b290e08efafd1918f6af8f4bc8247d7b77f24eec42814d64736f6c63430008000033a2646970667358221220651fdb94a4c09255df2a459ae0b8194a4080d6cf1242aa632278dc60e52259e564736f6c63430008000033",
  "immutableReferences": {},
  "source": "// SPDX-License-Identifier: MIT\npragma solidity ^0.8.0;\n\nimport \"./openzeppelin-solidity/contracts/security/Pausable.sol\";\nimport \"./openzeppelin-solidity/contracts/access/Ownable.sol\";\nimport \"./Wager2.sol\";\n\n/* Change Request: Integrate Ownable and Pausable */\n\n/// @author jaredborders\n/// @title WagerStore2\ncontract WagerStore2 is Pausable, Ownable {\n\n    /* STATE VARIABLES */\n    mapping(address => bool) activeWagers;\n    address[] public wagerAddresses;\n\n    /* MODIFIERS */\n    modifier createdByThisStore(address wagerAddress) {\n        require(activeWagers[wagerAddress]); // true if address has been added to mapping\n        _;\n    }\n\n    /* CONSTRUCTOR */\n    constructor() {}\n\n    /* FUNCTIONS */\n    /// Create a new Wager\n    /// @dev The new Wager is then saved in the array of this contract for future reference\n    /// @param _duration - Duration of the wager `open` period\n    /// @return The created Wager\n    function createWagerContract(uint _duration) \n        public \n        payable \n        returns(Wager2) \n    {\n        Wager2 newWager = (new Wager2) {value: msg.value} \n            ({\n                _owner: msg.sender,\n                _wagerDuration: _duration\n                \n            });\n\n        address wagerAddress = address(newWager);\n\n        // Update with new contract info\n        wagerAddresses.push(wagerAddress);\n        activeWagers[wagerAddress] = true;\n        return newWager;\n    }\n\n    /// Retrieve the the array of created contracts\n    /// @return An array of all created Wager contracts\n    function getWagers() \n        public \n        view \n        returns(address[] memory) \n    {\n        return wagerAddresses;\n    }\n\n}",
  "sourcePath": "/Users/jaredborders/Documents/Work/Blockchain/2X/contracts/WagerStore2.sol",
  "compiler": {
    "name": "solc",
    "version": "0.8.0+commit.c7dfd78e.Emscripten.clang"
  },
  "schemaVersion": "3.3.4",
  "updatedAt": "2021-04-24T06:32:45.028Z",
  "devdoc": {
    "author": "jaredborders",
    "kind": "dev",
    "methods": {
      "createWagerContract(uint256)": {
        "details": "The new Wager is then saved in the array of this contract for future reference",
        "params": {
          "_duration": "- Duration of the wager `open` period"
        },
        "returns": {
          "_0": "The created Wager"
        }
      },
      "getWagers()": {
        "returns": {
          "_0": "An array of all created Wager contracts"
        }
      },
      "owner()": {
        "details": "Returns the address of the current owner."
      },
      "paused()": {
        "details": "Returns true if the contract is paused, and false otherwise."
      },
      "renounceOwnership()": {
        "details": "Leaves the contract without owner. It will not be possible to call `onlyOwner` functions anymore. Can only be called by the current owner. NOTE: Renouncing ownership will leave the contract without an owner, thereby removing any functionality that is only available to the owner."
      },
      "transferOwnership(address)": {
        "details": "Transfers ownership of the contract to a new account (`newOwner`). Can only be called by the current owner."
      }
    },
    "title": "WagerStore2",
    "version": 1
  },
  "userdoc": {
    "kind": "user",
    "methods": {
      "createWagerContract(uint256)": {
        "notice": "Create a new Wager"
      },
      "getWagers()": {
        "notice": "Retrieve the the array of created contracts"
      }
    },
    "version": 1
  }
}